{
  "_format": "hh-sol-artifact-1",
  "contractName": "AqaroPresale",
  "sourceName": "contracts/token/AqaroPresale.sol",
  "abi": [
    {
      "inputs": [
        {
          "internalType": "address",
          "name": "_factoryController",
          "type": "address"
        },
        {
          "internalType": "address",
          "name": "_aqaroToken",
          "type": "address"
        }
      ],
      "stateMutability": "nonpayable",
      "type": "constructor"
    },
    {
      "inputs": [],
      "name": "aqaroToken",
      "outputs": [
        {
          "internalType": "contract AqaroTokenInterface",
          "name": "",
          "type": "address"
        }
      ],
      "stateMutability": "view",
      "type": "function"
    },
    {
      "inputs": [
        {
          "internalType": "address",
          "name": "",
          "type": "address"
        }
      ],
      "name": "balances",
      "outputs": [
        {
          "internalType": "uint256",
          "name": "",
          "type": "uint256"
        }
      ],
      "stateMutability": "view",
      "type": "function"
    },
    {
      "inputs": [
        {
          "internalType": "uint256",
          "name": "_amount",
          "type": "uint256"
        }
      ],
      "name": "buyAqaroToken",
      "outputs": [],
      "stateMutability": "payable",
      "type": "function"
    },
    {
      "inputs": [
        {
          "internalType": "address",
          "name": "",
          "type": "address"
        }
      ],
      "name": "ethBalances",
      "outputs": [
        {
          "internalType": "uint256",
          "name": "",
          "type": "uint256"
        }
      ],
      "stateMutability": "view",
      "type": "function"
    },
    {
      "inputs": [],
      "name": "factoryController",
      "outputs": [
        {
          "internalType": "address",
          "name": "",
          "type": "address"
        }
      ],
      "stateMutability": "view",
      "type": "function"
    },
    {
      "inputs": [],
      "name": "presaleEndDate",
      "outputs": [
        {
          "internalType": "uint256",
          "name": "",
          "type": "uint256"
        }
      ],
      "stateMutability": "view",
      "type": "function"
    },
    {
      "inputs": [],
      "name": "softcap",
      "outputs": [
        {
          "internalType": "uint256",
          "name": "",
          "type": "uint256"
        }
      ],
      "stateMutability": "view",
      "type": "function"
    },
    {
      "inputs": [],
      "name": "tokenPrice",
      "outputs": [
        {
          "internalType": "uint256",
          "name": "",
          "type": "uint256"
        }
      ],
      "stateMutability": "view",
      "type": "function"
    },
    {
      "inputs": [],
      "name": "transferEtherToController",
      "outputs": [],
      "stateMutability": "nonpayable",
      "type": "function"
    },
    {
      "inputs": [],
      "name": "withdrawEther",
      "outputs": [],
      "stateMutability": "nonpayable",
      "type": "function"
    },
    {
      "inputs": [],
      "name": "withdrawTokensToController",
      "outputs": [],
      "stateMutability": "nonpayable",
      "type": "function"
    }
  ],
  "bytecode": "0x6080604052660110d9316ec000600355683635c9adc5dea0000060045534801561002857600080fd5b50604051610fea380380610fea833981016040819052610047916100ab565b60016000819055600280546001600160a01b038086166001600160a01b0319928316179092558254918416911617905561008442624f1a006100de565b600555506101059050565b80516001600160a01b03811681146100a657600080fd5b919050565b600080604083850312156100be57600080fd5b6100c78361008f565b91506100d56020840161008f565b90509250929050565b808201808211156100ff57634e487b7160e01b600052601160045260246000fd5b92915050565b610ed6806101146000396000f3fe6080604052600436106100bc5760003560e01c80635f650dfe116100745780639a2e27f81161004e5780639a2e27f8146101d0578063b30b84d5146101e6578063f89be5931461020657600080fd5b80635f650dfe146101925780637362377b146101a55780637ff9b596146101ba57600080fd5b80631f96b5ff116100a55780631f96b5ff1461011557806327e235e31461012a5780633cfba0e31461016557600080fd5b806317dae8b9146100c15780631f287809146100d8575b600080fd5b3480156100cd57600080fd5b506100d661021c565b005b3480156100e457600080fd5b506002546100f8906001600160a01b031681565b6040516001600160a01b0390911681526020015b60405180910390f35b34801561012157600080fd5b506100d6610439565b34801561013657600080fd5b50610157610145366004610dbd565b60066020526000908152604090205481565b60405190815260200161010c565b34801561017157600080fd5b50610157610180366004610dbd565b60076020526000908152604090205481565b6100d66101a0366004610ded565b610624565b3480156101b157600080fd5b506100d6610938565b3480156101c657600080fd5b5061015760035481565b3480156101dc57600080fd5b5061015760055481565b3480156101f257600080fd5b506001546100f8906001600160a01b031681565b34801561021257600080fd5b5061015760045481565b610224610d64565b6002546001600160a01b031633146102a95760405162461bcd60e51b815260206004820152603d60248201527f50726573616c65546f6b656e3a204f6e6c7920666163746f727920636f6e747260448201527f6f6c6c65722063616e2063616c6c20746869732066756e6374696f6e2e00000060648201526084015b60405180910390fd5b60055442101561030c5760405162461bcd60e51b815260206004820152602860248201527f50726573616c65546f6b656e3a2050726573616c6520686173206e6f7420656e6044820152673232b2103cb2ba1760c11b60648201526084016102a0565b6004544710156103835760405162461bcd60e51b8152602060048201526024808201527f50726573616c65546f6b656e3a20536f6674636170206973206e6f742072656160448201527f636865640000000000000000000000000000000000000000000000000000000060648201526084016102a0565b6002546040516000916001600160a01b03169047905b60006040518083038185875af1925050503d80600081146103d6576040519150601f19603f3d011682016040523d82523d6000602084013e6103db565b606091505b505090508061042c5760405162461bcd60e51b815260206004820152601060248201527f5472616e73666572206661696c65642e0000000000000000000000000000000060448201526064016102a0565b506104376001600055565b565b610441610d64565b6002546001600160a01b031633146104c15760405162461bcd60e51b815260206004820152603d60248201527f50726573616c65546f6b656e3a204f6e6c7920666163746f727920636f6e747260448201527f6f6c6c65722063616e2063616c6c20746869732066756e6374696f6e2e00000060648201526084016102a0565b6005544210156105245760405162461bcd60e51b815260206004820152602860248201527f50726573616c65546f6b656e3a2050726573616c6520686173206e6f7420656e6044820152673232b2103cb2ba1760c11b60648201526084016102a0565b6001546002546040516370a0823160e01b81523060048201526001600160a01b039283169263a9059cbb92169083906370a0823190602401602060405180830381865afa158015610579573d6000803e3d6000fd5b505050506040513d601f19601f8201168201806040525081019061059d9190610e06565b6040517fffffffff0000000000000000000000000000000000000000000000000000000060e085901b1681526001600160a01b03909216600483015260248201526044016020604051808303816000875af1158015610600573d6000803e3d6000fd5b505050506040513d601f19601f8201168201806040525081019061042c9190610e1f565b61062c610d64565b600554421061067d5760405162461bcd60e51b815260206004820181905260248201527f50726573616c65546f6b656e3a2050726573616c652068617320656e6465642e60448201526064016102a0565b600081116106f35760405162461bcd60e51b815260206004820152603160248201527f50726573616c65546f6b656e3a204d7573742073656e6420657468657220746f60448201527f2062757920417161726f20746f6b656e2e00000000000000000000000000000060648201526084016102a0565b6001546040516370a0823160e01b815230600482015282916001600160a01b0316906370a0823190602401602060405180830381865afa15801561073b573d6000803e3d6000fd5b505050506040513d601f19601f8201168201806040525081019061075f9190610e06565b10156107d35760405162461bcd60e51b815260206004820152603560248201527f50726573616c65546f6b656e3a204e6f7420656e6f75676820417161726f207460448201527f6f6b656e20696e2074686520636f6e74726163742e000000000000000000000060648201526084016102a0565b6003546107e09082610e70565b34146108545760405162461bcd60e51b815260206004820152603460248201527f50726573616c65546f6b656e3a204d7573742073656e642074686520636f727260448201527f65637420616d6f756e74206f662065746865722e00000000000000000000000060648201526084016102a0565b3360009081526006602052604081208054839290610873908490610e8d565b90915550503360009081526007602052604081208054349290610897908490610e8d565b90915550506001546040517fa9059cbb000000000000000000000000000000000000000000000000000000008152336004820152602481018390526001600160a01b039091169063a9059cbb906044016020604051808303816000875af1158015610906573d6000803e3d6000fd5b505050506040513d601f19601f8201168201806040525081019061092a9190610e1f565b506109356001600055565b50565b610940610d64565b6005544210156109a35760405162461bcd60e51b815260206004820152602860248201527f50726573616c65546f6b656e3a2050726573616c6520686173206e6f7420656e6044820152673232b2103cb2ba1760c11b60648201526084016102a0565b60045447106109f45760405162461bcd60e51b815260206004820181905260248201527f50726573616c65546f6b656e3a20536f6674636170206973207265616368656460448201526064016102a0565b33600081815260066020526040908190205460015491517fdd62ed3e0000000000000000000000000000000000000000000000000000000081526004810193909352306024840152916001600160a01b039091169063dd62ed3e90604401602060405180830381865afa158015610a6f573d6000803e3d6000fd5b505050506040513d601f19601f82011682018060405250810190610a939190610e06565b1015610b2d5760405162461bcd60e51b815260206004820152604a60248201527f50726573616c65546f6b656e3a20596f75206d75737420617070726f7665207460448201527f686520636f6e747261637420746f207472616e7366657220796f75722041716160648201527f726f20746f6b656e732e00000000000000000000000000000000000000000000608482015260a4016102a0565b33600090815260066020526040908190205460015491516370a0823160e01b815230600482015290916001600160a01b0316906370a0823190602401602060405180830381865afa158015610b86573d6000803e3d6000fd5b505050506040513d601f19601f82011682018060405250810190610baa9190610e06565b1015610c1e5760405162461bcd60e51b815260206004820152603060248201527f50726573616c65546f6b656e3a204e6f7420656e6f75676820746f6b656e732060448201527f696e2074686520636f6e74726163742e0000000000000000000000000000000060648201526084016102a0565b33600090815260076020526040902054471015610ca35760405162461bcd60e51b815260206004820152602f60248201527f50726573616c65546f6b656e3a204e6f7420656e6f756768206574686572206960448201527f6e2074686520636f6e74726163742e000000000000000000000000000000000060648201526084016102a0565b60015433600081815260066020526040908190205490517f23b872dd000000000000000000000000000000000000000000000000000000008152600481019290925230602483015260448201526001600160a01b03909116906323b872dd906064016020604051808303816000875af1158015610d24573d6000803e3d6000fd5b505050506040513d601f19601f82011682018060405250810190610d489190610e1f565b5033600081815260076020526040808220549051919291610399565b600260005403610db65760405162461bcd60e51b815260206004820152601f60248201527f5265656e7472616e637947756172643a207265656e7472616e742063616c6c0060448201526064016102a0565b6002600055565b600060208284031215610dcf57600080fd5b81356001600160a01b0381168114610de657600080fd5b9392505050565b600060208284031215610dff57600080fd5b5035919050565b600060208284031215610e1857600080fd5b5051919050565b600060208284031215610e3157600080fd5b81518015158114610de657600080fd5b7f4e487b7100000000000000000000000000000000000000000000000000000000600052601160045260246000fd5b8082028115828204841417610e8757610e87610e41565b92915050565b80820180821115610e8757610e87610e4156fea26469706673582212205bcc217b531e41c45b9ca28b4da5ba1cdffcad50d90b1a92975c29c2ae1611d264736f6c63430008110033",
  "linkReferences": {},
  "deployedLinkReferences": {}
}