{
  "_format": "hh-sol-artifact-1",
  "contractName": "AqaroEarlySale",
  "sourceName": "contracts/token/sale/EarlySale.sol",
  "abi": [
    {
      "inputs": [
        {
          "internalType": "address",
          "name": "_factoryController",
          "type": "address"
        },
        {
          "internalType": "address",
          "name": "_aqaroToken",
          "type": "address"
        }
      ],
      "stateMutability": "nonpayable",
      "type": "constructor"
    },
    {
      "inputs": [],
      "name": "aqaroToken",
      "outputs": [
        {
          "internalType": "contract AqaroTokenInterface",
          "name": "",
          "type": "address"
        }
      ],
      "stateMutability": "view",
      "type": "function"
    },
    {
      "inputs": [
        {
          "internalType": "address",
          "name": "",
          "type": "address"
        }
      ],
      "name": "balances",
      "outputs": [
        {
          "internalType": "uint256",
          "name": "",
          "type": "uint256"
        }
      ],
      "stateMutability": "view",
      "type": "function"
    },
    {
      "inputs": [
        {
          "internalType": "address",
          "name": "",
          "type": "address"
        }
      ],
      "name": "ethBalances",
      "outputs": [
        {
          "internalType": "uint256",
          "name": "",
          "type": "uint256"
        }
      ],
      "stateMutability": "view",
      "type": "function"
    },
    {
      "inputs": [],
      "name": "factoryController",
      "outputs": [
        {
          "internalType": "address",
          "name": "",
          "type": "address"
        }
      ],
      "stateMutability": "view",
      "type": "function"
    },
    {
      "inputs": [
        {
          "internalType": "uint256",
          "name": "_amount",
          "type": "uint256"
        }
      ],
      "name": "investInAqaro",
      "outputs": [
        {
          "internalType": "bool",
          "name": "",
          "type": "bool"
        }
      ],
      "stateMutability": "payable",
      "type": "function"
    },
    {
      "inputs": [],
      "name": "saleEndDate",
      "outputs": [
        {
          "internalType": "uint256",
          "name": "",
          "type": "uint256"
        }
      ],
      "stateMutability": "view",
      "type": "function"
    },
    {
      "inputs": [],
      "name": "tokenPrice",
      "outputs": [
        {
          "internalType": "uint256",
          "name": "",
          "type": "uint256"
        }
      ],
      "stateMutability": "view",
      "type": "function"
    },
    {
      "inputs": [],
      "name": "transferEthToController",
      "outputs": [],
      "stateMutability": "nonpayable",
      "type": "function"
    },
    {
      "inputs": [],
      "name": "withdrawTokensToController",
      "outputs": [],
      "stateMutability": "nonpayable",
      "type": "function"
    }
  ],
  "bytecode": "0x60806040526571afd498d00060035534801561001a57600080fd5b50604051610b8b380380610b8b8339810160408190526100399161009d565b60016000819055600280546001600160a01b038086166001600160a01b0319928316179092558254918416911617905561007642624f1a006100d0565b600455506100f79050565b80516001600160a01b038116811461009857600080fd5b919050565b600080604083850312156100b057600080fd5b6100b983610081565b91506100c760208401610081565b90509250929050565b808201808211156100f157634e487b7160e01b600052601160045260246000fd5b92915050565b610a85806101066000396000f3fe6080604052600436106100965760003560e01c80633cfba0e3116100695780637ff9b5961161004e5780637ff9b596146101905780639e866151146101a6578063b30b84d5146101bb57600080fd5b80633cfba0e31461014d5780636affdc391461017a57600080fd5b8063177987411461009b5780631f287809146100c35780631f96b5ff146100fb57806327e235e314610112575b600080fd5b6100ae6100a9366004610963565b6101db565b60405190151581526020015b60405180910390f35b3480156100cf57600080fd5b506002546100e3906001600160a01b031681565b6040516001600160a01b0390911681526020016100ba565b34801561010757600080fd5b50610110610586565b005b34801561011e57600080fd5b5061013f61012d36600461097c565b60056020526000908152604090205481565b6040519081526020016100ba565b34801561015957600080fd5b5061013f61016836600461097c565b60066020526000908152604090205481565b34801561018657600080fd5b5061013f60045481565b34801561019c57600080fd5b5061013f60035481565b3480156101b257600080fd5b5061011061077d565b3480156101c757600080fd5b506001546100e3906001600160a01b031681565b60006101e561090a565b60045442106102615760405162461bcd60e51b815260206004820152602260248201527f417161726f4561726c7953616c653a2050726573616c652068617320656e646560448201527f642e00000000000000000000000000000000000000000000000000000000000060648201526084015b60405180910390fd5b600082116102d75760405162461bcd60e51b815260206004820152603360248201527f417161726f4561726c7953616c653a204d7573742073656e642065746865722060448201527f746f2062757920417161726f20746f6b656e2e000000000000000000000000006064820152608401610258565b6001546040516370a0823160e01b815230600482015283916001600160a01b0316906370a0823190602401602060405180830381865afa15801561031f573d6000803e3d6000fd5b505050506040513d601f19601f8201168201806040525081019061034391906109ac565b10156103b75760405162461bcd60e51b815260206004820152603760248201527f417161726f4561726c7953616c653a204e6f7420656e6f75676820417161726f60448201527f20746f6b656e20696e2074686520636f6e74726163742e0000000000000000006064820152608401610258565b670de0b6b3a7640000826003546103ce91906109db565b6103d891906109f8565b341461044c5760405162461bcd60e51b815260206004820152603660248201527f417161726f4561726c7953616c653a204d7573742073656e642074686520636f60448201527f727265637420616d6f756e74206f662065746865722e000000000000000000006064820152608401610258565b336000908152600560205260408120805484929061046b908490610a1a565b9091555050336000908152600660205260408120805434929061048f908490610a1a565b90915550506001546040517fa9059cbb000000000000000000000000000000000000000000000000000000008152336004820152602481018490526000916001600160a01b03169063a9059cbb906044016020604051808303816000875af11580156104ff573d6000803e3d6000fd5b505050506040513d601f19601f820116820180604052508101906105239190610a2d565b9050806105725760405162461bcd60e51b815260206004820181905260248201527f417161726f4561726c7953616c653a205472616e73666572206661696c65642e6044820152606401610258565b60019150506105816001600055565b919050565b61058e61090a565b6002546001600160a01b0316331461060e5760405162461bcd60e51b815260206004820152603f60248201527f417161726f4561726c7953616c653a204f6e6c7920666163746f727920636f6e60448201527f74726f6c6c65722063616e2063616c6c20746869732066756e6374696f6e2e006064820152608401610258565b6004544210156106705760405162461bcd60e51b815260206004820152602760248201527f417161726f4561726c7953616c653a2053616c6520686173206e6f7420656e6460448201526632b2103cb2ba1760c91b6064820152608401610258565b6001546002546040516370a0823160e01b81523060048201526001600160a01b039283169263a9059cbb92169083906370a0823190602401602060405180830381865afa1580156106c5573d6000803e3d6000fd5b505050506040513d601f19601f820116820180604052508101906106e991906109ac565b6040517fffffffff0000000000000000000000000000000000000000000000000000000060e085901b1681526001600160a01b03909216600483015260248201526044016020604051808303816000875af115801561074c573d6000803e3d6000fd5b505050506040513d601f19601f820116820180604052508101906107709190610a2d565b5061077b6001600055565b565b61078561090a565b6002546001600160a01b031633146108055760405162461bcd60e51b815260206004820152603f60248201527f417161726f4561726c7953616c653a204f6e6c7920666163746f727920636f6e60448201527f74726f6c6c65722063616e2063616c6c20746869732066756e6374696f6e2e006064820152608401610258565b6004544210156108675760405162461bcd60e51b815260206004820152602760248201527f417161726f4561726c7953616c653a2053616c6520686173206e6f7420656e6460448201526632b2103cb2ba1760c91b6064820152608401610258565b6002546040516000916001600160a01b03169047908381818185875af1925050503d80600081146108b4576040519150601f19603f3d011682016040523d82523d6000602084013e6108b9565b606091505b50509050806107705760405162461bcd60e51b815260206004820152601060248201527f5472616e73666572206661696c65642e000000000000000000000000000000006044820152606401610258565b60026000540361095c5760405162461bcd60e51b815260206004820152601f60248201527f5265656e7472616e637947756172643a207265656e7472616e742063616c6c006044820152606401610258565b6002600055565b60006020828403121561097557600080fd5b5035919050565b60006020828403121561098e57600080fd5b81356001600160a01b03811681146109a557600080fd5b9392505050565b6000602082840312156109be57600080fd5b5051919050565b634e487b7160e01b600052601160045260246000fd5b80820281158282048414176109f2576109f26109c5565b92915050565b600082610a1557634e487b7160e01b600052601260045260246000fd5b500490565b808201808211156109f2576109f26109c5565b600060208284031215610a3f57600080fd5b815180151581146109a557600080fdfea264697066735822122045104c60c55f5ec15312e91257d04b98c03bfcc1dc326af8492c5b163bd2b92964736f6c63430008110033",
  "linkReferences": {},
  "deployedLinkReferences": {}
}