{
  "_format": "hh-sol-artifact-1",
  "contractName": "Mortgage",
  "sourceName": "contracts/mortgage/Mortgage.sol",
  "abi": [
    {
      "inputs": [
        {
          "internalType": "address",
          "name": "_propertyContract",
          "type": "address"
        },
        {
          "internalType": "address",
          "name": "_buyer",
          "type": "address"
        },
        {
          "components": [
            {
              "internalType": "string",
              "name": "name",
              "type": "string"
            },
            {
              "internalType": "uint256",
              "name": "income",
              "type": "uint256"
            }
          ],
          "internalType": "struct MortgageRequester",
          "name": "requester",
          "type": "tuple"
        }
      ],
      "stateMutability": "nonpayable",
      "type": "constructor"
    },
    {
      "inputs": [],
      "name": "buyer",
      "outputs": [
        {
          "internalType": "address",
          "name": "",
          "type": "address"
        }
      ],
      "stateMutability": "view",
      "type": "function"
    },
    {
      "inputs": [],
      "name": "mortgageAmount",
      "outputs": [
        {
          "internalType": "uint256",
          "name": "",
          "type": "uint256"
        }
      ],
      "stateMutability": "view",
      "type": "function"
    },
    {
      "inputs": [],
      "name": "propertyContract",
      "outputs": [
        {
          "internalType": "address",
          "name": "",
          "type": "address"
        }
      ],
      "stateMutability": "view",
      "type": "function"
    },
    {
      "inputs": [],
      "name": "status",
      "outputs": [
        {
          "internalType": "enum MortgageStatus",
          "name": "",
          "type": "uint8"
        }
      ],
      "stateMutability": "view",
      "type": "function"
    }
  ],
  "bytecode": "0x608060405234801561001057600080fd5b506040516104ea3803806104ea83398101604081905261002f91610125565b6001600081905580546001600160a81b0319166101006001600160a01b038681169190910291909117909155600280546001600160a01b03191691841691909117905580518190600490819061008590826102b0565b506020820151816001015590505050505061036f565b80516001600160a01b03811681146100b257600080fd5b919050565b634e487b7160e01b600052604160045260246000fd5b604080519081016001600160401b03811182821017156100ef576100ef6100b7565b60405290565b604051601f8201601f191681016001600160401b038111828210171561011d5761011d6100b7565b604052919050565b60008060006060848603121561013a57600080fd5b6101438461009b565b9250602061015281860161009b565b60408601519093506001600160401b038082111561016f57600080fd5b908601906040828903121561018357600080fd5b61018b6100cd565b82518281111561019a57600080fd5b8301601f81018a136101ab57600080fd5b8051838111156101bd576101bd6100b7565b6101cf601f8201601f191687016100f5565b93508084528a868284010111156101e557600080fd5b60005b818110156102035782810187015185820188015286016101e8565b50600086828601015250508181528383015184820152809450505050509250925092565b600181811c9082168061023b57607f821691505b60208210810361025b57634e487b7160e01b600052602260045260246000fd5b50919050565b601f8211156102ab57600081815260208120601f850160051c810160208610156102885750805b601f850160051c820191505b818110156102a757828155600101610294565b5050505b505050565b81516001600160401b038111156102c9576102c96100b7565b6102dd816102d78454610227565b84610261565b602080601f83116001811461031257600084156102fa5750858301515b600019600386901b1c1916600185901b1785556102a7565b600085815260208120601f198616915b8281101561034157888601518255948401946001909101908401610322565b508582101561035f5787850151600019600388901b60f8161c191681555b5050505050600190811b01905550565b61016c8061037e6000396000f3fe608060405234801561001057600080fd5b506004361061004c5760003560e01c8063200d2ed2146100515780635ce85a45146100745780637150d8ae1461008b5780638fca9673146100d0575b600080fd5b60015461005e9060ff1681565b60405161006b91906100f5565b60405180910390f35b61007d60035481565b60405190815260200161006b565b6002546100ab9073ffffffffffffffffffffffffffffffffffffffff1681565b60405173ffffffffffffffffffffffffffffffffffffffff909116815260200161006b565b6001546100ab90610100900473ffffffffffffffffffffffffffffffffffffffff1681565b6020810160058310610130577f4e487b7100000000000000000000000000000000000000000000000000000000600052602160045260246000fd5b9190529056fea26469706673582212206d5aefd0154057eabd88439fd27669282f938421f9e0654dbb0adaa7c6e3afd964736f6c63430008110033",
  "linkReferences": {},
  "deployedLinkReferences": {}
}