{
  "_format": "hh-sol-artifact-1",
  "contractName": "Mortgage",
  "sourceName": "contracts/mortgage/Mortgage.sol",
  "abi": [
    {
      "inputs": [
        {
          "internalType": "address",
          "name": "_propertyContract",
          "type": "address"
        },
        {
          "internalType": "address",
          "name": "_buyer",
          "type": "address"
        },
        {
          "components": [
            {
              "internalType": "string",
              "name": "name",
              "type": "string"
            },
            {
              "internalType": "uint256",
              "name": "income",
              "type": "uint256"
            },
            {
              "internalType": "bool",
              "name": "KYCVerified",
              "type": "bool"
            }
          ],
          "internalType": "struct MortgageRequester",
          "name": "requester",
          "type": "tuple"
        },
        {
          "components": [
            {
              "internalType": "uint256",
              "name": "amount",
              "type": "uint256"
            },
            {
              "internalType": "uint256",
              "name": "duration",
              "type": "uint256"
            },
            {
              "internalType": "int8",
              "name": "interestRate",
              "type": "int8"
            }
          ],
          "internalType": "struct MortgagePayment",
          "name": "mortgagePayment",
          "type": "tuple"
        }
      ],
      "stateMutability": "nonpayable",
      "type": "constructor"
    },
    {
      "inputs": [],
      "name": "buyer",
      "outputs": [
        {
          "internalType": "address",
          "name": "",
          "type": "address"
        }
      ],
      "stateMutability": "view",
      "type": "function"
    },
    {
      "inputs": [],
      "name": "mortgageAmount",
      "outputs": [
        {
          "internalType": "int256",
          "name": "",
          "type": "int256"
        }
      ],
      "stateMutability": "view",
      "type": "function"
    },
    {
      "inputs": [],
      "name": "mortgageAmountEth",
      "outputs": [
        {
          "internalType": "uint256",
          "name": "",
          "type": "uint256"
        }
      ],
      "stateMutability": "view",
      "type": "function"
    },
    {
      "inputs": [],
      "name": "mortgageDuration",
      "outputs": [
        {
          "internalType": "uint256",
          "name": "",
          "type": "uint256"
        }
      ],
      "stateMutability": "view",
      "type": "function"
    },
    {
      "inputs": [],
      "name": "payWindow",
      "outputs": [
        {
          "internalType": "uint256",
          "name": "",
          "type": "uint256"
        }
      ],
      "stateMutability": "view",
      "type": "function"
    },
    {
      "inputs": [],
      "name": "paymentInterval",
      "outputs": [
        {
          "internalType": "uint256",
          "name": "",
          "type": "uint256"
        }
      ],
      "stateMutability": "view",
      "type": "function"
    },
    {
      "inputs": [],
      "name": "propertyContract",
      "outputs": [
        {
          "internalType": "address",
          "name": "",
          "type": "address"
        }
      ],
      "stateMutability": "view",
      "type": "function"
    },
    {
      "inputs": [],
      "name": "startDate",
      "outputs": [
        {
          "internalType": "uint256",
          "name": "",
          "type": "uint256"
        }
      ],
      "stateMutability": "view",
      "type": "function"
    },
    {
      "inputs": [],
      "name": "status",
      "outputs": [
        {
          "internalType": "enum MortgageStatus",
          "name": "",
          "type": "uint8"
        }
      ],
      "stateMutability": "view",
      "type": "function"
    }
  ],
  "bytecode": "0x608060405262093a8060075562278d0060085534801561001e57600080fd5b5060405161062a38038061062a83398101604081905261003d916101c3565b6001600081905580546001600160a81b0319166101006001600160a01b038781169190910291909117909155600280546001600160a01b0319169185169190911790558151829060099081906100939082610370565b5060208281015160018301556040928301516002909201805492151560ff199384161790558351600c55830151600d55910151600e805460ff92909216919092161790555061042f915050565b80516001600160a01b03811681146100f757600080fd5b919050565b634e487b7160e01b600052604160045260246000fd5b604051606081016001600160401b0381118282101715610134576101346100fc565b60405290565b604051601f8201601f191681016001600160401b0381118282101715610162576101626100fc565b604052919050565b805180151581146100f757600080fd5b60006060828403121561018c57600080fd5b610194610112565b9050815181526020820151602082015260408201518060000b81146101b857600080fd5b604082015292915050565b60008060008060c085870312156101d957600080fd5b6101e2856100e0565b935060206101f18187016100e0565b60408701519094506001600160401b038082111561020e57600080fd5b908701906060828a03121561022257600080fd5b61022a610112565b82518281111561023957600080fd5b8301601f81018b1361024a57600080fd5b80518381111561025c5761025c6100fc565b61026e601f8201601f1916870161013a565b93508084528b8682840101111561028457600080fd5b60005b818110156102a2578281018701518582018801528601610287565b5060009084018601525081815282840151818501526102c36040840161016a565b6040820152809550505050506102dc866060870161017a565b905092959194509250565b600181811c908216806102fb57607f821691505b60208210810361031b57634e487b7160e01b600052602260045260246000fd5b50919050565b601f82111561036b57600081815260208120601f850160051c810160208610156103485750805b601f850160051c820191505b8181101561036757828155600101610354565b5050505b505050565b81516001600160401b03811115610389576103896100fc565b61039d8161039784546102e7565b84610321565b602080601f8311600181146103d257600084156103ba5750858301515b600019600386901b1c1916600185901b178555610367565b600085815260208120601f198616915b82811015610401578886015182559484019460019091019084016103e2565b508582101561041f5787850151600019600388901b60f8161c191681555b5050505050600190811b01905550565b6101ec8061043e6000396000f3fe608060405234801561001057600080fd5b50600436106100a35760003560e01c8063409bb92e116100765780636c8b7efa1161005b5780636c8b7efa146101025780637150d8ae1461010b5780638fca96731461015057600080fd5b8063409bb92e146100f05780635ce85a45146100f957600080fd5b806303c96a5a146100a85780630b97bc86146100c45780631cc1cf46146100cd578063200d2ed2146100d6575b600080fd5b6100b160055481565b6040519081526020015b60405180910390f35b6100b160065481565b6100b160085481565b6001546100e39060ff1681565b6040516100bb9190610175565b6100b160075481565b6100b160035481565b6100b160045481565b60025461012b9073ffffffffffffffffffffffffffffffffffffffff1681565b60405173ffffffffffffffffffffffffffffffffffffffff90911681526020016100bb565b60015461012b90610100900473ffffffffffffffffffffffffffffffffffffffff1681565b60208101600783106101b0577f4e487b7100000000000000000000000000000000000000000000000000000000600052602160045260246000fd5b9190529056fea26469706673582212206ce320c9177381f9a5cb656ab35c160f9015ac3accbd9354b432ed14e927578464736f6c63430008110033",
  "linkReferences": {},
  "deployedLinkReferences": {}
}