{
  "_format": "hh-sol-artifact-1",
  "contractName": "MortgageFactory",
  "sourceName": "contracts/mortgage/MortgageFactory.sol",
  "abi": [
    {
      "inputs": [
        {
          "internalType": "address",
          "name": "_factoryController",
          "type": "address"
        }
      ],
      "stateMutability": "nonpayable",
      "type": "constructor"
    },
    {
      "inputs": [],
      "name": "CannotRequestPropertyWhenPropertyOwner",
      "type": "error"
    },
    {
      "inputs": [],
      "name": "InvalidAddress",
      "type": "error"
    },
    {
      "inputs": [
        {
          "internalType": "address",
          "name": "propertyContract",
          "type": "address"
        }
      ],
      "name": "MortgageAlreadyRequested",
      "type": "error"
    },
    {
      "inputs": [],
      "name": "MortgagePaymentAmountZero",
      "type": "error"
    },
    {
      "inputs": [],
      "name": "PropertyDoesNotExists",
      "type": "error"
    },
    {
      "anonymous": false,
      "inputs": [
        {
          "indexed": true,
          "internalType": "address",
          "name": "mortgageContract",
          "type": "address"
        },
        {
          "indexed": true,
          "internalType": "address",
          "name": "propertyContract",
          "type": "address"
        },
        {
          "indexed": true,
          "internalType": "address",
          "name": "owner",
          "type": "address"
        }
      ],
      "name": "MortgageRequested",
      "type": "event"
    },
    {
      "inputs": [],
      "name": "factoryController",
      "outputs": [
        {
          "internalType": "address",
          "name": "",
          "type": "address"
        }
      ],
      "stateMutability": "view",
      "type": "function"
    },
    {
      "inputs": [],
      "name": "getMortgageContracts",
      "outputs": [
        {
          "internalType": "address[]",
          "name": "",
          "type": "address[]"
        }
      ],
      "stateMutability": "view",
      "type": "function"
    },
    {
      "inputs": [
        {
          "internalType": "uint256",
          "name": "",
          "type": "uint256"
        }
      ],
      "name": "mortgageContracts",
      "outputs": [
        {
          "internalType": "address",
          "name": "",
          "type": "address"
        }
      ],
      "stateMutability": "view",
      "type": "function"
    },
    {
      "inputs": [
        {
          "internalType": "address",
          "name": "",
          "type": "address"
        },
        {
          "internalType": "address",
          "name": "",
          "type": "address"
        }
      ],
      "name": "ownerPropertyMortgage",
      "outputs": [
        {
          "internalType": "address",
          "name": "",
          "type": "address"
        }
      ],
      "stateMutability": "view",
      "type": "function"
    },
    {
      "inputs": [
        {
          "internalType": "address",
          "name": "",
          "type": "address"
        }
      ],
      "name": "propertyMortgageRequests",
      "outputs": [
        {
          "internalType": "address",
          "name": "",
          "type": "address"
        }
      ],
      "stateMutability": "view",
      "type": "function"
    },
    {
      "inputs": [
        {
          "internalType": "address",
          "name": "propertyContract",
          "type": "address"
        },
        {
          "components": [
            {
              "internalType": "string",
              "name": "name",
              "type": "string"
            },
            {
              "internalType": "uint256",
              "name": "income",
              "type": "uint256"
            },
            {
              "internalType": "bool",
              "name": "KYCVerified",
              "type": "bool"
            }
          ],
          "internalType": "struct MortgageRequester",
          "name": "_requester",
          "type": "tuple"
        },
        {
          "components": [
            {
              "internalType": "uint256",
              "name": "amount",
              "type": "uint256"
            },
            {
              "internalType": "uint256",
              "name": "duration",
              "type": "uint256"
            },
            {
              "internalType": "int8",
              "name": "interestRate",
              "type": "int8"
            }
          ],
          "internalType": "struct MortgagePayment",
          "name": "_mortgagePayment",
          "type": "tuple"
        }
      ],
      "name": "requestMortgage",
      "outputs": [],
      "stateMutability": "nonpayable",
      "type": "function"
    }
  ],
  "bytecode": "0x608060405234801561001057600080fd5b5060405161144438038061144483398101604081905261002f91610059565b6001600081905580546001600160a01b0319166001600160a01b0392909216919091179055610089565b60006020828403121561006b57600080fd5b81516001600160a01b038116811461008257600080fd5b9392505050565b6113ac806100986000396000f3fe60806040523480156200001157600080fd5b50600436106200007b5760003560e01c80635d7d65af11620000565780635d7d65af14620000f45780636f8e55ac146200010d57806378144783146200014457600080fd5b80631f2878091462000080578063507b092014620000b15780635650b90014620000dd575b600080fd5b60015462000094906001600160a01b031681565b6040516001600160a01b0390911681526020015b60405180910390f35b62000094620000c2366004620005f5565b6002602052600090815260409020546001600160a01b031681565b62000094620000ee3660046200061c565b6200015d565b620000fe62000188565b604051620000a8919062000636565b620000946200011e36600462000685565b60036020908152600092835260408084209091529082529020546001600160a01b031681565b6200015b6200015536600462000811565b620001ec565b005b600481815481106200016e57600080fd5b6000918252602090912001546001600160a01b0316905081565b60606004805480602002602001604051908101604052809291908181526020018280548015620001e257602002820191906000526020600020905b81546001600160a01b03168152600190910190602001808311620001c3575b5050505050905090565b620001f662000559565b6001600160a01b03831662000237576040517fe6c4247b00000000000000000000000000000000000000000000000000000000815260040160405180910390fd5b805160000362000273576040517fb0d2f13200000000000000000000000000000000000000000000000000000000815260040160405180910390fd5b6000839050336001600160a01b0316816001600160a01b031663f446c38f6040518163ffffffff1660e01b8152600401602060405180830381865afa158015620002c1573d6000803e3d6000fd5b505050506040513d601f19601f82011682018060405250810190620002e7919062000911565b6001600160a01b03160362000328576040517f9fce1f5700000000000000000000000000000000000000000000000000000000815260040160405180910390fd5b336000908152600260205260409020546001600160a01b038083169116036200038d576040517f8a928ead0000000000000000000000000000000000000000000000000000000081526001600160a01b03851660048201526024015b60405180910390fd5b6000816001600160a01b0316635cfbeb776040518163ffffffff1660e01b8152600401600060405180830381865afa158015620003ce573d6000803e3d6000fd5b505050506040513d6000823e601f3d908101601f19168201604052620003f8919081019062000bdc565b50509650505050505050428110156200043d576040517fb23f869300000000000000000000000000000000000000000000000000000000815260040160405180910390fd5b6000823386866040516200045190620005ce565b62000460949392919062000cbc565b604051809103906000f0801580156200047d573d6000803e3d6000fd5b5033600081815260026020908152604080832080546001600160a01b03808b167fffffffffffffffffffffffff0000000000000000000000000000000000000000928316811790935560038552838620838752909452828520805494881694821685179055600480546001810182559086527f8a35acfbc15ff81a39ae7d344fd709f28e8600b4aa8c65c6b64bfe7fe36bd19b018054909116841790559051949550929390917f6ddc5f55c2921d595c1b4dcf831319f79693a56adcdb52599ca0bfac92e616a191a4505050620005546001600055565b505050565b600260005403620005c7576040517f08c379a000000000000000000000000000000000000000000000000000000000815260206004820152601f60248201527f5265656e7472616e637947756172643a207265656e7472616e742063616c6c00604482015260640162000384565b6002600055565b61062a8062000d4d83390190565b6001600160a01b0381168114620005f257600080fd5b50565b6000602082840312156200060857600080fd5b81356200061581620005dc565b9392505050565b6000602082840312156200062f57600080fd5b5035919050565b6020808252825182820181905260009190848201906040850190845b81811015620006795783516001600160a01b03168352928401929184019160010162000652565b50909695505050505050565b600080604083850312156200069957600080fd5b8235620006a681620005dc565b91506020830135620006b881620005dc565b809150509250929050565b7f4e487b7100000000000000000000000000000000000000000000000000000000600052604160045260246000fd5b6040516060810167ffffffffffffffff81118282101715620007185762000718620006c3565b60405290565b60405160a0810167ffffffffffffffff81118282101715620007185762000718620006c3565b604051601f8201601f1916810167ffffffffffffffff81118282101715620007705762000770620006c3565b604052919050565b600067ffffffffffffffff821115620007955762000795620006c3565b50601f01601f191660200190565b8015158114620005f257600080fd5b8035620007bf81620007a3565b919050565b600060608284031215620007d757600080fd5b620007e1620006f2565b9050813581526020820135602082015260408201358060000b81146200080657600080fd5b604082015292915050565b600080600060a084860312156200082757600080fd5b83356200083481620005dc565b925060208481013567ffffffffffffffff808211156200085357600080fd5b90860190606082890312156200086857600080fd5b62000872620006f2565b8235828111156200088257600080fd5b83019150601f820189136200089657600080fd5b8135620008ad620008a78262000778565b62000744565b8181528a86838601011115620008c257600080fd5b8186850187830137600086838301015280835250508383013584820152620008ed60408401620007b2565b604082015280955050505050620009088560408601620007c4565b90509250925092565b6000602082840312156200092457600080fd5b81516200061581620005dc565b60005b838110156200094e57818101518382015260200162000934565b50506000910152565b600082601f8301126200096957600080fd5b81516200097a620008a78262000778565b8181528460208386010111156200099057600080fd5b620009a382602083016020870162000931565b949350505050565b600060a08284031215620009be57600080fd5b620009c86200071e565b9050815167ffffffffffffffff80821115620009e357600080fd5b620009f18583860162000957565b8352602084015191508082111562000a0857600080fd5b62000a168583860162000957565b6020840152604084015191508082111562000a3057600080fd5b62000a3e8583860162000957565b6040840152606084015191508082111562000a5857600080fd5b62000a668583860162000957565b6060840152608084015191508082111562000a8057600080fd5b5062000a8f8482850162000957565b60808301525092915050565b60006080828403121562000aae57600080fd5b6040516080810167ffffffffffffffff828210818311171562000ad55762000ad5620006c3565b816040528293508451915062000aeb82620005dc565b9082526020840151908082111562000b0257600080fd5b62000b108683870162000957565b6020840152604085015191508082111562000b2a57600080fd5b5062000b398582860162000957565b60408301525060608301516003811062000b5257600080fd5b6060919091015292915050565b8051600a8110620007bf57600080fd5b60006040828403121562000b8257600080fd5b6040516040810181811067ffffffffffffffff8211171562000ba85762000ba8620006c3565b8060405250809150825162000bbd81620007a3565b8152602083015162000bcf81620007a3565b6020919091015292915050565b60008060008060008060008060006101408a8c03121562000bfc57600080fd5b8951985060208a015167ffffffffffffffff8082111562000c1c57600080fd5b62000c2a8d838e01620009ab565b995060408c0151985060608c0151975060808c015191508082111562000c4f57600080fd5b62000c5d8d838e0162000a9b565b965060a08c015191508082111562000c7457600080fd5b5062000c838c828d0162000957565b94505060c08a0151925062000c9b60e08b0162000b5f565b915062000cad8b6101008c0162000b6f565b90509295985092959850929598565b60006001600160a01b03808716835280861660208401525060c060408301528351606060c084015280518061012085015261014062000d02828287016020860162000931565b60208781015160e08701526040978801511515610100870152865160608701528601516080860152949095015160000b60a08401525050601f909201601f1916909101019291505056fe608060405262093a8060075562278d0060085534801561001e57600080fd5b5060405161062a38038061062a83398101604081905261003d916101c3565b6001600081905580546001600160a81b0319166101006001600160a01b038781169190910291909117909155600280546001600160a01b0319169185169190911790558151829060099081906100939082610370565b5060208281015160018301556040928301516002909201805492151560ff199384161790558351600c55830151600d55910151600e805460ff92909216919092161790555061042f915050565b80516001600160a01b03811681146100f757600080fd5b919050565b634e487b7160e01b600052604160045260246000fd5b604051606081016001600160401b0381118282101715610134576101346100fc565b60405290565b604051601f8201601f191681016001600160401b0381118282101715610162576101626100fc565b604052919050565b805180151581146100f757600080fd5b60006060828403121561018c57600080fd5b610194610112565b9050815181526020820151602082015260408201518060000b81146101b857600080fd5b604082015292915050565b60008060008060c085870312156101d957600080fd5b6101e2856100e0565b935060206101f18187016100e0565b60408701519094506001600160401b038082111561020e57600080fd5b908701906060828a03121561022257600080fd5b61022a610112565b82518281111561023957600080fd5b8301601f81018b1361024a57600080fd5b80518381111561025c5761025c6100fc565b61026e601f8201601f1916870161013a565b93508084528b8682840101111561028457600080fd5b60005b818110156102a2578281018701518582018801528601610287565b5060009084018601525081815282840151818501526102c36040840161016a565b6040820152809550505050506102dc866060870161017a565b905092959194509250565b600181811c908216806102fb57607f821691505b60208210810361031b57634e487b7160e01b600052602260045260246000fd5b50919050565b601f82111561036b57600081815260208120601f850160051c810160208610156103485750805b601f850160051c820191505b8181101561036757828155600101610354565b5050505b505050565b81516001600160401b03811115610389576103896100fc565b61039d8161039784546102e7565b84610321565b602080601f8311600181146103d257600084156103ba5750858301515b600019600386901b1c1916600185901b178555610367565b600085815260208120601f198616915b82811015610401578886015182559484019460019091019084016103e2565b508582101561041f5787850151600019600388901b60f8161c191681555b5050505050600190811b01905550565b6101ec8061043e6000396000f3fe608060405234801561001057600080fd5b50600436106100a35760003560e01c8063409bb92e116100765780636c8b7efa1161005b5780636c8b7efa146101025780637150d8ae1461010b5780638fca96731461015057600080fd5b8063409bb92e146100f05780635ce85a45146100f957600080fd5b806303c96a5a146100a85780630b97bc86146100c45780631cc1cf46146100cd578063200d2ed2146100d6575b600080fd5b6100b160055481565b6040519081526020015b60405180910390f35b6100b160065481565b6100b160085481565b6001546100e39060ff1681565b6040516100bb9190610175565b6100b160075481565b6100b160035481565b6100b160045481565b60025461012b9073ffffffffffffffffffffffffffffffffffffffff1681565b60405173ffffffffffffffffffffffffffffffffffffffff90911681526020016100bb565b60015461012b90610100900473ffffffffffffffffffffffffffffffffffffffff1681565b60208101600783106101b0577f4e487b7100000000000000000000000000000000000000000000000000000000600052602160045260246000fd5b9190529056fea26469706673582212206ce320c9177381f9a5cb656ab35c160f9015ac3accbd9354b432ed14e927578464736f6c63430008110033a264697066735822122017c3d27a38f4c09459505fe372348aa200ae7531995aafd6f8fd88e91906852a64736f6c63430008110033",
  "linkReferences": {},
  "deployedLinkReferences": {}
}