{
  "_format": "hh-sol-artifact-1",
  "contractName": "Mortgage",
  "sourceName": "contracts/mortgage/Mortgage.sol",
  "abi": [
    {
      "inputs": [
        {
          "internalType": "address",
          "name": "_propertyContract",
          "type": "address"
        },
        {
          "internalType": "address",
          "name": "_buyer",
          "type": "address"
        },
        {
          "components": [
            {
              "internalType": "string",
              "name": "name",
              "type": "string"
            },
            {
              "internalType": "int256",
              "name": "incomeMonthly",
              "type": "int256"
            },
            {
              "internalType": "int256",
              "name": "incomeYearly",
              "type": "int256"
            },
            {
              "internalType": "bool",
              "name": "KYCVerified",
              "type": "bool"
            }
          ],
          "internalType": "struct MortgageRequester",
          "name": "requester",
          "type": "tuple"
        },
        {
          "components": [
            {
              "internalType": "int256",
              "name": "amountUSD",
              "type": "int256"
            },
            {
              "internalType": "uint256",
              "name": "amountETH",
              "type": "uint256"
            },
            {
              "internalType": "uint256",
              "name": "totalPayments",
              "type": "uint256"
            },
            {
              "internalType": "uint256",
              "name": "endDate",
              "type": "uint256"
            },
            {
              "internalType": "int16",
              "name": "interestRate",
              "type": "int16"
            }
          ],
          "internalType": "struct MortgagePayment",
          "name": "mortgagePayment",
          "type": "tuple"
        }
      ],
      "stateMutability": "nonpayable",
      "type": "constructor"
    },
    {
      "inputs": [],
      "name": "MortgageDurationInPast",
      "type": "error"
    },
    {
      "inputs": [],
      "name": "buyer",
      "outputs": [
        {
          "internalType": "address",
          "name": "",
          "type": "address"
        }
      ],
      "stateMutability": "view",
      "type": "function"
    },
    {
      "inputs": [],
      "name": "endDate",
      "outputs": [
        {
          "internalType": "uint256",
          "name": "",
          "type": "uint256"
        }
      ],
      "stateMutability": "view",
      "type": "function"
    },
    {
      "inputs": [],
      "name": "mortgageAmount",
      "outputs": [
        {
          "internalType": "int256",
          "name": "",
          "type": "int256"
        }
      ],
      "stateMutability": "view",
      "type": "function"
    },
    {
      "inputs": [],
      "name": "mortgageAmountEth",
      "outputs": [
        {
          "internalType": "uint256",
          "name": "",
          "type": "uint256"
        }
      ],
      "stateMutability": "view",
      "type": "function"
    },
    {
      "inputs": [],
      "name": "payWindow",
      "outputs": [
        {
          "internalType": "uint256",
          "name": "",
          "type": "uint256"
        }
      ],
      "stateMutability": "view",
      "type": "function"
    },
    {
      "inputs": [],
      "name": "paymentInterval",
      "outputs": [
        {
          "internalType": "uint256",
          "name": "",
          "type": "uint256"
        }
      ],
      "stateMutability": "view",
      "type": "function"
    },
    {
      "inputs": [],
      "name": "property",
      "outputs": [
        {
          "internalType": "contract Property",
          "name": "",
          "type": "address"
        }
      ],
      "stateMutability": "view",
      "type": "function"
    },
    {
      "inputs": [],
      "name": "propertyContract",
      "outputs": [
        {
          "internalType": "address",
          "name": "",
          "type": "address"
        }
      ],
      "stateMutability": "view",
      "type": "function"
    },
    {
      "inputs": [],
      "name": "startDate",
      "outputs": [
        {
          "internalType": "uint256",
          "name": "",
          "type": "uint256"
        }
      ],
      "stateMutability": "view",
      "type": "function"
    },
    {
      "inputs": [],
      "name": "status",
      "outputs": [
        {
          "internalType": "enum MortgageStatus",
          "name": "",
          "type": "uint8"
        }
      ],
      "stateMutability": "view",
      "type": "function"
    },
    {
      "inputs": [],
      "name": "totalPayments",
      "outputs": [
        {
          "internalType": "uint256",
          "name": "",
          "type": "uint256"
        }
      ],
      "stateMutability": "view",
      "type": "function"
    }
  ],
  "bytecode": "0x60806040526212750060095562278d00600a5534801561001e57600080fd5b5060405161073838038061073883398101604081905261003d91610264565b6001600055606081015142111561006757604051639a0d215560e01b815260040160405180910390fd5b60608101516008556001805460ff60a01b19169055600280546001600160a01b0319166001600160a01b038616179055815184908390600b9081906100ac908261041d565b50602082810151600183015560408084015160028401556060938401516003938401805460ff19169115159190911790558551600f819055918601516010819055908601516011819055938601516012556080909501516013805461ffff191661ffff90921691909117905560165560179390935582546001600160a01b0319166001600160a01b0395909516949094179091555050600655506104dc565b80516001600160a01b038116811461016257600080fd5b919050565b634e487b7160e01b600052604160045260246000fd5b604051608081016001600160401b038111828210171561019f5761019f610167565b60405290565b604051601f8201601f191681016001600160401b03811182821017156101cd576101cd610167565b604052919050565b8051801515811461016257600080fd5b600060a082840312156101f757600080fd5b60405160a081016001600160401b038111828210171561021957610219610167565b80604052508091508251815260208301516020820152604083015160408201526060830151606082015260808301518060010b811461025757600080fd5b6080919091015292915050565b600080600080610100858703121561027b57600080fd5b6102848561014b565b9350602061029381870161014b565b60408701519094506001600160401b03808211156102b057600080fd5b908701906080828a0312156102c457600080fd5b6102cc61017d565b8251828111156102db57600080fd5b8301601f81018b136102ec57600080fd5b8051838111156102fe576102fe610167565b610310601f8201601f191687016101a5565b93508084528b8682840101111561032657600080fd5b60005b81811015610344578281018701518582018801528601610329565b5060008682860101525050818152838301518482015260408301516040820152610370606084016101d5565b60608201528095505050505061038986606087016101e5565b905092959194509250565b600181811c908216806103a857607f821691505b6020821081036103c857634e487b7160e01b600052602260045260246000fd5b50919050565b601f82111561041857600081815260208120601f850160051c810160208610156103f55750805b601f850160051c820191505b8181101561041457828155600101610401565b5050505b505050565b81516001600160401b0381111561043657610436610167565b61044a816104448454610394565b846103ce565b602080601f83116001811461047f57600084156104675750858301515b600019600386901b1c1916600185901b178555610414565b600085815260208120601f198616915b828110156104ae5788860151825594840194600190910190840161048f565b50858210156104cc5787850151600019600388901b60f8161c191681555b5050505050600190811b01905550565b61024d806104eb6000396000f3fe608060405234801561001057600080fd5b50600436106100c85760003560e01c8063409bb92e116100815780637150d8ae1161005b5780637150d8ae1461018d5780638fca9673146101ad578063c24a0f8b146101cd57600080fd5b8063409bb92e146101725780635ce85a451461017b5780636c8b7efa1461018457600080fd5b8063176fd3f0116100b2578063176fd3f0146100f25780631cc1cf4614610137578063200d2ed21461014057600080fd5b80625b4487146100cd5780630b97bc86146100e9575b600080fd5b6100d660065481565b6040519081526020015b60405180910390f35b6100d660075481565b6001546101129073ffffffffffffffffffffffffffffffffffffffff1681565b60405173ffffffffffffffffffffffffffffffffffffffff90911681526020016100e0565b6100d6600a5481565b6001546101659074010000000000000000000000000000000000000000900460ff1681565b6040516100e091906101d6565b6100d660095481565b6100d660045481565b6100d660055481565b6003546101129073ffffffffffffffffffffffffffffffffffffffff1681565b6002546101129073ffffffffffffffffffffffffffffffffffffffff1681565b6100d660085481565b6020810160088310610211577f4e487b7100000000000000000000000000000000000000000000000000000000600052602160045260246000fd5b9190529056fea2646970667358221220ab2c45bc0fc12035b2b7fb5b8f6d64caf9b8dc3097b9b46859604f76714ec36464736f6c63430008110033",
  "linkReferences": {},
  "deployedLinkReferences": {}
}