{
  "_format": "hh-sol-artifact-1",
  "contractName": "MortgageFactory",
  "sourceName": "contracts/mortgage/MortgageFactory.sol",
  "abi": [
    {
      "inputs": [
        {
          "internalType": "address",
          "name": "_factoryController",
          "type": "address"
        }
      ],
      "stateMutability": "nonpayable",
      "type": "constructor"
    },
    {
      "inputs": [],
      "name": "CannotRequestPropertyWhenPropertyOwner",
      "type": "error"
    },
    {
      "inputs": [],
      "name": "InvalidAddress",
      "type": "error"
    },
    {
      "inputs": [
        {
          "internalType": "address",
          "name": "propertyContract",
          "type": "address"
        }
      ],
      "name": "MortgageAlreadyRequested",
      "type": "error"
    },
    {
      "inputs": [],
      "name": "MortgageDurationInPast",
      "type": "error"
    },
    {
      "inputs": [],
      "name": "MortgagePaymentAmountZero",
      "type": "error"
    },
    {
      "inputs": [],
      "name": "PropertyDoesNotExists",
      "type": "error"
    },
    {
      "anonymous": false,
      "inputs": [
        {
          "indexed": true,
          "internalType": "address",
          "name": "mortgageContract",
          "type": "address"
        },
        {
          "indexed": true,
          "internalType": "address",
          "name": "propertyContract",
          "type": "address"
        },
        {
          "indexed": true,
          "internalType": "address",
          "name": "owner",
          "type": "address"
        }
      ],
      "name": "MortgageRequested",
      "type": "event"
    },
    {
      "inputs": [],
      "name": "factoryController",
      "outputs": [
        {
          "internalType": "address",
          "name": "",
          "type": "address"
        }
      ],
      "stateMutability": "view",
      "type": "function"
    },
    {
      "inputs": [],
      "name": "getMortgageContracts",
      "outputs": [
        {
          "internalType": "address[]",
          "name": "",
          "type": "address[]"
        }
      ],
      "stateMutability": "view",
      "type": "function"
    },
    {
      "inputs": [],
      "name": "interestRate",
      "outputs": [
        {
          "internalType": "uint256",
          "name": "",
          "type": "uint256"
        }
      ],
      "stateMutability": "view",
      "type": "function"
    },
    {
      "inputs": [
        {
          "internalType": "uint256",
          "name": "",
          "type": "uint256"
        }
      ],
      "name": "mortgageContracts",
      "outputs": [
        {
          "internalType": "address",
          "name": "",
          "type": "address"
        }
      ],
      "stateMutability": "view",
      "type": "function"
    },
    {
      "inputs": [
        {
          "internalType": "address",
          "name": "",
          "type": "address"
        },
        {
          "internalType": "address",
          "name": "",
          "type": "address"
        }
      ],
      "name": "ownerPropertyMortgage",
      "outputs": [
        {
          "internalType": "address",
          "name": "",
          "type": "address"
        }
      ],
      "stateMutability": "view",
      "type": "function"
    },
    {
      "inputs": [
        {
          "internalType": "address",
          "name": "",
          "type": "address"
        }
      ],
      "name": "propertyMortgageRequests",
      "outputs": [
        {
          "internalType": "address",
          "name": "",
          "type": "address"
        }
      ],
      "stateMutability": "view",
      "type": "function"
    },
    {
      "inputs": [
        {
          "internalType": "address",
          "name": "propertyContract",
          "type": "address"
        },
        {
          "components": [
            {
              "internalType": "string",
              "name": "name",
              "type": "string"
            },
            {
              "internalType": "int256",
              "name": "incomeMonthly",
              "type": "int256"
            },
            {
              "internalType": "int256",
              "name": "incomeYearly",
              "type": "int256"
            },
            {
              "internalType": "bool",
              "name": "KYCVerified",
              "type": "bool"
            }
          ],
          "internalType": "struct MortgageRequester",
          "name": "_requester",
          "type": "tuple"
        },
        {
          "components": [
            {
              "internalType": "uint256",
              "name": "amountETH",
              "type": "uint256"
            },
            {
              "internalType": "int256",
              "name": "amountUSD",
              "type": "int256"
            },
            {
              "internalType": "uint256",
              "name": "totalPayments",
              "type": "uint256"
            },
            {
              "internalType": "uint256",
              "name": "endDate",
              "type": "uint256"
            },
            {
              "internalType": "int16",
              "name": "interestRate",
              "type": "int16"
            }
          ],
          "internalType": "struct MortgagePayment",
          "name": "_mortgagePayment",
          "type": "tuple"
        }
      ],
      "name": "requestMortgage",
      "outputs": [],
      "stateMutability": "nonpayable",
      "type": "function"
    }
  ],
  "bytecode": "0x60806040526109c460025534801561001657600080fd5b506040516115673803806115678339810160408190526100359161005f565b6001600081905580546001600160a01b0319166001600160a01b039290921691909117905561008f565b60006020828403121561007157600080fd5b81516001600160a01b038116811461008857600080fd5b9392505050565b6114c98061009e6000396000f3fe60806040523480156200001157600080fd5b5060043610620000875760003560e01c80635650b90011620000625780635650b90014620001025780635d7d65af14620001195780636f8e55ac14620001325780637c3a00fd146200016957600080fd5b806304b76ebc146200008c5780631f28780914620000a5578063507b092014620000d6575b600080fd5b620000a36200009d36600462000672565b62000182565b005b600154620000b9906001600160a01b031681565b6040516001600160a01b0390911681526020015b60405180910390f35b620000b9620000e7366004620006e9565b6003602052600090815260409020546001600160a01b031681565b620000b96200011336600462000710565b62000547565b6200012362000572565b604051620000cd91906200072a565b620000b96200014336600462000779565b60046020908152600092835260408084209091529082529020546001600160a01b031681565b6200017360025481565b604051908152602001620000cd565b6200018c620005d6565b6001600160a01b038316620001cd576040517fe6c4247b00000000000000000000000000000000000000000000000000000000815260040160405180910390fd5b42816060013510156200020c576040517f9a0d215500000000000000000000000000000000000000000000000000000000815260040160405180910390fd5b803515806200021d57506020810135155b1562000255576040517fb0d2f13200000000000000000000000000000000000000000000000000000000815260040160405180910390fd5b6000839050336001600160a01b0316816001600160a01b031663f446c38f6040518163ffffffff1660e01b8152600401602060405180830381865afa158015620002a3573d6000803e3d6000fd5b505050506040513d601f19601f82011682018060405250810190620002c99190620007b7565b6001600160a01b0316036200030a576040517f9fce1f5700000000000000000000000000000000000000000000000000000000815260040160405180910390fd5b336000908152600360205260409020546001600160a01b038083169116036200036f576040517f8a928ead0000000000000000000000000000000000000000000000000000000081526001600160a01b03851660048201526024015b60405180910390fd5b6000816001600160a01b0316635cfbeb776040518163ffffffff1660e01b8152600401600060405180830381865afa158015620003b0573d6000803e3d6000fd5b505050506040513d6000823e601f3d908101601f19168201604052620003da919081019062000b39565b505096505050505050508060001480620003f357504281115b156200042b576040517fb23f869300000000000000000000000000000000000000000000000000000000815260040160405180910390fd5b6000823386866040516200043f906200064b565b6200044e949392919062000c93565b604051809103906000f0801580156200046b573d6000803e3d6000fd5b5033600081815260036020908152604080832080546001600160a01b03808b167fffffffffffffffffffffffff0000000000000000000000000000000000000000928316811790935560048552838620838752909452828520805494881694821685179055600580546001810182559086527f036b6384b5eca791c62761152d0c79bb0604c104a5fb6f4eb0703f3154bb3db0018054909116841790559051949550929390917f6ddc5f55c2921d595c1b4dcf831319f79693a56adcdb52599ca0bfac92e616a191a4505050620005426001600055565b505050565b600581815481106200055857600080fd5b6000918252602090912001546001600160a01b0316905081565b60606005805480602002602001604051908101604052809291908181526020018280548015620005cc57602002820191906000526020600020905b81546001600160a01b03168152600190910190602001808311620005ad575b5050505050905090565b60026000540362000644576040517f08c379a000000000000000000000000000000000000000000000000000000000815260206004820152601f60248201527f5265656e7472616e637947756172643a207265656e7472616e742063616c6c00604482015260640162000366565b6002600055565b61073b8062000d5983390190565b6001600160a01b03811681146200066f57600080fd5b50565b600080600083850360e08112156200068957600080fd5b8435620006968162000659565b9350602085013567ffffffffffffffff811115620006b357600080fd5b850160808188031215620006c657600080fd5b925060a0603f1982011215620006db57600080fd5b506040840190509250925092565b600060208284031215620006fc57600080fd5b8135620007098162000659565b9392505050565b6000602082840312156200072357600080fd5b5035919050565b6020808252825182820181905260009190848201906040850190845b818110156200076d5783516001600160a01b03168352928401929184019160010162000746565b50909695505050505050565b600080604083850312156200078d57600080fd5b82356200079a8162000659565b91506020830135620007ac8162000659565b809150509250929050565b600060208284031215620007ca57600080fd5b8151620007098162000659565b7f4e487b7100000000000000000000000000000000000000000000000000000000600052604160045260246000fd5b60405160a0810167ffffffffffffffff811182821017156200082c576200082c620007d7565b60405290565b604051601f8201601f1916810167ffffffffffffffff811182821017156200085e576200085e620007d7565b604052919050565b600082601f8301126200087857600080fd5b815167ffffffffffffffff811115620008955762000895620007d7565b6020620008ab601f8301601f1916820162000832565b8281528582848701011115620008c057600080fd5b60005b83811015620008e0578581018301518282018401528201620008c3565b506000928101909101919091529392505050565b600060a082840312156200090757600080fd5b6200091162000806565b9050815167ffffffffffffffff808211156200092c57600080fd5b6200093a8583860162000866565b835260208401519150808211156200095157600080fd5b6200095f8583860162000866565b602084015260408401519150808211156200097957600080fd5b620009878583860162000866565b60408401526060840151915080821115620009a157600080fd5b620009af8583860162000866565b60608401526080840151915080821115620009c957600080fd5b50620009d88482850162000866565b60808301525092915050565b600060808284031215620009f757600080fd5b6040516080810167ffffffffffffffff828210818311171562000a1e5762000a1e620007d7565b816040528293508451915062000a348262000659565b9082526020840151908082111562000a4b57600080fd5b62000a598683870162000866565b6020840152604085015191508082111562000a7357600080fd5b5062000a828582860162000866565b60408301525060608301516003811062000a9b57600080fd5b6060919091015292915050565b8051600a811062000ab857600080fd5b919050565b80151581146200066f57600080fd5b60006040828403121562000adf57600080fd5b6040516040810181811067ffffffffffffffff8211171562000b055762000b05620007d7565b8060405250809150825162000b1a8162000abd565b8152602083015162000b2c8162000abd565b6020919091015292915050565b60008060008060008060008060006101408a8c03121562000b5957600080fd5b8951985060208a015167ffffffffffffffff8082111562000b7957600080fd5b62000b878d838e01620008f4565b995060408c0151985060608c0151975060808c015191508082111562000bac57600080fd5b62000bba8d838e01620009e4565b965060a08c015191508082111562000bd157600080fd5b5062000be08c828d0162000866565b94505060c08a0151925062000bf860e08b0162000aa8565b915062000c0a8b6101008c0162000acc565b90509295985092959850929598565b81835281816020850137506000828201602090810191909152601f909101601f19169091010190565b803562000ab88162000abd565b8035825260208101356020830152604081013560408301526060810135606083015260808101358060010b80821462000c8757600080fd5b80608085015250505050565b60006101006001600160a01b0380881684528087166020850152508060408401528435601e1986360301811262000cc957600080fd5b850160208101903567ffffffffffffffff81111562000ce757600080fd5b80360382131562000cf757600080fd5b60808386015262000d0e6101808601828462000c19565b925050506020850135610120840152604085013561014084015262000d366060860162000c42565b1515610160840152905062000d4f606083018462000c4f565b9594505050505056fe60806040526212750060095562278d00600a5534801561001e57600080fd5b5060405161073b38038061073b83398101604081905261003d91610267565b6001600055606081015142111561006757604051639a0d215560e01b815260040160405180910390fd5b60608101516008556001805460ff60a01b19169055600280546001600160a01b0319166001600160a01b038616179055815184908390600b9081906100ac9082610420565b50602082810151600183015560408084015160028401556060938401516003938401805460ff19169115159190911790558551600f819055918601516010819055908601516011819055938601516012556080909501516013805461ffff191661ffff90921691909117905560169490945560179390935582546001600160a01b0319166001600160a01b0395909516949094179091555050600655506104df565b80516001600160a01b038116811461016557600080fd5b919050565b634e487b7160e01b600052604160045260246000fd5b604051608081016001600160401b03811182821017156101a2576101a261016a565b60405290565b604051601f8201601f191681016001600160401b03811182821017156101d0576101d061016a565b604052919050565b8051801515811461016557600080fd5b600060a082840312156101fa57600080fd5b60405160a081016001600160401b038111828210171561021c5761021c61016a565b80604052508091508251815260208301516020820152604083015160408201526060830151606082015260808301518060010b811461025a57600080fd5b6080919091015292915050565b600080600080610100858703121561027e57600080fd5b6102878561014e565b9350602061029681870161014e565b60408701519094506001600160401b03808211156102b357600080fd5b908701906080828a0312156102c757600080fd5b6102cf610180565b8251828111156102de57600080fd5b8301601f81018b136102ef57600080fd5b8051838111156103015761030161016a565b610313601f8201601f191687016101a8565b93508084528b8682840101111561032957600080fd5b60005b8181101561034757828101870151858201880152860161032c565b5060008682860101525050818152838301518482015260408301516040820152610373606084016101d8565b60608201528095505050505061038c86606087016101e8565b905092959194509250565b600181811c908216806103ab57607f821691505b6020821081036103cb57634e487b7160e01b600052602260045260246000fd5b50919050565b601f82111561041b57600081815260208120601f850160051c810160208610156103f85750805b601f850160051c820191505b8181101561041757828155600101610404565b5050505b505050565b81516001600160401b038111156104395761043961016a565b61044d816104478454610397565b846103d1565b602080601f831160018114610482576000841561046a5750858301515b600019600386901b1c1916600185901b178555610417565b600085815260208120601f198616915b828110156104b157888601518255948401946001909101908401610492565b50858210156104cf5787850151600019600388901b60f8161c191681555b5050505050600190811b01905550565b61024d806104ee6000396000f3fe608060405234801561001057600080fd5b50600436106100c85760003560e01c8063409bb92e116100815780637150d8ae1161005b5780637150d8ae1461018d5780638fca9673146101ad578063c24a0f8b146101cd57600080fd5b8063409bb92e146101725780635ce85a451461017b5780636c8b7efa1461018457600080fd5b8063176fd3f0116100b2578063176fd3f0146100f25780631cc1cf4614610137578063200d2ed21461014057600080fd5b80625b4487146100cd5780630b97bc86146100e9575b600080fd5b6100d660065481565b6040519081526020015b60405180910390f35b6100d660075481565b6001546101129073ffffffffffffffffffffffffffffffffffffffff1681565b60405173ffffffffffffffffffffffffffffffffffffffff90911681526020016100e0565b6100d6600a5481565b6001546101659074010000000000000000000000000000000000000000900460ff1681565b6040516100e091906101d6565b6100d660095481565b6100d660045481565b6100d660055481565b6003546101129073ffffffffffffffffffffffffffffffffffffffff1681565b6002546101129073ffffffffffffffffffffffffffffffffffffffff1681565b6100d660085481565b6020810160088310610211577f4e487b7100000000000000000000000000000000000000000000000000000000600052602160045260246000fd5b9190529056fea26469706673582212207b8f659ddf0f3f34a6324f421b9cb20f2e81c284d447969803017cae6775eefe64736f6c63430008110033a2646970667358221220452de7aaa423e857e67965f59267aebf202dbe71c7226a269c108d9b8f26490364736f6c63430008110033",
  "linkReferences": {},
  "deployedLinkReferences": {}
}