{
  "_format": "hh-sol-artifact-1",
  "contractName": "MortgageFactory",
  "sourceName": "contracts/mortgage/MortgageFactory.sol",
  "abi": [
    {
      "inputs": [
        {
          "internalType": "address",
          "name": "_factoryController",
          "type": "address"
        }
      ],
      "stateMutability": "nonpayable",
      "type": "constructor"
    },
    {
      "inputs": [],
      "name": "InvalidAddress",
      "type": "error"
    },
    {
      "inputs": [
        {
          "internalType": "address",
          "name": "propertyContract",
          "type": "address"
        }
      ],
      "name": "MortgageAlreadyRequested",
      "type": "error"
    },
    {
      "inputs": [],
      "name": "PropertyDoesNotExists",
      "type": "error"
    },
    {
      "anonymous": false,
      "inputs": [
        {
          "indexed": true,
          "internalType": "address",
          "name": "mortgageContract",
          "type": "address"
        },
        {
          "indexed": true,
          "internalType": "address",
          "name": "propertyContract",
          "type": "address"
        },
        {
          "indexed": true,
          "internalType": "address",
          "name": "owner",
          "type": "address"
        }
      ],
      "name": "MortgageRequested",
      "type": "event"
    },
    {
      "inputs": [],
      "name": "factoryController",
      "outputs": [
        {
          "internalType": "address",
          "name": "",
          "type": "address"
        }
      ],
      "stateMutability": "view",
      "type": "function"
    },
    {
      "inputs": [],
      "name": "getMortgageContracts",
      "outputs": [
        {
          "internalType": "address[]",
          "name": "",
          "type": "address[]"
        }
      ],
      "stateMutability": "view",
      "type": "function"
    },
    {
      "inputs": [
        {
          "internalType": "uint256",
          "name": "",
          "type": "uint256"
        }
      ],
      "name": "mortgageContracts",
      "outputs": [
        {
          "internalType": "address",
          "name": "",
          "type": "address"
        }
      ],
      "stateMutability": "view",
      "type": "function"
    },
    {
      "inputs": [
        {
          "internalType": "address",
          "name": "",
          "type": "address"
        },
        {
          "internalType": "address",
          "name": "",
          "type": "address"
        }
      ],
      "name": "ownerPropertyMortgage",
      "outputs": [
        {
          "internalType": "address",
          "name": "",
          "type": "address"
        }
      ],
      "stateMutability": "view",
      "type": "function"
    },
    {
      "inputs": [
        {
          "internalType": "address",
          "name": "",
          "type": "address"
        }
      ],
      "name": "propertyMortgageRequests",
      "outputs": [
        {
          "internalType": "address",
          "name": "",
          "type": "address"
        }
      ],
      "stateMutability": "view",
      "type": "function"
    },
    {
      "inputs": [
        {
          "internalType": "address",
          "name": "propertyContract",
          "type": "address"
        },
        {
          "components": [
            {
              "internalType": "string",
              "name": "name",
              "type": "string"
            },
            {
              "internalType": "uint256",
              "name": "income",
              "type": "uint256"
            }
          ],
          "internalType": "struct MortgageRequester",
          "name": "_requester",
          "type": "tuple"
        }
      ],
      "name": "requestMortgage",
      "outputs": [],
      "stateMutability": "nonpayable",
      "type": "function"
    }
  ],
  "bytecode": "0x608060405234801561001057600080fd5b5060405161102338038061102383398101604081905261002f91610059565b6001600081905580546001600160a01b0319166001600160a01b0392909216919091179055610089565b60006020828403121561006b57600080fd5b81516001600160a01b038116811461008257600080fd5b9392505050565b610f8b806100986000396000f3fe60806040523480156200001157600080fd5b50600436106200007b5760003560e01c80635650b90011620000565780635650b90014620000f65780635d7d65af146200010d5780636f8e55ac146200012657600080fd5b806302e622ee14620000805780631f2878091462000099578063507b092014620000ca575b600080fd5b6200009762000091366004620005e1565b6200015d565b005b600154620000ad906001600160a01b031681565b6040516001600160a01b0390911681526020015b60405180910390f35b620000ad620000db366004620006bb565b6002602052600090815260409020546001600160a01b031681565b620000ad62000107366004620006e2565b620003d6565b6200011762000401565b604051620000c19190620006fc565b620000ad620001373660046200074b565b60036020908152600092835260408084209091529082529020546001600160a01b031681565b6200016762000465565b6001600160a01b038216620001a8576040517fe6c4247b00000000000000000000000000000000000000000000000000000000815260040160405180910390fd5b3360009081526002602052604090205482906001600160a01b038083169116036200020f576040517f8a928ead0000000000000000000000000000000000000000000000000000000081526001600160a01b03841660048201526024015b60405180910390fd5b6000816001600160a01b0316635cfbeb776040518163ffffffff1660e01b8152600401600060405180830381865afa15801562000250573d6000803e3d6000fd5b505050506040513d6000823e601f3d908101601f191682016040526200027a91908101906200089c565b505094505050505042811015620002bd576040517fb23f869300000000000000000000000000000000000000000000000000000000815260040160405180910390fd5b6000823385604051620002d090620004da565b620002de9392919062000a06565b604051809103906000f080158015620002fb573d6000803e3d6000fd5b5033600081815260026020908152604080832080546001600160a01b03808b167fffffffffffffffffffffffff0000000000000000000000000000000000000000928316811790935560038552838620838752909452828520805494881694821685179055600480546001810182559086527f8a35acfbc15ff81a39ae7d344fd709f28e8600b4aa8c65c6b64bfe7fe36bd19b018054909116841790559051949550929390917f6ddc5f55c2921d595c1b4dcf831319f79693a56adcdb52599ca0bfac92e616a191a4505050620003d26001600055565b5050565b60048181548110620003e757600080fd5b6000918252602090912001546001600160a01b0316905081565b606060048054806020026020016040519081016040528092919081815260200182805480156200045b57602002820191906000526020600020905b81546001600160a01b031681526001909101906020018083116200043c575b5050505050905090565b600260005403620004d3576040517f08c379a000000000000000000000000000000000000000000000000000000000815260206004820152601f60248201527f5265656e7472616e637947756172643a207265656e7472616e742063616c6c00604482015260640162000206565b6002600055565b6104ea8062000a6c83390190565b6001600160a01b0381168114620004fe57600080fd5b50565b7f4e487b7100000000000000000000000000000000000000000000000000000000600052604160045260246000fd5b6040805190810167ffffffffffffffff8111828210171562000556576200055662000501565b60405290565b60405160a0810167ffffffffffffffff8111828210171562000556576200055662000501565b604051601f8201601f1916810167ffffffffffffffff81118282101715620005ae57620005ae62000501565b604052919050565b600067ffffffffffffffff821115620005d357620005d362000501565b50601f01601f191660200190565b60008060408385031215620005f557600080fd5b82356200060281620004e8565b915060208381013567ffffffffffffffff808211156200062157600080fd5b90850190604082880312156200063657600080fd5b6200064062000530565b8235828111156200065057600080fd5b83019150601f820188136200066457600080fd5b81356200067b6200067582620005b6565b62000582565b81815289868386010111156200069057600080fd5b8186850187830137600086838301015280835250508383013584820152809450505050509250929050565b600060208284031215620006ce57600080fd5b8135620006db81620004e8565b9392505050565b600060208284031215620006f557600080fd5b5035919050565b6020808252825182820181905260009190848201906040850190845b818110156200073f5783516001600160a01b03168352928401929184019160010162000718565b50909695505050505050565b600080604083850312156200075f57600080fd5b82356200076c81620004e8565b915060208301356200077e81620004e8565b809150509250929050565b60005b83811015620007a65781810151838201526020016200078c565b50506000910152565b600082601f830112620007c157600080fd5b8151620007d26200067582620005b6565b818152846020838601011115620007e857600080fd5b620007fb82602083016020870162000789565b949350505050565b80516200081081620004e8565b919050565b8051600681106200081057600080fd5b805180151581146200081057600080fd5b6000604082840312156200084957600080fd5b6040516040810181811067ffffffffffffffff821117156200086f576200086f62000501565b604052905080620008808362000825565b8152620008906020840162000825565b60208201525092915050565b6000806000806000806000610100888a031215620008b957600080fd5b87519650602088015167ffffffffffffffff80821115620008d957600080fd5b9089019060a0828c031215620008ee57600080fd5b620008f86200055c565b8251828111156200090857600080fd5b620009168d828601620007af565b8252506020830151828111156200092c57600080fd5b6200093a8d828601620007af565b6020830152506040830151828111156200095357600080fd5b620009618d828601620007af565b6040830152506060830151828111156200097a57600080fd5b620009888d828601620007af565b606083015250608083015182811115620009a157600080fd5b620009af8d828601620007af565b60808301525080985050505060408801519450620009d06060890162000803565b935060808801519250620009e760a0890162000815565b9150620009f88960c08a0162000836565b905092959891949750929550565b60006001600160a01b0380861683528085166020840152506060604083015282516040606084015280518060a085015262000a498160c086016020850162000789565b6020949094015160808401525050601f91909101601f19160160c0019291505056fe608060405234801561001057600080fd5b506040516104ea3803806104ea83398101604081905261002f91610125565b6001600081905580546001600160a81b0319166101006001600160a01b038681169190910291909117909155600280546001600160a01b03191691841691909117905580518190600490819061008590826102b0565b506020820151816001015590505050505061036f565b80516001600160a01b03811681146100b257600080fd5b919050565b634e487b7160e01b600052604160045260246000fd5b604080519081016001600160401b03811182821017156100ef576100ef6100b7565b60405290565b604051601f8201601f191681016001600160401b038111828210171561011d5761011d6100b7565b604052919050565b60008060006060848603121561013a57600080fd5b6101438461009b565b9250602061015281860161009b565b60408601519093506001600160401b038082111561016f57600080fd5b908601906040828903121561018357600080fd5b61018b6100cd565b82518281111561019a57600080fd5b8301601f81018a136101ab57600080fd5b8051838111156101bd576101bd6100b7565b6101cf601f8201601f191687016100f5565b93508084528a868284010111156101e557600080fd5b60005b818110156102035782810187015185820188015286016101e8565b50600086828601015250508181528383015184820152809450505050509250925092565b600181811c9082168061023b57607f821691505b60208210810361025b57634e487b7160e01b600052602260045260246000fd5b50919050565b601f8211156102ab57600081815260208120601f850160051c810160208610156102885750805b601f850160051c820191505b818110156102a757828155600101610294565b5050505b505050565b81516001600160401b038111156102c9576102c96100b7565b6102dd816102d78454610227565b84610261565b602080601f83116001811461031257600084156102fa5750858301515b600019600386901b1c1916600185901b1785556102a7565b600085815260208120601f198616915b8281101561034157888601518255948401946001909101908401610322565b508582101561035f5787850151600019600388901b60f8161c191681555b5050505050600190811b01905550565b61016c8061037e6000396000f3fe608060405234801561001057600080fd5b506004361061004c5760003560e01c8063200d2ed2146100515780635ce85a45146100745780637150d8ae1461008b5780638fca9673146100d0575b600080fd5b60015461005e9060ff1681565b60405161006b91906100f5565b60405180910390f35b61007d60035481565b60405190815260200161006b565b6002546100ab9073ffffffffffffffffffffffffffffffffffffffff1681565b60405173ffffffffffffffffffffffffffffffffffffffff909116815260200161006b565b6001546100ab90610100900473ffffffffffffffffffffffffffffffffffffffff1681565b6020810160058310610130577f4e487b7100000000000000000000000000000000000000000000000000000000600052602160045260246000fd5b9190529056fea26469706673582212206d5aefd0154057eabd88439fd27669282f938421f9e0654dbb0adaa7c6e3afd964736f6c63430008110033a2646970667358221220c25195ed142f60fce4a8cd692f78abe16d3431741004f620d65cb07ffada8ccb64736f6c63430008110033",
  "linkReferences": {},
  "deployedLinkReferences": {}
}