{
  "_format": "hh-sol-artifact-1",
  "contractName": "PropertyFactory",
  "sourceName": "contracts/PropertyFactory.sol",
  "abi": [
    {
      "inputs": [
        {
          "internalType": "address",
          "name": "_factoryController",
          "type": "address"
        }
      ],
      "stateMutability": "nonpayable",
      "type": "constructor"
    },
    {
      "anonymous": false,
      "inputs": [
        {
          "indexed": true,
          "internalType": "address",
          "name": "propertyAddress",
          "type": "address"
        },
        {
          "indexed": true,
          "internalType": "address",
          "name": "owner",
          "type": "address"
        },
        {
          "indexed": true,
          "internalType": "uint256",
          "name": "propertyId",
          "type": "uint256"
        }
      ],
      "name": "PropertyCreated",
      "type": "event"
    },
    {
      "anonymous": false,
      "inputs": [
        {
          "indexed": true,
          "internalType": "address",
          "name": "propertyAddress",
          "type": "address"
        },
        {
          "indexed": true,
          "internalType": "address",
          "name": "buyer",
          "type": "address"
        },
        {
          "indexed": true,
          "internalType": "address",
          "name": "seller",
          "type": "address"
        },
        {
          "indexed": false,
          "internalType": "uint256",
          "name": "price",
          "type": "uint256"
        },
        {
          "indexed": false,
          "internalType": "uint256",
          "name": "propertyId",
          "type": "uint256"
        }
      ],
      "name": "PropertySold",
      "type": "event"
    },
    {
      "stateMutability": "payable",
      "type": "fallback"
    },
    {
      "inputs": [
        {
          "components": [
            {
              "components": [
                {
                  "internalType": "string",
                  "name": "street",
                  "type": "string"
                },
                {
                  "internalType": "string",
                  "name": "city",
                  "type": "string"
                },
                {
                  "internalType": "string",
                  "name": "state",
                  "type": "string"
                },
                {
                  "internalType": "string",
                  "name": "country",
                  "type": "string"
                },
                {
                  "internalType": "string",
                  "name": "zip",
                  "type": "string"
                }
              ],
              "internalType": "struct Address",
              "name": "addr",
              "type": "tuple"
            },
            {
              "internalType": "uint256",
              "name": "askingPrice",
              "type": "uint256"
            }
          ],
          "internalType": "struct CreateProperty",
          "name": "_property",
          "type": "tuple"
        }
      ],
      "name": "createProperty",
      "outputs": [
        {
          "internalType": "address",
          "name": "",
          "type": "address"
        }
      ],
      "stateMutability": "nonpayable",
      "type": "function"
    },
    {
      "inputs": [],
      "name": "factoryController",
      "outputs": [
        {
          "internalType": "address",
          "name": "",
          "type": "address"
        }
      ],
      "stateMutability": "view",
      "type": "function"
    },
    {
      "inputs": [],
      "name": "getPropertiesForCaller",
      "outputs": [
        {
          "internalType": "address[]",
          "name": "",
          "type": "address[]"
        }
      ],
      "stateMutability": "view",
      "type": "function"
    },
    {
      "inputs": [],
      "name": "getPropertyContracts",
      "outputs": [
        {
          "internalType": "address[]",
          "name": "",
          "type": "address[]"
        }
      ],
      "stateMutability": "view",
      "type": "function"
    },
    {
      "inputs": [
        {
          "internalType": "address",
          "name": "",
          "type": "address"
        },
        {
          "internalType": "uint256",
          "name": "",
          "type": "uint256"
        }
      ],
      "name": "properties",
      "outputs": [
        {
          "internalType": "address",
          "name": "",
          "type": "address"
        }
      ],
      "stateMutability": "view",
      "type": "function"
    },
    {
      "inputs": [
        {
          "internalType": "uint256",
          "name": "",
          "type": "uint256"
        }
      ],
      "name": "propertyContracts",
      "outputs": [
        {
          "internalType": "address",
          "name": "",
          "type": "address"
        }
      ],
      "stateMutability": "view",
      "type": "function"
    },
    {
      "inputs": [],
      "name": "propertyCount",
      "outputs": [
        {
          "internalType": "uint256",
          "name": "",
          "type": "uint256"
        }
      ],
      "stateMutability": "view",
      "type": "function"
    },
    {
      "inputs": [
        {
          "internalType": "uint256",
          "name": "",
          "type": "uint256"
        }
      ],
      "name": "propertyInfo",
      "outputs": [
        {
          "internalType": "uint256",
          "name": "id",
          "type": "uint256"
        },
        {
          "components": [
            {
              "internalType": "string",
              "name": "street",
              "type": "string"
            },
            {
              "internalType": "string",
              "name": "city",
              "type": "string"
            },
            {
              "internalType": "string",
              "name": "state",
              "type": "string"
            },
            {
              "internalType": "string",
              "name": "country",
              "type": "string"
            },
            {
              "internalType": "string",
              "name": "zip",
              "type": "string"
            }
          ],
          "internalType": "struct Address",
          "name": "addr",
          "type": "tuple"
        },
        {
          "internalType": "uint256",
          "name": "askingPrice",
          "type": "uint256"
        },
        {
          "internalType": "address payable",
          "name": "seller",
          "type": "address"
        },
        {
          "internalType": "uint256",
          "name": "created",
          "type": "uint256"
        },
        {
          "internalType": "enum Status",
          "name": "status",
          "type": "uint8"
        },
        {
          "components": [
            {
              "internalType": "bool",
              "name": "sellerAccepted",
              "type": "bool"
            },
            {
              "internalType": "bool",
              "name": "buyerAccepted",
              "type": "bool"
            }
          ],
          "internalType": "struct OfferStatus",
          "name": "offerStatus",
          "type": "tuple"
        }
      ],
      "stateMutability": "view",
      "type": "function"
    },
    {
      "inputs": [
        {
          "internalType": "address",
          "name": "_propertyAddress",
          "type": "address"
        }
      ],
      "name": "propertyIsSold",
      "outputs": [],
      "stateMutability": "nonpayable",
      "type": "function"
    },
    {
      "inputs": [],
      "name": "withdraw",
      "outputs": [],
      "stateMutability": "nonpayable",
      "type": "function"
    },
    {
      "stateMutability": "payable",
      "type": "receive"
    }
  ],
  "bytecode": "0x608060405234801561001057600080fd5b5060405161392038038061392083398101604081905261002f91610059565b6001600081905580546001600160a01b0319166001600160a01b0392909216919091179055610089565b60006020828403121561006b57600080fd5b81516001600160a01b038116811461008257600080fd5b9392505050565b613888806100986000396000f3fe608060405260043610620000b75760003560e01c8063616c87e7116200006b578063c361a3351162000051578063c361a33514620001c6578063c4f680f514620001ed578063fa4d66a4146200021257005b8063616c87e714620001895780639de2dd1b14620001a157005b806331f5b94d116200009d57806331f5b94d14620001255780633ccfd60b146200014a5780635567845e146200016257005b806314bfcdd714620000c15780631f287809146200010357005b36620000bf57005b005b348015620000ce57600080fd5b50620000e6620000e036600462001002565b6200024c565b6040516001600160a01b0390911681526020015b60405180910390f35b3480156200011057600080fd5b50600154620000e6906001600160a01b031681565b3480156200013257600080fd5b50620000e66200014436600462001031565b62000285565b3480156200015757600080fd5b50620000bf620002b0565b3480156200016f57600080fd5b506200017a620003d6565b604051620000fa91906200104b565b3480156200019657600080fd5b506200017a62000443565b348015620001ae57600080fd5b50620000e6620001c0366004620011bd565b620004a5565b348015620001d357600080fd5b50620001de60055481565b604051908152602001620000fa565b348015620001fa57600080fd5b50620000bf6200020c3660046200130a565b62000750565b3480156200021f57600080fd5b50620002376200023136600462001031565b62000c0c565b604051620000fa97969594939291906200144d565b600260205281600052604060002081815481106200026957600080fd5b6000918252602090912001546001600160a01b03169150829050565b600481815481106200029657600080fd5b6000918252602090912001546001600160a01b0316905081565b6001546001600160a01b031633146200031f5760405162461bcd60e51b815260206004820152602660248201527f4f6e6c7920636f6e74726f6c6c65722063616e2063616c6c20746869732066756044820152653731ba34b7b760d11b60648201526084015b60405180910390fd5b6200032962000f83565b6040513390600090829047908381818185875af1925050503d80600081146200036f576040519150601f19603f3d011682016040523d82523d6000602084013e62000374565b606091505b5050905080620003c75760405162461bcd60e51b815260206004820152601060248201527f5472616e73666572206661696c65642e00000000000000000000000000000000604482015260640162000316565b5050620003d46001600055565b565b336000908152600260209081526040918290208054835181840281018401909452808452606093928301828280156200043957602002820191906000526020600020905b81546001600160a01b031681526001909101906020018083116200041a575b5050505050905090565b6060600480548060200260200160405190810160405280929190818152602001828054801562000439576020028201919060005260206000209081546001600160a01b031681526001909101906020018083116200041a575050505050905090565b6000620004b162000f83565b600560008154620004c290620014b7565b909155506040805160e081018252600554808252845160208084019182528087015184860152336060850152426080850152600060a085018190528551808701875281815280830182905260c086015292835260039052929020815181559151805191928392909190600183019081906200053e90826200156e565b50602082015160018201906200055590826200156e565b50604082015160028201906200056c90826200156e565b50606082015160038201906200058390826200156e565b50608082015160048201906200059a90826200156e565b50505060408201516006820155606082015160078201805473ffffffffffffffffffffffffffffffffffffffff19166001600160a01b039092169190911790556080820151600882015560a082015160098201805460ff191660018360058111156200060a576200060a62001414565b021790555060c091909101518051600a909201805460209092015161ffff1990921692151561ff00191692909217610100911515919091021790556040516000903090339084906200065c9062000fde565b6200066a939291906200163b565b604051809103906000f08015801562000687573d6000803e3d6000fd5b5033600081815260026020908152604080832080546001818101835591855292842090920180546001600160a01b03871673ffffffffffffffffffffffffffffffffffffffff19918216811790925560048054948501815585527f8a35acfbc15ff81a39ae7d344fd709f28e8600b4aa8c65c6b64bfe7fe36bd19b9093018054909316811790925560055490519495509390917f91d75d4b2ab17d1d6c199e6d71ca0ae67243b6b0f9dab06621d92da487899e1e91a49150506200074b6001600055565b919050565b6001546001600160a01b03163314620007bb5760405162461bcd60e51b815260206004820152602660248201527f4f6e6c7920636f6e74726f6c6c65722063616e2063616c6c20746869732066756044820152653731ba34b7b760d11b606482015260840162000316565b620007c562000f83565b6001600160a01b0381166200081d5760405162461bcd60e51b815260206004820152601760248201527f50726f706572747920646f6573206e6f74206578697374000000000000000000604482015260640162000316565b60008190506000806000806000806000876001600160a01b0316635cfbeb776040518163ffffffff1660e01b8152600401600060405180830381865afa1580156200086c573d6000803e3d6000fd5b505050506040513d6000823e601f3d908101601f19168201604052620008969190810190620017a5565b959c50939a5091985096509450925090506004826005811115620008be57620008be62001414565b146200090d5760405162461bcd60e51b815260206004820152601460248201527f50726f7065727479206973206e6f7420536f6c64000000000000000000000000604482015260640162000316565b80511515600114620009885760405162461bcd60e51b815260206004820152602160248201527f53656c6c657220686173206e6f7420616363657074656420746865206f66666560448201527f7200000000000000000000000000000000000000000000000000000000000000606482015260840162000316565b60208101511515600114620009e05760405162461bcd60e51b815260206004820181905260248201527f427579657220686173206e6f7420616363657074656420746865206f66666572604482015260640162000316565b6000886001600160a01b031663dfa0cfb36040518163ffffffff1660e01b81526004016020604051808303816000875af115801562000a23573d6000803e3d6000fd5b505050506040513d601f19601f8201168201806040525081019062000a4991906200190f565b90508062000ac05760405162461bcd60e51b815260206004820152602260248201527f50726f7065727479206f776e657273686970207472616e73666572206661696c60448201527f6564000000000000000000000000000000000000000000000000000000000000606482015260840162000316565b6000896001600160a01b03166391f901576040518163ffffffff1660e01b8152600401602060405180830381865afa15801562000b01573d6000803e3d6000fd5b505050506040513d601f19601f8201168201806040525081019062000b2791906200192d565b905060008a6001600160a01b031663d57bde796040518163ffffffff1660e01b8152600401602060405180830381865afa15801562000b6a573d6000803e3d6000fd5b505050506040513d601f19601f8201168201806040525081019062000b9091906200194d565b9050866001600160a01b0316826001600160a01b03168c6001600160a01b03167fe4325c1fdcbe82bc58d54e4c6d17476405e2bcbcd7b84a6431913f9e18d6d67e848e60405162000beb929190918252602082015260400190565b60405180910390a4505050505050505050505062000c096001600055565b50565b600360205260009081526040908190208054825160a081019093526001820180549193918290829062000c3f90620014df565b80601f016020809104026020016040519081016040528092919081815260200182805462000c6d90620014df565b801562000cbe5780601f1062000c925761010080835404028352916020019162000cbe565b820191906000526020600020905b81548152906001019060200180831162000ca057829003601f168201915b5050505050815260200160018201805462000cd990620014df565b80601f016020809104026020016040519081016040528092919081815260200182805462000d0790620014df565b801562000d585780601f1062000d2c5761010080835404028352916020019162000d58565b820191906000526020600020905b81548152906001019060200180831162000d3a57829003601f168201915b5050505050815260200160028201805462000d7390620014df565b80601f016020809104026020016040519081016040528092919081815260200182805462000da190620014df565b801562000df25780601f1062000dc65761010080835404028352916020019162000df2565b820191906000526020600020905b81548152906001019060200180831162000dd457829003601f168201915b5050505050815260200160038201805462000e0d90620014df565b80601f016020809104026020016040519081016040528092919081815260200182805462000e3b90620014df565b801562000e8c5780601f1062000e605761010080835404028352916020019162000e8c565b820191906000526020600020905b81548152906001019060200180831162000e6e57829003601f168201915b5050505050815260200160048201805462000ea790620014df565b80601f016020809104026020016040519081016040528092919081815260200182805462000ed590620014df565b801562000f265780601f1062000efa5761010080835404028352916020019162000f26565b820191906000526020600020905b81548152906001019060200180831162000f0857829003601f168201915b50505091909252505050600682015460078301546008840154600985015460408051808201909152600a9096015460ff81811615158852610100909104811615156020880152949593946001600160a01b03909316939192169087565b60026000540362000fd75760405162461bcd60e51b815260206004820152601f60248201527f5265656e7472616e637947756172643a207265656e7472616e742063616c6c00604482015260640162000316565b6002600055565b611eeb806200196883390190565b6001600160a01b038116811462000c0957600080fd5b600080604083850312156200101657600080fd5b8235620010238162000fec565b946020939093013593505050565b6000602082840312156200104457600080fd5b5035919050565b6020808252825182820181905260009190848201906040850190845b818110156200108e5783516001600160a01b03168352928401929184019160010162001067565b50909695505050505050565b634e487b7160e01b600052604160045260246000fd5b6040805190810167ffffffffffffffff81118282101715620010d657620010d66200109a565b60405290565b60405160a0810167ffffffffffffffff81118282101715620010d657620010d66200109a565b604051601f8201601f1916810167ffffffffffffffff811182821017156200112e576200112e6200109a565b604052919050565b600067ffffffffffffffff8211156200115357620011536200109a565b50601f01601f191660200190565b600082601f8301126200117357600080fd5b81356200118a620011848262001136565b62001102565b818152846020838601011115620011a057600080fd5b816020850160208301376000918101602001919091529392505050565b600060208284031215620011d057600080fd5b813567ffffffffffffffff80821115620011e957600080fd5b9083019060408286031215620011fe57600080fd5b62001208620010b0565b8235828111156200121857600080fd5b830160a081880312156200122b57600080fd5b62001235620010dc565b8135848111156200124557600080fd5b620012538982850162001161565b8252506020820135848111156200126957600080fd5b620012778982850162001161565b6020830152506040820135848111156200129057600080fd5b6200129e8982850162001161565b604083015250606082013584811115620012b757600080fd5b620012c58982850162001161565b606083015250608082013584811115620012de57600080fd5b620012ec8982850162001161565b60808301525082525060209283013592810192909252509392505050565b6000602082840312156200131d57600080fd5b81356200132a8162000fec565b9392505050565b60005b838110156200134e57818101518382015260200162001334565b50506000910152565b600081518084526200137181602086016020860162001331565b601f01601f19169290920160200192915050565b6000815160a084526200139c60a085018262001357565b905060208301518482036020860152620013b7828262001357565b91505060408301518482036040860152620013d3828262001357565b91505060608301518482036060860152620013ef828262001357565b915050608083015184820360808601526200140b828262001357565b95945050505050565b634e487b7160e01b600052602160045260246000fd5b600681106200144957634e487b7160e01b600052602160045260246000fd5b9052565b6000610100898352806020840152620014698184018a62001385565b9150508660408301526001600160a01b03861660608301528460808301526200149660a08301856200142a565b8251151560c08301526020830151151560e083015298975050505050505050565b600060018201620014d857634e487b7160e01b600052601160045260246000fd5b5060010190565b600181811c90821680620014f457607f821691505b6020821081036200151557634e487b7160e01b600052602260045260246000fd5b50919050565b601f8211156200156957600081815260208120601f850160051c81016020861015620015445750805b601f850160051c820191505b81811015620015655782815560010162001550565b5050505b505050565b815167ffffffffffffffff8111156200158b576200158b6200109a565b620015a3816200159c8454620014df565b846200151b565b602080601f831160018114620015db5760008415620015c25750858301515b600019600386901b1c1916600185901b17855562001565565b600085815260208120601f198616915b828110156200160c57888601518255948401946001909101908401620015eb565b50858210156200162b5787850151600019600388901b60f8161c191681555b5050505050600190811b01905550565b60006001600160a01b0380861683528085166020840152606060408401528351606084015260208401516101008060808601526200167e61016086018362001385565b9150604086015160a08601528260608701511660c0860152608086015160e086015260a08601519250620016b5818601846200142a565b5060c0850151805115156101208601526020810151151561014086015291509695505050505050565b600082601f830112620016f057600080fd5b815162001701620011848262001136565b8181528460208386010111156200171757600080fd5b6200172a82602083016020870162001331565b949350505050565b80516200074b8162000fec565b8051600681106200074b57600080fd5b805180151581146200074b57600080fd5b6000604082840312156200177357600080fd5b6200177d620010b0565b90506200178a826200174f565b81526200179a602083016200174f565b602082015292915050565b6000806000806000806000610100888a031215620017c257600080fd5b87519650602088015167ffffffffffffffff80821115620017e257600080fd5b9089019060a0828c031215620017f757600080fd5b62001801620010dc565b8251828111156200181157600080fd5b6200181f8d828601620016de565b8252506020830151828111156200183557600080fd5b620018438d828601620016de565b6020830152506040830151828111156200185c57600080fd5b6200186a8d828601620016de565b6040830152506060830151828111156200188357600080fd5b620018918d828601620016de565b606083015250608083015182811115620018aa57600080fd5b620018b88d828601620016de565b60808301525080985050505060408801519450620018d96060890162001732565b935060808801519250620018f060a089016200173f565b9150620019018960c08a0162001760565b905092959891949750929550565b6000602082840312156200192257600080fd5b6200132a826200174f565b6000602082840312156200194057600080fd5b81516200132a8162000fec565b6000602082840312156200196057600080fd5b505191905056fe60806040523480156200001157600080fd5b5060405162001eeb38038062001eeb833981016040819052620000349162000464565b6001600081905580546001600160a01b0319166001600160a01b0385161790558051600290815560208201518051839291906003908190620000779082620005ed565b50602082015160018201906200008e9082620005ed565b5060408201516002820190620000a59082620005ed565b5060608201516003820190620000bc9082620005ed565b5060808201516004820190620000d39082620005ed565b5050506040820151600682015560608201516007820180546001600160a01b0319166001600160a01b039092169190911790556080820151600882015560a082015160098201805460ff19166001836005811115620001365762000136620006b9565b021790555060c091909101518051600a909201805460209092015161ffff1990921692151561ff001916929092176101009115159190910217905550600d80546001600160a01b0319166001600160a01b03929092169190911790555042601055620006cf565b6001600160a01b0381168114620001b357600080fd5b50565b634e487b7160e01b600052604160045260246000fd5b60405160a081016001600160401b0381118282101715620001f157620001f1620001b6565b60405290565b60405160e081016001600160401b0381118282101715620001f157620001f1620001b6565b604051601f8201601f191681016001600160401b0381118282101715620002475762000247620001b6565b604052919050565b600082601f8301126200026157600080fd5b81516001600160401b038111156200027d576200027d620001b6565b602062000293601f8301601f191682016200021c565b8281528582848701011115620002a857600080fd5b60005b83811015620002c8578581018301518282018401528201620002ab565b506000928101909101919091529392505050565b600060a08284031215620002ef57600080fd5b620002f9620001cc565b82519091506001600160401b03808211156200031457600080fd5b62000322858386016200024f565b835260208401519150808211156200033957600080fd5b62000347858386016200024f565b602084015260408401519150808211156200036157600080fd5b6200036f858386016200024f565b604084015260608401519150808211156200038957600080fd5b62000397858386016200024f565b60608401526080840151915080821115620003b157600080fd5b50620003c0848285016200024f565b60808301525092915050565b8051620003d9816200019d565b919050565b805160068110620003d957600080fd5b80518015158114620003d957600080fd5b6000604082840312156200041257600080fd5b604080519081016001600160401b0381118282101715620004375762000437620001b6565b6040529050806200044883620003ee565b81526200045860208401620003ee565b60208201525092915050565b6000806000606084860312156200047a57600080fd5b835162000487816200019d565b60208501519093506200049a816200019d565b60408501519092506001600160401b0380821115620004b857600080fd5b908501906101008288031215620004ce57600080fd5b620004d8620001f7565b82518152602083015182811115620004ef57600080fd5b620004fd89828601620002dc565b602083015250604083015160408201526200051b60608401620003cc565b6060820152608083015160808201526200053860a08401620003de565b60a08201526200054c8860c08501620003ff565b60c08201528093505050509250925092565b600181811c908216806200057357607f821691505b6020821081036200059457634e487b7160e01b600052602260045260246000fd5b50919050565b601f821115620005e857600081815260208120601f850160051c81016020861015620005c35750805b601f850160051c820191505b81811015620005e457828155600101620005cf565b5050505b505050565b81516001600160401b03811115620006095762000609620001b6565b62000621816200061a84546200055e565b846200059a565b602080601f831160018114620006595760008415620006405750858301515b600019600386901b1c1916600185901b178555620005e4565b600085815260208120601f198616915b828110156200068a5788860151825594840194600190910190840162000669565b5085821015620006a95787850151600019600388901b60f8161c191681555b5050505050600190811b01905550565b634e487b7160e01b600052602160045260246000fd5b61180c80620006df6000396000f3fe60806040526004361061010e5760003560e01c80636def4542116100a5578063d57bde7911610074578063e52a787411610059578063e52a78741461029e578063eb7f5f98146102b3578063f446c38f146102c857600080fd5b8063d57bde7914610263578063dfa0cfb31461027957600080fd5b80636def4542146101f857806391f901571461020b578063c45a015514610243578063d015b9dd1461013557600080fd5b80633e3581a7116100e15780633e3581a714610193578063454a2ab3146101a85780635cfbeb77146101c8578063657a5e03146101f057600080fd5b806315bc0eb31461011357806326232a2e14610135578063325a19f11461015d5780633552fac914610173575b600080fd5b34801561011f57600080fd5b5061013361012e366004611568565b6102e8565b005b34801561014157600080fd5b5061014a600181565b6040519081526020015b60405180910390f35b34801561016957600080fd5b5061014a60105481565b34801561017f57600080fd5b5061013361018e366004611581565b610510565b34801561019f57600080fd5b5061013361061b565b3480156101b457600080fd5b506101336101c3366004611568565b610769565b3480156101d457600080fd5b506101dd6107d7565b604051610154979695949392919061162f565b610133610b18565b610133610206366004611568565b610cba565b34801561021757600080fd5b50600f5461022b906001600160a01b031681565b6040516001600160a01b039091168152602001610154565b34801561024f57600080fd5b5060015461022b906001600160a01b031681565b34801561026f57600080fd5b5061014a600e5481565b34801561028557600080fd5b5061028e610e5c565b6040519015158152602001610154565b3480156102aa57600080fd5b5061013361107e565b3480156102bf57600080fd5b506101336111d6565b3480156102d457600080fd5b50600d5461022b906001600160a01b031681565b6102f0611361565b6003600b5460ff166005811115610309576103096115f7565b146103815760405162461bcd60e51b815260206004820152603060248201527f7365636f6e64426964206e6f7420616c6c6f776564207768656e206f6666657260448201527f206973206e6f742072656a65637465640000000000000000000000000000000060648201526084015b60405180910390fd5b600f54336001600160a01b03909116036103dd5760405162461bcd60e51b815260206004820152601a60248201527f416c7265616479207468652068696768657374206269646465720000000000006044820152606401610378565b600e5481116104545760405162461bcd60e51b815260206004820152602b60248201527f42696420616d6f756e74206d7573742062652067726561746572207468616e2060448201527f68696768657374206269640000000000000000000000000000000000000000006064820152608401610378565b600954336001600160a01b03909116036104d65760405162461bcd60e51b815260206004820152602760248201527f53656c6c65722063616e6e6f7420626964206f6e207468656972206f776e207060448201527f726f7065727479000000000000000000000000000000000000000000000000006064820152608401610378565b600e55600f805473ffffffffffffffffffffffffffffffffffffffff191633179055600b805460ff19166001908117909155600055565b50565b600d546001600160a01b0316331461057d5760405162461bcd60e51b815260206004820152602a60248201527f4f6e6c792070726f7065727479206f776e65722063616e2063616c6c207468696044820152693990333ab731ba34b7b760b11b6064820152608401610378565b610585611361565b6004600b5460ff16600581111561059e5761059e6115f7565b036105eb5760405162461bcd60e51b815260206004820152601860248201527f50726f706572747920697320616c726561647920736f6c6400000000000000006044820152606401610378565b600d805473ffffffffffffffffffffffffffffffffffffffff19166001600160a01b038316179055600160005550565b600d546001600160a01b031633146106885760405162461bcd60e51b815260206004820152602a60248201527f4f6e6c792070726f7065727479206f776e65722063616e2063616c6c207468696044820152693990333ab731ba34b7b760b11b6064820152608401610378565b610690611361565b6001600b5460ff1660058111156106a9576106a96115f7565b146106f65760405162461bcd60e51b815260206004820181905260248201527f50726f7065727479206973206e6f74206f70656e20666f722062696464696e676044820152606401610378565b6000600e54116107485760405162461bcd60e51b815260206004820152601660248201527f4e6f20626964732068617665206265656e206d616465000000000000000000006044820152606401610378565b600b80546003919060ff19166001835b02179055506107676001600055565b565b610771611361565b6000600b5460ff16600581111561078a5761078a6115f7565b146103815760405162461bcd60e51b815260206004820181905260248201527f50726f7065727479206973206e6f74206f70656e20666f722062696464696e676044820152606401610378565b600280546040805160a0810190915260038054929392829082906107fa90611721565b80601f016020809104026020016040519081016040528092919081815260200182805461082690611721565b80156108735780601f1061084857610100808354040283529160200191610873565b820191906000526020600020905b81548152906001019060200180831161085657829003601f168201915b5050505050815260200160018201805461088c90611721565b80601f01602080910402602001604051908101604052809291908181526020018280546108b890611721565b80156109055780601f106108da57610100808354040283529160200191610905565b820191906000526020600020905b8154815290600101906020018083116108e857829003601f168201915b5050505050815260200160028201805461091e90611721565b80601f016020809104026020016040519081016040528092919081815260200182805461094a90611721565b80156109975780601f1061096c57610100808354040283529160200191610997565b820191906000526020600020905b81548152906001019060200180831161097a57829003601f168201915b505050505081526020016003820180546109b090611721565b80601f01602080910402602001604051908101604052809291908181526020018280546109dc90611721565b8015610a295780601f106109fe57610100808354040283529160200191610a29565b820191906000526020600020905b815481529060010190602001808311610a0c57829003601f168201915b50505050508152602001600482018054610a4290611721565b80601f0160208091040260200160405190810160405280929190818152602001828054610a6e90611721565b8015610abb5780601f10610a9057610100808354040283529160200191610abb565b820191906000526020600020905b815481529060010190602001808311610a9e57829003601f168201915b50505091909252505050600682015460078301546008840154600985015460408051808201909152600a9096015460ff81811615158852610100909104811615156020880152949593946001600160a01b03909316939192169087565b600f546001600160a01b03163314610b855760405162461bcd60e51b815260206004820152602a60248201527f4f6e6c792068696768657374206269646465722063616e2063616c6c207468696044820152693990333ab731ba34b7b760b11b6064820152608401610378565b610b8d611361565b6002600b5460ff166005811115610ba657610ba66115f7565b14610be65760405162461bcd60e51b815260206004820152601060248201526f109a59081b9bdd081858d8d95c1d195960821b6044820152606401610378565b600f546001600160a01b03163314610c505760405162461bcd60e51b815260206004820152602760248201527f4f6e6c792068696768657374206269646465722063616e2061636365707420746044820152661a19481cd95b1b60ca1b6064820152608401610378565b600e543414610ca15760405162461bcd60e51b815260206004820152601560248201527f496e636f727265637420616d6f756e742073656e7400000000000000000000006044820152606401610378565b600c805461ff0019166101001790556107676001600055565b600f546001600160a01b03163314610d275760405162461bcd60e51b815260206004820152602a60248201527f4f6e6c792068696768657374206269646465722063616e2063616c6c207468696044820152693990333ab731ba34b7b760b11b6064820152608401610378565b610d2f611361565b6002600b5460ff166005811115610d4857610d486115f7565b14610d885760405162461bcd60e51b815260206004820152601060248201526f109a59081b9bdd081858d8d95c1d195960821b6044820152606401610378565b600f546001600160a01b03163314610df25760405162461bcd60e51b815260206004820152602760248201527f4f6e6c792068696768657374206269646465722063616e2061636365707420746044820152661a19481cd95b1b60ca1b6064820152608401610378565b600e543414610e435760405162461bcd60e51b815260206004820152601560248201527f496e636f727265637420616d6f756e742073656e7400000000000000000000006044820152606401610378565b600c805461ff00191661010017905561050d6001600055565b6001546000906001600160a01b03163314610edf5760405162461bcd60e51b815260206004820152602360248201527f4f6e6c7920666163746f72792063616e2063616c6c20746869732066756e637460448201527f696f6e00000000000000000000000000000000000000000000000000000000006064820152608401610378565b610ee7611361565b6004600b5460ff166005811115610f0057610f006115f7565b14610f4d5760405162461bcd60e51b815260206004820152601460248201527f50726f7065727479206973206e6f7420736f6c640000000000000000000000006044820152606401610378565b4780610f9b5760405162461bcd60e51b815260206004820152601760248201527f436f6e747261637420686173206e6f2062616c616e63650000000000000000006044820152606401610378565b600f54600d80546001600160a01b0390921673ffffffffffffffffffffffffffffffffffffffff19909216919091179055600b805460ff19166005179055610fe2816113ba565b9150816110315760405162461bcd60e51b815260206004820152601f60248201527f5472616e736665722070726f70657274792066756e6473206661696c65642e006044820152606401610378565b600d546009546040516001600160a01b0392831692909116907f7fd0323aae6d324ceaa61c5e1564b3c3a84d38216da5434d73194ae51f1b6bb290600090a35061107b6001600055565b90565b600d546001600160a01b031633146110eb5760405162461bcd60e51b815260206004820152602a60248201527f4f6e6c792070726f7065727479206f776e65722063616e2063616c6c207468696044820152693990333ab731ba34b7b760b11b6064820152608401610378565b6110f3611361565b6001600b5460ff16600581111561110c5761110c6115f7565b146111595760405162461bcd60e51b815260206004820181905260248201527f50726f7065727479206973206e6f74206f70656e20666f722062696464696e676044820152606401610378565b6000600e54116111ab5760405162461bcd60e51b815260206004820152601660248201527f4e6f20626964732068617665206265656e206d616465000000000000000000006044820152606401610378565b600b80546002919060ff19166001830217905550600c805460ff191660011790556107676001600055565b600d546001600160a01b031633146112435760405162461bcd60e51b815260206004820152602a60248201527f4f6e6c792070726f7065727479206f776e65722063616e2063616c6c207468696044820152693990333ab731ba34b7b760b11b6064820152608401610378565b61124b611361565b6002600b5460ff166005811115611264576112646115f7565b146112a45760405162461bcd60e51b815260206004820152601060248201526f109a59081b9bdd081858d8d95c1d195960821b6044820152606401610378565b600c5460ff166112f65760405162461bcd60e51b815260206004820181905260248201527f53656c6c657220686173206e6f74206163636570746564207468652073656c6c6044820152606401610378565b600c54610100900460ff1661134d5760405162461bcd60e51b815260206004820152601f60248201527f427579657220686173206e6f74206163636570746564207468652073656c6c006044820152606401610378565b600b80546004919060ff1916600183610758565b6002600054036113b35760405162461bcd60e51b815260206004820152601f60248201527f5265656e7472616e637947756172643a207265656e7472616e742063616c6c006044820152606401610378565b6002600055565b60008060646113ca600185611771565b6113d4919061178e565b9050600060646113e5600186611771565b6113ef919061178e565b905060006113fd82846117b0565b6001546040519192506000916001600160a01b039091169083908381818185875af1925050503d806000811461144f576040519150601f19603f3d011682016040523d82523d6000602084013e611454565b606091505b50509050806114a55760405162461bcd60e51b815260206004820152601f60248201527f5472616e736665722066656520746f20666163746f7279206661696c65642e006044820152606401610378565b60006114b183886117c3565b6009546040519192506001600160a01b031690600090829084908381818185875af1925050503d8060008114611503576040519150601f19603f3d011682016040523d82523d6000602084013e611508565b606091505b50509050806115595760405162461bcd60e51b815260206004820152601060248201527f5472616e73666572206661696c65642e000000000000000000000000000000006044820152606401610378565b50600198975050505050505050565b60006020828403121561157a57600080fd5b5035919050565b60006020828403121561159357600080fd5b81356001600160a01b03811681146115aa57600080fd5b9392505050565b6000815180845260005b818110156115d7576020818501810151868301820152016115bb565b506000602082860101526020601f19601f83011685010191505092915050565b634e487b7160e01b600052602160045260246000fd5b6006811061162b57634e487b7160e01b600052602160045260246000fd5b9052565b6000610100898352806020840152885160a0828501526116536101a08501826115b1565b915050602089015160ff19808584030161012086015261167383836115b1565b925060408b01519150808584030161014086015261169183836115b1565b925060608b0151915080858403016101608601526116af83836115b1565b925060808b015191508085840301610180860152506116ce82826115b1565b925050508660408301526116ed60608301876001600160a01b03169052565b84608083015261170060a083018561160d565b8251151560c08301526020830151151560e083015298975050505050505050565b600181811c9082168061173557607f821691505b60208210810361175557634e487b7160e01b600052602260045260246000fd5b50919050565b634e487b7160e01b600052601160045260246000fd5b80820281158282048414176117885761178861175b565b92915050565b6000826117ab57634e487b7160e01b600052601260045260246000fd5b500490565b808201808211156117885761178861175b565b818103818111156117885761178861175b56fea2646970667358221220d382db2a71fe5d38a6f537a90f1da872e5720f6e954d11ffebbddf97f7eb632764736f6c63430008110033a2646970667358221220fa5a8a11b62606b67f89d59a7cc66aa561419e0b2266803f103c6623fe02be3f64736f6c63430008110033",
  "linkReferences": {},
  "deployedLinkReferences": {}
}