{
  "_format": "hh-sol-artifact-1",
  "contractName": "PropertyFactory",
  "sourceName": "contracts/PropertyFactory.sol",
  "abi": [
    {
      "inputs": [
        {
          "internalType": "address",
          "name": "_factoryController",
          "type": "address"
        }
      ],
      "stateMutability": "nonpayable",
      "type": "constructor"
    },
    {
      "anonymous": false,
      "inputs": [
        {
          "indexed": true,
          "internalType": "address",
          "name": "propertyAddress",
          "type": "address"
        },
        {
          "indexed": true,
          "internalType": "address",
          "name": "owner",
          "type": "address"
        },
        {
          "indexed": true,
          "internalType": "uint256",
          "name": "propertyId",
          "type": "uint256"
        }
      ],
      "name": "PropertyCreated",
      "type": "event"
    },
    {
      "anonymous": false,
      "inputs": [
        {
          "indexed": true,
          "internalType": "address",
          "name": "propertyAddress",
          "type": "address"
        },
        {
          "indexed": true,
          "internalType": "address",
          "name": "buyer",
          "type": "address"
        },
        {
          "indexed": true,
          "internalType": "address",
          "name": "seller",
          "type": "address"
        },
        {
          "indexed": false,
          "internalType": "uint256",
          "name": "price",
          "type": "uint256"
        },
        {
          "indexed": false,
          "internalType": "uint256",
          "name": "propertyId",
          "type": "uint256"
        }
      ],
      "name": "PropertySold",
      "type": "event"
    },
    {
      "stateMutability": "payable",
      "type": "fallback"
    },
    {
      "inputs": [
        {
          "components": [
            {
              "components": [
                {
                  "internalType": "string",
                  "name": "street",
                  "type": "string"
                },
                {
                  "internalType": "string",
                  "name": "city",
                  "type": "string"
                },
                {
                  "internalType": "string",
                  "name": "state",
                  "type": "string"
                },
                {
                  "internalType": "string",
                  "name": "country",
                  "type": "string"
                },
                {
                  "internalType": "string",
                  "name": "zip",
                  "type": "string"
                }
              ],
              "internalType": "struct Address",
              "name": "addr",
              "type": "tuple"
            },
            {
              "internalType": "uint256",
              "name": "askingPrice",
              "type": "uint256"
            }
          ],
          "internalType": "struct CreateProperty",
          "name": "_property",
          "type": "tuple"
        }
      ],
      "name": "createProperty",
      "outputs": [
        {
          "internalType": "address",
          "name": "",
          "type": "address"
        }
      ],
      "stateMutability": "nonpayable",
      "type": "function"
    },
    {
      "inputs": [],
      "name": "factoryController",
      "outputs": [
        {
          "internalType": "address",
          "name": "",
          "type": "address"
        }
      ],
      "stateMutability": "view",
      "type": "function"
    },
    {
      "inputs": [],
      "name": "getPropertiesForCaller",
      "outputs": [
        {
          "internalType": "address[]",
          "name": "",
          "type": "address[]"
        }
      ],
      "stateMutability": "view",
      "type": "function"
    },
    {
      "inputs": [],
      "name": "getPropertyContracts",
      "outputs": [
        {
          "internalType": "address[]",
          "name": "",
          "type": "address[]"
        }
      ],
      "stateMutability": "view",
      "type": "function"
    },
    {
      "inputs": [
        {
          "internalType": "address",
          "name": "",
          "type": "address"
        },
        {
          "internalType": "uint256",
          "name": "",
          "type": "uint256"
        }
      ],
      "name": "properties",
      "outputs": [
        {
          "internalType": "address",
          "name": "",
          "type": "address"
        }
      ],
      "stateMutability": "view",
      "type": "function"
    },
    {
      "inputs": [
        {
          "internalType": "uint256",
          "name": "",
          "type": "uint256"
        }
      ],
      "name": "propertyContracts",
      "outputs": [
        {
          "internalType": "address",
          "name": "",
          "type": "address"
        }
      ],
      "stateMutability": "view",
      "type": "function"
    },
    {
      "inputs": [],
      "name": "propertyCount",
      "outputs": [
        {
          "internalType": "uint256",
          "name": "",
          "type": "uint256"
        }
      ],
      "stateMutability": "view",
      "type": "function"
    },
    {
      "inputs": [
        {
          "internalType": "uint256",
          "name": "",
          "type": "uint256"
        }
      ],
      "name": "propertyInfo",
      "outputs": [
        {
          "internalType": "uint256",
          "name": "id",
          "type": "uint256"
        },
        {
          "components": [
            {
              "internalType": "string",
              "name": "street",
              "type": "string"
            },
            {
              "internalType": "string",
              "name": "city",
              "type": "string"
            },
            {
              "internalType": "string",
              "name": "state",
              "type": "string"
            },
            {
              "internalType": "string",
              "name": "country",
              "type": "string"
            },
            {
              "internalType": "string",
              "name": "zip",
              "type": "string"
            }
          ],
          "internalType": "struct Address",
          "name": "addr",
          "type": "tuple"
        },
        {
          "internalType": "uint256",
          "name": "askingPrice",
          "type": "uint256"
        },
        {
          "internalType": "address payable",
          "name": "seller",
          "type": "address"
        },
        {
          "internalType": "uint256",
          "name": "created",
          "type": "uint256"
        },
        {
          "internalType": "enum Status",
          "name": "status",
          "type": "uint8"
        },
        {
          "components": [
            {
              "internalType": "bool",
              "name": "sellerAccepted",
              "type": "bool"
            },
            {
              "internalType": "bool",
              "name": "buyerAccepted",
              "type": "bool"
            }
          ],
          "internalType": "struct OfferStatus",
          "name": "offerStatus",
          "type": "tuple"
        }
      ],
      "stateMutability": "view",
      "type": "function"
    },
    {
      "inputs": [
        {
          "internalType": "address",
          "name": "_propertyAddress",
          "type": "address"
        }
      ],
      "name": "propertyIsSold",
      "outputs": [],
      "stateMutability": "nonpayable",
      "type": "function"
    },
    {
      "inputs": [],
      "name": "withdraw",
      "outputs": [],
      "stateMutability": "nonpayable",
      "type": "function"
    },
    {
      "stateMutability": "payable",
      "type": "receive"
    }
  ],
  "bytecode": "0x608060405234801561001057600080fd5b506040516139d23803806139d283398101604081905261002f91610059565b6001600081905580546001600160a01b0319166001600160a01b0392909216919091179055610089565b60006020828403121561006b57600080fd5b81516001600160a01b038116811461008257600080fd5b9392505050565b61393a806100986000396000f3fe608060405260043610620000b75760003560e01c8063616c87e7116200006b578063c361a3351162000051578063c361a33514620001c6578063c4f680f514620001ed578063fa4d66a4146200021257005b8063616c87e714620001895780639de2dd1b14620001a157005b806331f5b94d116200009d57806331f5b94d14620001255780633ccfd60b146200014a5780635567845e146200016257005b806314bfcdd714620000c15780631f287809146200010357005b36620000bf57005b005b348015620000ce57600080fd5b50620000e6620000e036600462001008565b6200024c565b6040516001600160a01b0390911681526020015b60405180910390f35b3480156200011057600080fd5b50600154620000e6906001600160a01b031681565b3480156200013257600080fd5b50620000e66200014436600462001037565b62000285565b3480156200015757600080fd5b50620000bf620002b0565b3480156200016f57600080fd5b506200017a620003d6565b604051620000fa919062001051565b3480156200019657600080fd5b506200017a62000443565b348015620001ae57600080fd5b50620000e6620001c0366004620011c3565b620004a5565b348015620001d357600080fd5b50620001de60055481565b604051908152602001620000fa565b348015620001fa57600080fd5b50620000bf6200020c36600462001310565b62000750565b3480156200021f57600080fd5b50620002376200023136600462001037565b62000c12565b604051620000fa979695949392919062001453565b600260205281600052604060002081815481106200026957600080fd5b6000918252602090912001546001600160a01b03169150829050565b600481815481106200029657600080fd5b6000918252602090912001546001600160a01b0316905081565b6001546001600160a01b031633146200031f5760405162461bcd60e51b815260206004820152602660248201527f4f6e6c7920636f6e74726f6c6c65722063616e2063616c6c20746869732066756044820152653731ba34b7b760d11b60648201526084015b60405180910390fd5b6200032962000f89565b6040513390600090829047908381818185875af1925050503d80600081146200036f576040519150601f19603f3d011682016040523d82523d6000602084013e62000374565b606091505b5050905080620003c75760405162461bcd60e51b815260206004820152601060248201527f5472616e73666572206661696c65642e00000000000000000000000000000000604482015260640162000316565b5050620003d46001600055565b565b336000908152600260209081526040918290208054835181840281018401909452808452606093928301828280156200043957602002820191906000526020600020905b81546001600160a01b031681526001909101906020018083116200041a575b5050505050905090565b6060600480548060200260200160405190810160405280929190818152602001828054801562000439576020028201919060005260206000209081546001600160a01b031681526001909101906020018083116200041a575050505050905090565b6000620004b162000f89565b600560008154620004c290620014bd565b909155506040805160e081018252600554808252845160208084019182528087015184860152336060850152426080850152600060a085018190528551808701875281815280830182905260c086015292835260039052929020815181559151805191928392909190600183019081906200053e908262001574565b506020820151600182019062000555908262001574565b50604082015160028201906200056c908262001574565b506060820151600382019062000583908262001574565b50608082015160048201906200059a908262001574565b50505060408201516006820155606082015160078201805473ffffffffffffffffffffffffffffffffffffffff19166001600160a01b039092169190911790556080820151600882015560a082015160098201805460ff191660018360058111156200060a576200060a6200141a565b021790555060c091909101518051600a909201805460209092015161ffff1990921692151561ff00191692909217610100911515919091021790556040516000903090339084906200065c9062000fe4565b6200066a9392919062001641565b604051809103906000f08015801562000687573d6000803e3d6000fd5b5033600081815260026020908152604080832080546001818101835591855292842090920180546001600160a01b03871673ffffffffffffffffffffffffffffffffffffffff19918216811790925560048054948501815585527f8a35acfbc15ff81a39ae7d344fd709f28e8600b4aa8c65c6b64bfe7fe36bd19b9093018054909316811790925560055490519495509390917f91d75d4b2ab17d1d6c199e6d71ca0ae67243b6b0f9dab06621d92da487899e1e91a49150506200074b6001600055565b919050565b6001546001600160a01b03163314620007bb5760405162461bcd60e51b815260206004820152602660248201527f4f6e6c7920636f6e74726f6c6c65722063616e2063616c6c20746869732066756044820152653731ba34b7b760d11b606482015260840162000316565b620007c562000f89565b6001600160a01b0381166200081d5760405162461bcd60e51b815260206004820152601760248201527f50726f706572747920646f6573206e6f74206578697374000000000000000000604482015260640162000316565b6000819050600080600080846001600160a01b0316635cfbeb776040518163ffffffff1660e01b8152600401600060405180830381865afa15801562000867573d6000803e3d6000fd5b505050506040513d6000823e601f3d908101601f19168201604052620008919190810190620017ab565b965096505095505050935060046005811115620008b257620008b26200141a565b826005811115620008c757620008c76200141a565b14620009165760405162461bcd60e51b815260206004820152601460248201527f50726f7065727479206973206e6f7420536f6c64000000000000000000000000604482015260640162000316565b80511515600114620009915760405162461bcd60e51b815260206004820152602160248201527f53656c6c657220686173206e6f7420616363657074656420746865206f66666560448201527f7200000000000000000000000000000000000000000000000000000000000000606482015260840162000316565b60208101511515600114620009e95760405162461bcd60e51b815260206004820181905260248201527f427579657220686173206e6f7420616363657074656420746865206f66666572604482015260640162000316565b6000856001600160a01b031663dfa0cfb36040518163ffffffff1660e01b81526004016020604051808303816000875af115801562000a2c573d6000803e3d6000fd5b505050506040513d601f19601f8201168201806040525081019062000a52919062001915565b90508062000ac95760405162461bcd60e51b815260206004820152602260248201527f50726f7065727479206f776e657273686970207472616e73666572206661696c60448201527f6564000000000000000000000000000000000000000000000000000000000000606482015260840162000316565b6000866001600160a01b03166391f901576040518163ffffffff1660e01b8152600401602060405180830381865afa15801562000b0a573d6000803e3d6000fd5b505050506040513d601f19601f8201168201806040525081019062000b30919062001933565b90506000876001600160a01b031663d57bde796040518163ffffffff1660e01b8152600401602060405180830381865afa15801562000b73573d6000803e3d6000fd5b505050506040513d601f19601f8201168201806040525081019062000b99919062001953565b9050856001600160a01b0316826001600160a01b0316896001600160a01b03167fe4325c1fdcbe82bc58d54e4c6d17476405e2bcbcd7b84a6431913f9e18d6d67e848b60405162000bf4929190918252602082015260400190565b60405180910390a4505050505050505062000c0f6001600055565b50565b600360205260009081526040908190208054825160a081019093526001820180549193918290829062000c4590620014e5565b80601f016020809104026020016040519081016040528092919081815260200182805462000c7390620014e5565b801562000cc45780601f1062000c985761010080835404028352916020019162000cc4565b820191906000526020600020905b81548152906001019060200180831162000ca657829003601f168201915b5050505050815260200160018201805462000cdf90620014e5565b80601f016020809104026020016040519081016040528092919081815260200182805462000d0d90620014e5565b801562000d5e5780601f1062000d325761010080835404028352916020019162000d5e565b820191906000526020600020905b81548152906001019060200180831162000d4057829003601f168201915b5050505050815260200160028201805462000d7990620014e5565b80601f016020809104026020016040519081016040528092919081815260200182805462000da790620014e5565b801562000df85780601f1062000dcc5761010080835404028352916020019162000df8565b820191906000526020600020905b81548152906001019060200180831162000dda57829003601f168201915b5050505050815260200160038201805462000e1390620014e5565b80601f016020809104026020016040519081016040528092919081815260200182805462000e4190620014e5565b801562000e925780601f1062000e665761010080835404028352916020019162000e92565b820191906000526020600020905b81548152906001019060200180831162000e7457829003601f168201915b5050505050815260200160048201805462000ead90620014e5565b80601f016020809104026020016040519081016040528092919081815260200182805462000edb90620014e5565b801562000f2c5780601f1062000f005761010080835404028352916020019162000f2c565b820191906000526020600020905b81548152906001019060200180831162000f0e57829003601f168201915b50505091909252505050600682015460078301546008840154600985015460408051808201909152600a9096015460ff81811615158852610100909104811615156020880152949593946001600160a01b03909316939192169087565b60026000540362000fdd5760405162461bcd60e51b815260206004820152601f60248201527f5265656e7472616e637947756172643a207265656e7472616e742063616c6c00604482015260640162000316565b6002600055565b611f97806200196e83390190565b6001600160a01b038116811462000c0f57600080fd5b600080604083850312156200101c57600080fd5b8235620010298162000ff2565b946020939093013593505050565b6000602082840312156200104a57600080fd5b5035919050565b6020808252825182820181905260009190848201906040850190845b81811015620010945783516001600160a01b0316835292840192918401916001016200106d565b50909695505050505050565b634e487b7160e01b600052604160045260246000fd5b6040805190810167ffffffffffffffff81118282101715620010dc57620010dc620010a0565b60405290565b60405160a0810167ffffffffffffffff81118282101715620010dc57620010dc620010a0565b604051601f8201601f1916810167ffffffffffffffff81118282101715620011345762001134620010a0565b604052919050565b600067ffffffffffffffff821115620011595762001159620010a0565b50601f01601f191660200190565b600082601f8301126200117957600080fd5b8135620011906200118a826200113c565b62001108565b818152846020838601011115620011a657600080fd5b816020850160208301376000918101602001919091529392505050565b600060208284031215620011d657600080fd5b813567ffffffffffffffff80821115620011ef57600080fd5b90830190604082860312156200120457600080fd5b6200120e620010b6565b8235828111156200121e57600080fd5b830160a081880312156200123157600080fd5b6200123b620010e2565b8135848111156200124b57600080fd5b620012598982850162001167565b8252506020820135848111156200126f57600080fd5b6200127d8982850162001167565b6020830152506040820135848111156200129657600080fd5b620012a48982850162001167565b604083015250606082013584811115620012bd57600080fd5b620012cb8982850162001167565b606083015250608082013584811115620012e457600080fd5b620012f28982850162001167565b60808301525082525060209283013592810192909252509392505050565b6000602082840312156200132357600080fd5b8135620013308162000ff2565b9392505050565b60005b83811015620013545781810151838201526020016200133a565b50506000910152565b600081518084526200137781602086016020860162001337565b601f01601f19169290920160200192915050565b6000815160a08452620013a260a08501826200135d565b905060208301518482036020860152620013bd82826200135d565b91505060408301518482036040860152620013d982826200135d565b91505060608301518482036060860152620013f582826200135d565b915050608083015184820360808601526200141182826200135d565b95945050505050565b634e487b7160e01b600052602160045260246000fd5b600681106200144f57634e487b7160e01b600052602160045260246000fd5b9052565b60006101008983528060208401526200146f8184018a6200138b565b9150508660408301526001600160a01b03861660608301528460808301526200149c60a083018562001430565b8251151560c08301526020830151151560e083015298975050505050505050565b600060018201620014de57634e487b7160e01b600052601160045260246000fd5b5060010190565b600181811c90821680620014fa57607f821691505b6020821081036200151b57634e487b7160e01b600052602260045260246000fd5b50919050565b601f8211156200156f57600081815260208120601f850160051c810160208610156200154a5750805b601f850160051c820191505b818110156200156b5782815560010162001556565b5050505b505050565b815167ffffffffffffffff811115620015915762001591620010a0565b620015a981620015a28454620014e5565b8462001521565b602080601f831160018114620015e15760008415620015c85750858301515b600019600386901b1c1916600185901b1785556200156b565b600085815260208120601f198616915b828110156200161257888601518255948401946001909101908401620015f1565b5085821015620016315787850151600019600388901b60f8161c191681555b5050505050600190811b01905550565b60006001600160a01b038086168352808516602084015260606040840152835160608401526020840151610100806080860152620016846101608601836200138b565b9150604086015160a08601528260608701511660c0860152608086015160e086015260a08601519250620016bb8186018462001430565b5060c0850151805115156101208601526020810151151561014086015291509695505050505050565b600082601f830112620016f657600080fd5b8151620017076200118a826200113c565b8181528460208386010111156200171d57600080fd5b6200173082602083016020870162001337565b949350505050565b80516200074b8162000ff2565b8051600681106200074b57600080fd5b805180151581146200074b57600080fd5b6000604082840312156200177957600080fd5b62001783620010b6565b9050620017908262001755565b8152620017a06020830162001755565b602082015292915050565b6000806000806000806000610100888a031215620017c857600080fd5b87519650602088015167ffffffffffffffff80821115620017e857600080fd5b9089019060a0828c031215620017fd57600080fd5b62001807620010e2565b8251828111156200181757600080fd5b620018258d828601620016e4565b8252506020830151828111156200183b57600080fd5b620018498d828601620016e4565b6020830152506040830151828111156200186257600080fd5b620018708d828601620016e4565b6040830152506060830151828111156200188957600080fd5b620018978d828601620016e4565b606083015250608083015182811115620018b057600080fd5b620018be8d828601620016e4565b60808301525080985050505060408801519450620018df6060890162001738565b935060808801519250620018f660a0890162001745565b9150620019078960c08a0162001766565b905092959891949750929550565b6000602082840312156200192857600080fd5b620013308262001755565b6000602082840312156200194657600080fd5b8151620013308162000ff2565b6000602082840312156200196657600080fd5b505191905056fe60806040523480156200001157600080fd5b5060405162001f9738038062001f97833981016040819052620000349162000475565b6001600081905580546001600160a01b0319166001600160a01b0385161790558051600290815560208201518051839291906003908190620000779082620005fe565b50602082015160018201906200008e9082620005fe565b5060408201516002820190620000a59082620005fe565b5060608201516003820190620000bc9082620005fe565b5060808201516004820190620000d39082620005fe565b5050506040820151600682015560608201516007820180546001600160a01b0319166001600160a01b039092169190911790556080820151600882015560a082015160098201805460ff19166001836005811115620001365762000136620006ca565b021790555060c091909101518051600a909201805460209092015161ffff1990921692151561ff0019169290921761010091151591909102179055600d80546001600160a01b0319166001600160a01b038416179055426010819055620001a19062093a80620006e0565b6011555062000708915050565b6001600160a01b0381168114620001c457600080fd5b50565b634e487b7160e01b600052604160045260246000fd5b60405160a081016001600160401b0381118282101715620002025762000202620001c7565b60405290565b60405160e081016001600160401b0381118282101715620002025762000202620001c7565b604051601f8201601f191681016001600160401b0381118282101715620002585762000258620001c7565b604052919050565b600082601f8301126200027257600080fd5b81516001600160401b038111156200028e576200028e620001c7565b6020620002a4601f8301601f191682016200022d565b8281528582848701011115620002b957600080fd5b60005b83811015620002d9578581018301518282018401528201620002bc565b506000928101909101919091529392505050565b600060a082840312156200030057600080fd5b6200030a620001dd565b82519091506001600160401b03808211156200032557600080fd5b620003338583860162000260565b835260208401519150808211156200034a57600080fd5b620003588583860162000260565b602084015260408401519150808211156200037257600080fd5b620003808583860162000260565b604084015260608401519150808211156200039a57600080fd5b620003a88583860162000260565b60608401526080840151915080821115620003c257600080fd5b50620003d18482850162000260565b60808301525092915050565b8051620003ea81620001ae565b919050565b805160068110620003ea57600080fd5b80518015158114620003ea57600080fd5b6000604082840312156200042357600080fd5b604080519081016001600160401b0381118282101715620004485762000448620001c7565b6040529050806200045983620003ff565b81526200046960208401620003ff565b60208201525092915050565b6000806000606084860312156200048b57600080fd5b83516200049881620001ae565b6020850151909350620004ab81620001ae565b60408501519092506001600160401b0380821115620004c957600080fd5b908501906101008288031215620004df57600080fd5b620004e962000208565b825181526020830151828111156200050057600080fd5b6200050e89828601620002ed565b602083015250604083015160408201526200052c60608401620003dd565b6060820152608083015160808201526200054960a08401620003ef565b60a08201526200055d8860c0850162000410565b60c08201528093505050509250925092565b600181811c908216806200058457607f821691505b602082108103620005a557634e487b7160e01b600052602260045260246000fd5b50919050565b601f821115620005f957600081815260208120601f850160051c81016020861015620005d45750805b601f850160051c820191505b81811015620005f557828155600101620005e0565b5050505b505050565b81516001600160401b038111156200061a576200061a620001c7565b62000632816200062b84546200056f565b84620005ab565b602080601f8311600181146200066a5760008415620006515750858301515b600019600386901b1c1916600185901b178555620005f5565b600085815260208120601f198616915b828110156200069b578886015182559484019460019091019084016200067a565b5085821015620006ba5787850151600019600388901b60f8161c191681555b5050505050600190811b01905550565b634e487b7160e01b600052602160045260246000fd5b808201808211156200070257634e487b7160e01b600052601160045260246000fd5b92915050565b61187f80620007186000396000f3fe6080604052600436106101295760003560e01c80636def4542116100a5578063d57bde7911610074578063e52a787411610059578063e52a7874146102cf578063eb7f5f98146102e4578063f446c38f146102f957600080fd5b8063d57bde7914610294578063dfa0cfb3146102aa57600080fd5b80636def45421461022957806391f901571461023c578063c45a015514610274578063d015b9dd1461015057600080fd5b80633e3581a7116100fc5780634e859313116100e15780634e859313146101e35780635cfbeb77146101f9578063657a5e031461022157600080fd5b80633e3581a7146101ae578063454a2ab3146101c357600080fd5b806315bc0eb31461012e57806326232a2e14610150578063325a19f1146101785780633552fac91461018e575b600080fd5b34801561013a57600080fd5b5061014e6101493660046115db565b610319565b005b34801561015c57600080fd5b50610165600181565b6040519081526020015b60405180910390f35b34801561018457600080fd5b5061016560105481565b34801561019a57600080fd5b5061014e6101a93660046115f4565b610541565b3480156101ba57600080fd5b5061014e61064c565b3480156101cf57600080fd5b5061014e6101de3660046115db565b61079a565b3480156101ef57600080fd5b5061016560115481565b34801561020557600080fd5b5061020e61084a565b60405161016f97969594939291906116a2565b61014e610b8b565b61014e6102373660046115db565b610d2d565b34801561024857600080fd5b50600f5461025c906001600160a01b031681565b6040516001600160a01b03909116815260200161016f565b34801561028057600080fd5b5060015461025c906001600160a01b031681565b3480156102a057600080fd5b50610165600e5481565b3480156102b657600080fd5b506102bf610ecf565b604051901515815260200161016f565b3480156102db57600080fd5b5061014e6110f1565b3480156102f057600080fd5b5061014e611249565b34801561030557600080fd5b50600d5461025c906001600160a01b031681565b6103216113d4565b6003600b5460ff16600581111561033a5761033a61166a565b146103b25760405162461bcd60e51b815260206004820152603060248201527f7365636f6e64426964206e6f7420616c6c6f776564207768656e206f6666657260448201527f206973206e6f742072656a65637465640000000000000000000000000000000060648201526084015b60405180910390fd5b600f54336001600160a01b039091160361040e5760405162461bcd60e51b815260206004820152601a60248201527f416c72656164792074686520686967686573742062696464657200000000000060448201526064016103a9565b600e5481116104855760405162461bcd60e51b815260206004820152602b60248201527f42696420616d6f756e74206d7573742062652067726561746572207468616e2060448201527f686967686573742062696400000000000000000000000000000000000000000060648201526084016103a9565b600954336001600160a01b03909116036105075760405162461bcd60e51b815260206004820152602760248201527f53656c6c65722063616e6e6f7420626964206f6e207468656972206f776e207060448201527f726f70657274790000000000000000000000000000000000000000000000000060648201526084016103a9565b600e55600f805473ffffffffffffffffffffffffffffffffffffffff191633179055600b805460ff19166001908117909155600055565b50565b600d546001600160a01b031633146105ae5760405162461bcd60e51b815260206004820152602a60248201527f4f6e6c792070726f7065727479206f776e65722063616e2063616c6c207468696044820152693990333ab731ba34b7b760b11b60648201526084016103a9565b6105b66113d4565b6004600b5460ff1660058111156105cf576105cf61166a565b0361061c5760405162461bcd60e51b815260206004820152601860248201527f50726f706572747920697320616c726561647920736f6c64000000000000000060448201526064016103a9565b600d805473ffffffffffffffffffffffffffffffffffffffff19166001600160a01b038316179055600160005550565b600d546001600160a01b031633146106b95760405162461bcd60e51b815260206004820152602a60248201527f4f6e6c792070726f7065727479206f776e65722063616e2063616c6c207468696044820152693990333ab731ba34b7b760b11b60648201526084016103a9565b6106c16113d4565b6001600b5460ff1660058111156106da576106da61166a565b146107275760405162461bcd60e51b815260206004820181905260248201527f50726f7065727479206973206e6f74206f70656e20666f722062696464696e6760448201526064016103a9565b6000600e54116107795760405162461bcd60e51b815260206004820152601660248201527f4e6f20626964732068617665206265656e206d6164650000000000000000000060448201526064016103a9565b600b80546003919060ff19166001835b02179055506107986001600055565b565b6107a26113d4565b6011544210156107e4576011546040517ff1fa6b100000000000000000000000000000000000000000000000000000000081526004016103a991815260200190565b6000600b5460ff1660058111156107fd576107fd61166a565b146103b25760405162461bcd60e51b815260206004820181905260248201527f50726f7065727479206973206e6f74206f70656e20666f722062696464696e6760448201526064016103a9565b600280546040805160a08101909152600380549293928290829061086d90611794565b80601f016020809104026020016040519081016040528092919081815260200182805461089990611794565b80156108e65780601f106108bb576101008083540402835291602001916108e6565b820191906000526020600020905b8154815290600101906020018083116108c957829003601f168201915b505050505081526020016001820180546108ff90611794565b80601f016020809104026020016040519081016040528092919081815260200182805461092b90611794565b80156109785780601f1061094d57610100808354040283529160200191610978565b820191906000526020600020905b81548152906001019060200180831161095b57829003601f168201915b5050505050815260200160028201805461099190611794565b80601f01602080910402602001604051908101604052809291908181526020018280546109bd90611794565b8015610a0a5780601f106109df57610100808354040283529160200191610a0a565b820191906000526020600020905b8154815290600101906020018083116109ed57829003601f168201915b50505050508152602001600382018054610a2390611794565b80601f0160208091040260200160405190810160405280929190818152602001828054610a4f90611794565b8015610a9c5780601f10610a7157610100808354040283529160200191610a9c565b820191906000526020600020905b815481529060010190602001808311610a7f57829003601f168201915b50505050508152602001600482018054610ab590611794565b80601f0160208091040260200160405190810160405280929190818152602001828054610ae190611794565b8015610b2e5780601f10610b0357610100808354040283529160200191610b2e565b820191906000526020600020905b815481529060010190602001808311610b1157829003601f168201915b50505091909252505050600682015460078301546008840154600985015460408051808201909152600a9096015460ff81811615158852610100909104811615156020880152949593946001600160a01b03909316939192169087565b600f546001600160a01b03163314610bf85760405162461bcd60e51b815260206004820152602a60248201527f4f6e6c792068696768657374206269646465722063616e2063616c6c207468696044820152693990333ab731ba34b7b760b11b60648201526084016103a9565b610c006113d4565b6002600b5460ff166005811115610c1957610c1961166a565b14610c595760405162461bcd60e51b815260206004820152601060248201526f109a59081b9bdd081858d8d95c1d195960821b60448201526064016103a9565b600f546001600160a01b03163314610cc35760405162461bcd60e51b815260206004820152602760248201527f4f6e6c792068696768657374206269646465722063616e2061636365707420746044820152661a19481cd95b1b60ca1b60648201526084016103a9565b600e543414610d145760405162461bcd60e51b815260206004820152601560248201527f496e636f727265637420616d6f756e742073656e74000000000000000000000060448201526064016103a9565b600c805461ff0019166101001790556107986001600055565b600f546001600160a01b03163314610d9a5760405162461bcd60e51b815260206004820152602a60248201527f4f6e6c792068696768657374206269646465722063616e2063616c6c207468696044820152693990333ab731ba34b7b760b11b60648201526084016103a9565b610da26113d4565b6002600b5460ff166005811115610dbb57610dbb61166a565b14610dfb5760405162461bcd60e51b815260206004820152601060248201526f109a59081b9bdd081858d8d95c1d195960821b60448201526064016103a9565b600f546001600160a01b03163314610e655760405162461bcd60e51b815260206004820152602760248201527f4f6e6c792068696768657374206269646465722063616e2061636365707420746044820152661a19481cd95b1b60ca1b60648201526084016103a9565b600e543414610eb65760405162461bcd60e51b815260206004820152601560248201527f496e636f727265637420616d6f756e742073656e74000000000000000000000060448201526064016103a9565b600c805461ff00191661010017905561053e6001600055565b6001546000906001600160a01b03163314610f525760405162461bcd60e51b815260206004820152602360248201527f4f6e6c7920666163746f72792063616e2063616c6c20746869732066756e637460448201527f696f6e000000000000000000000000000000000000000000000000000000000060648201526084016103a9565b610f5a6113d4565b6004600b5460ff166005811115610f7357610f7361166a565b14610fc05760405162461bcd60e51b815260206004820152601460248201527f50726f7065727479206973206e6f7420736f6c6400000000000000000000000060448201526064016103a9565b478061100e5760405162461bcd60e51b815260206004820152601760248201527f436f6e747261637420686173206e6f2062616c616e636500000000000000000060448201526064016103a9565b600f54600d80546001600160a01b0390921673ffffffffffffffffffffffffffffffffffffffff19909216919091179055600b805460ff191660051790556110558161142d565b9150816110a45760405162461bcd60e51b815260206004820152601f60248201527f5472616e736665722070726f70657274792066756e6473206661696c65642e0060448201526064016103a9565b600d546009546040516001600160a01b0392831692909116907f7fd0323aae6d324ceaa61c5e1564b3c3a84d38216da5434d73194ae51f1b6bb290600090a3506110ee6001600055565b90565b600d546001600160a01b0316331461115e5760405162461bcd60e51b815260206004820152602a60248201527f4f6e6c792070726f7065727479206f776e65722063616e2063616c6c207468696044820152693990333ab731ba34b7b760b11b60648201526084016103a9565b6111666113d4565b6001600b5460ff16600581111561117f5761117f61166a565b146111cc5760405162461bcd60e51b815260206004820181905260248201527f50726f7065727479206973206e6f74206f70656e20666f722062696464696e6760448201526064016103a9565b6000600e541161121e5760405162461bcd60e51b815260206004820152601660248201527f4e6f20626964732068617665206265656e206d6164650000000000000000000060448201526064016103a9565b600b80546002919060ff19166001830217905550600c805460ff191660011790556107986001600055565b600d546001600160a01b031633146112b65760405162461bcd60e51b815260206004820152602a60248201527f4f6e6c792070726f7065727479206f776e65722063616e2063616c6c207468696044820152693990333ab731ba34b7b760b11b60648201526084016103a9565b6112be6113d4565b6002600b5460ff1660058111156112d7576112d761166a565b146113175760405162461bcd60e51b815260206004820152601060248201526f109a59081b9bdd081858d8d95c1d195960821b60448201526064016103a9565b600c5460ff166113695760405162461bcd60e51b815260206004820181905260248201527f53656c6c657220686173206e6f74206163636570746564207468652073656c6c60448201526064016103a9565b600c54610100900460ff166113c05760405162461bcd60e51b815260206004820152601f60248201527f427579657220686173206e6f74206163636570746564207468652073656c6c0060448201526064016103a9565b600b80546004919060ff1916600183610789565b6002600054036114265760405162461bcd60e51b815260206004820152601f60248201527f5265656e7472616e637947756172643a207265656e7472616e742063616c6c0060448201526064016103a9565b6002600055565b600080606461143d6001856117e4565b6114479190611801565b9050600060646114586001866117e4565b6114629190611801565b905060006114708284611823565b6001546040519192506000916001600160a01b039091169083908381818185875af1925050503d80600081146114c2576040519150601f19603f3d011682016040523d82523d6000602084013e6114c7565b606091505b50509050806115185760405162461bcd60e51b815260206004820152601f60248201527f5472616e736665722066656520746f20666163746f7279206661696c65642e0060448201526064016103a9565b60006115248388611836565b6009546040519192506001600160a01b031690600090829084908381818185875af1925050503d8060008114611576576040519150601f19603f3d011682016040523d82523d6000602084013e61157b565b606091505b50509050806115cc5760405162461bcd60e51b815260206004820152601060248201527f5472616e73666572206661696c65642e0000000000000000000000000000000060448201526064016103a9565b50600198975050505050505050565b6000602082840312156115ed57600080fd5b5035919050565b60006020828403121561160657600080fd5b81356001600160a01b038116811461161d57600080fd5b9392505050565b6000815180845260005b8181101561164a5760208185018101518683018201520161162e565b506000602082860101526020601f19601f83011685010191505092915050565b634e487b7160e01b600052602160045260246000fd5b6006811061169e57634e487b7160e01b600052602160045260246000fd5b9052565b6000610100898352806020840152885160a0828501526116c66101a0850182611624565b915050602089015160ff1980858403016101208601526116e68383611624565b925060408b0151915080858403016101408601526117048383611624565b925060608b0151915080858403016101608601526117228383611624565b925060808b015191508085840301610180860152506117418282611624565b9250505086604083015261176060608301876001600160a01b03169052565b84608083015261177360a0830185611680565b8251151560c08301526020830151151560e083015298975050505050505050565b600181811c908216806117a857607f821691505b6020821081036117c857634e487b7160e01b600052602260045260246000fd5b50919050565b634e487b7160e01b600052601160045260246000fd5b80820281158282048414176117fb576117fb6117ce565b92915050565b60008261181e57634e487b7160e01b600052601260045260246000fd5b500490565b808201808211156117fb576117fb6117ce565b818103818111156117fb576117fb6117ce56fea26469706673582212202cbece10c0bdf15873faa26a594a89eda4e104cf6cf7524b045f5325e667af1864736f6c63430008110033a2646970667358221220c0476bedab9c059b8248aaa7d1e5cf90d35328b5b735cd73af189df6e739342c64736f6c63430008110033",
  "linkReferences": {},
  "deployedLinkReferences": {}
}