{
  "_format": "hh-sol-artifact-1",
  "contractName": "PropertyFactory",
  "sourceName": "contracts/PropertyFactory.sol",
  "abi": [
    {
      "inputs": [
        {
          "internalType": "address",
          "name": "_factoryController",
          "type": "address"
        }
      ],
      "stateMutability": "nonpayable",
      "type": "constructor"
    },
    {
      "anonymous": false,
      "inputs": [
        {
          "indexed": true,
          "internalType": "address",
          "name": "propertyAddress",
          "type": "address"
        },
        {
          "indexed": true,
          "internalType": "address",
          "name": "owner",
          "type": "address"
        },
        {
          "indexed": true,
          "internalType": "uint256",
          "name": "propertyId",
          "type": "uint256"
        }
      ],
      "name": "PropertyCreated",
      "type": "event"
    },
    {
      "anonymous": false,
      "inputs": [
        {
          "indexed": true,
          "internalType": "address",
          "name": "propertyAddress",
          "type": "address"
        },
        {
          "indexed": true,
          "internalType": "address",
          "name": "buyer",
          "type": "address"
        },
        {
          "indexed": true,
          "internalType": "address",
          "name": "seller",
          "type": "address"
        },
        {
          "indexed": false,
          "internalType": "uint256",
          "name": "price",
          "type": "uint256"
        },
        {
          "indexed": false,
          "internalType": "uint256",
          "name": "propertyId",
          "type": "uint256"
        }
      ],
      "name": "PropertySold",
      "type": "event"
    },
    {
      "stateMutability": "payable",
      "type": "fallback"
    },
    {
      "inputs": [
        {
          "components": [
            {
              "components": [
                {
                  "internalType": "string",
                  "name": "street",
                  "type": "string"
                },
                {
                  "internalType": "string",
                  "name": "city",
                  "type": "string"
                },
                {
                  "internalType": "string",
                  "name": "state",
                  "type": "string"
                },
                {
                  "internalType": "string",
                  "name": "country",
                  "type": "string"
                },
                {
                  "internalType": "string",
                  "name": "zip",
                  "type": "string"
                }
              ],
              "internalType": "struct Address",
              "name": "addr",
              "type": "tuple"
            },
            {
              "internalType": "uint256",
              "name": "askingPrice",
              "type": "uint256"
            }
          ],
          "internalType": "struct CreateProperty",
          "name": "_property",
          "type": "tuple"
        }
      ],
      "name": "createProperty",
      "outputs": [
        {
          "internalType": "address",
          "name": "",
          "type": "address"
        }
      ],
      "stateMutability": "nonpayable",
      "type": "function"
    },
    {
      "inputs": [],
      "name": "factoryController",
      "outputs": [
        {
          "internalType": "address",
          "name": "",
          "type": "address"
        }
      ],
      "stateMutability": "view",
      "type": "function"
    },
    {
      "inputs": [
        {
          "internalType": "address",
          "name": "",
          "type": "address"
        },
        {
          "internalType": "uint256",
          "name": "",
          "type": "uint256"
        }
      ],
      "name": "properties",
      "outputs": [
        {
          "internalType": "address",
          "name": "",
          "type": "address"
        }
      ],
      "stateMutability": "view",
      "type": "function"
    },
    {
      "inputs": [
        {
          "internalType": "address",
          "name": "",
          "type": "address"
        }
      ],
      "name": "propertyContracts",
      "outputs": [
        {
          "internalType": "contract Property",
          "name": "",
          "type": "address"
        }
      ],
      "stateMutability": "view",
      "type": "function"
    },
    {
      "inputs": [],
      "name": "propertyCount",
      "outputs": [
        {
          "internalType": "uint256",
          "name": "",
          "type": "uint256"
        }
      ],
      "stateMutability": "view",
      "type": "function"
    },
    {
      "inputs": [
        {
          "internalType": "uint256",
          "name": "",
          "type": "uint256"
        }
      ],
      "name": "propertyInfo",
      "outputs": [
        {
          "internalType": "uint256",
          "name": "id",
          "type": "uint256"
        },
        {
          "components": [
            {
              "internalType": "string",
              "name": "street",
              "type": "string"
            },
            {
              "internalType": "string",
              "name": "city",
              "type": "string"
            },
            {
              "internalType": "string",
              "name": "state",
              "type": "string"
            },
            {
              "internalType": "string",
              "name": "country",
              "type": "string"
            },
            {
              "internalType": "string",
              "name": "zip",
              "type": "string"
            }
          ],
          "internalType": "struct Address",
          "name": "addr",
          "type": "tuple"
        },
        {
          "internalType": "uint256",
          "name": "askingPrice",
          "type": "uint256"
        },
        {
          "internalType": "address payable",
          "name": "seller",
          "type": "address"
        },
        {
          "internalType": "uint256",
          "name": "created",
          "type": "uint256"
        },
        {
          "internalType": "enum Status",
          "name": "status",
          "type": "uint8"
        },
        {
          "components": [
            {
              "internalType": "bool",
              "name": "sellerAccepted",
              "type": "bool"
            },
            {
              "internalType": "bool",
              "name": "buyerAccepted",
              "type": "bool"
            }
          ],
          "internalType": "struct OfferStatus",
          "name": "offerStatus",
          "type": "tuple"
        }
      ],
      "stateMutability": "view",
      "type": "function"
    },
    {
      "inputs": [
        {
          "internalType": "address",
          "name": "_propertyAddress",
          "type": "address"
        }
      ],
      "name": "propertyIsSold",
      "outputs": [],
      "stateMutability": "nonpayable",
      "type": "function"
    },
    {
      "inputs": [],
      "name": "withdraw",
      "outputs": [],
      "stateMutability": "nonpayable",
      "type": "function"
    },
    {
      "stateMutability": "payable",
      "type": "receive"
    }
  ],
  "bytecode": "0x60806040523480156200001157600080fd5b5060405162006214380380620062148339818101604052810190620000379190620000f1565b600160008190555080600160006101000a81548173ffffffffffffffffffffffffffffffffffffffff021916908373ffffffffffffffffffffffffffffffffffffffff1602179055505062000123565b600080fd5b600073ffffffffffffffffffffffffffffffffffffffff82169050919050565b6000620000b9826200008c565b9050919050565b620000cb81620000ac565b8114620000d757600080fd5b50565b600081519050620000eb81620000c0565b92915050565b6000602082840312156200010a576200010962000087565b5b60006200011a84828501620000da565b91505092915050565b6160e180620001336000396000f3fe6080604052600436106200008b5760003560e01c80639de2dd1b11620000555780639de2dd1b1462000167578063c361a33514620001ab578063c4f680f514620001db578063fa4d66a414620002095762000093565b806314bfcdd714620000955780631921a93a14620000d95780631f287809146200011d5780633ccfd60b146200014d5762000093565b366200009357005b005b348015620000a257600080fd5b50620000c16004803603810190620000bb9190620012a4565b62000253565b604051620000d09190620012fc565b60405180910390f35b348015620000e657600080fd5b50620001056004803603810190620000ff919062001319565b620002a2565b604051620001149190620013b6565b60405180910390f35b3480156200012a57600080fd5b5062000135620002d5565b604051620001449190620012fc565b60405180910390f35b3480156200015a57600080fd5b5062000165620002fb565b005b3480156200017457600080fd5b506200019360048036038101906200018d9190620016ed565b6200045e565b604051620001a29190620012fc565b60405180910390f35b348015620001b857600080fd5b50620001c362000858565b604051620001d291906200174f565b60405180910390f35b348015620001e857600080fd5b5062000207600480360381019062000201919062001319565b6200085e565b005b3480156200021657600080fd5b506200023560048036038101906200022f91906200176c565b62000dcb565b6040516200024a9796959493929190620019b8565b60405180910390f35b600260205281600052604060002081815481106200027057600080fd5b906000526020600020016000915091509054906101000a900473ffffffffffffffffffffffffffffffffffffffff1681565b60046020528060005260406000206000915054906101000a900473ffffffffffffffffffffffffffffffffffffffff1681565b600160009054906101000a900473ffffffffffffffffffffffffffffffffffffffff1681565b600160009054906101000a900473ffffffffffffffffffffffffffffffffffffffff1673ffffffffffffffffffffffffffffffffffffffff163373ffffffffffffffffffffffffffffffffffffffff16146200038e576040517f08c379a0000000000000000000000000000000000000000000000000000000008152600401620003859062001ac4565b60405180910390fd5b6200039862001186565b600033905060008173ffffffffffffffffffffffffffffffffffffffff1647604051620003c59062001b1b565b60006040518083038185875af1925050503d806000811462000404576040519150601f19603f3d011682016040523d82523d6000602084013e62000409565b606091505b505090508062000450576040517f08c379a0000000000000000000000000000000000000000000000000000000008152600401620004479062001b82565b60405180910390fd5b50506200045c620011d8565b565b60006200046a62001186565b6005600081546200047b9062001bd3565b9190508190555060006040518060e00160405280600554815260200184600001518152602001846020015181526020013373ffffffffffffffffffffffffffffffffffffffff16815260200142815260200160006005811115620004e457620004e3620018e8565b5b815260200160405180604001604052806000151581526020016000151581525081525090508060036000600554815260200190815260200160002060008201518160000155602082015181600101600082015181600001908162000549919062001e4c565b50602082015181600101908162000561919062001e4c565b50604082015181600201908162000579919062001e4c565b50606082015181600301908162000591919062001e4c565b506080820151816004019081620005a9919062001e4c565b5050506040820151816006015560608201518160070160006101000a81548173ffffffffffffffffffffffffffffffffffffffff021916908373ffffffffffffffffffffffffffffffffffffffff1602179055506080820151816008015560a08201518160090160006101000a81548160ff02191690836005811115620006355762000634620018e8565b5b021790555060c082015181600a0160008201518160000160006101000a81548160ff02191690831515021790555060208201518160000160016101000a81548160ff021916908315150217905550505090505060003033836040516200069b90620011e2565b620006a993929190620020e0565b604051809103906000f080158015620006c6573d6000803e3d6000fd5b509050600260003373ffffffffffffffffffffffffffffffffffffffff1673ffffffffffffffffffffffffffffffffffffffff168152602001908152602001600020819080600181540180825580915050600190039060005260206000200160009091909190916101000a81548173ffffffffffffffffffffffffffffffffffffffff021916908373ffffffffffffffffffffffffffffffffffffffff16021790555080600460008373ffffffffffffffffffffffffffffffffffffffff1673ffffffffffffffffffffffffffffffffffffffff16815260200190815260200160002060006101000a81548173ffffffffffffffffffffffffffffffffffffffff021916908373ffffffffffffffffffffffffffffffffffffffff1602179055506005543373ffffffffffffffffffffffffffffffffffffffff168273ffffffffffffffffffffffffffffffffffffffff167f91d75d4b2ab17d1d6c199e6d71ca0ae67243b6b0f9dab06621d92da487899e1e60405160405180910390a4809250505062000853620011d8565b919050565b60055481565b600160009054906101000a900473ffffffffffffffffffffffffffffffffffffffff1673ffffffffffffffffffffffffffffffffffffffff163373ffffffffffffffffffffffffffffffffffffffff1614620008f1576040517f08c379a0000000000000000000000000000000000000000000000000000000008152600401620008e89062001ac4565b60405180910390fd5b620008fb62001186565b600073ffffffffffffffffffffffffffffffffffffffff168173ffffffffffffffffffffffffffffffffffffffff16036200096d576040517f08c379a0000000000000000000000000000000000000000000000000000000008152600401620009649062002174565b60405180910390fd5b600081905060008060008060008060008773ffffffffffffffffffffffffffffffffffffffff16635cfbeb776040518163ffffffff1660e01b8152600401600060405180830381865afa158015620009c9573d6000803e3d6000fd5b505050506040513d6000823e3d601f19601f82011682018060405250810190620009f4919062002444565b96509650965096509650965096506004600581111562000a195762000a18620018e8565b5b82600581111562000a2f5762000a2e620018e8565b5b1462000a72576040517f08c379a000000000000000000000000000000000000000000000000000000000815260040162000a699062002567565b60405180910390fd5b60011515816000015115151462000ac0576040517f08c379a000000000000000000000000000000000000000000000000000000000815260040162000ab790620025ff565b60405180910390fd5b60011515816020015115151462000b0e576040517f08c379a000000000000000000000000000000000000000000000000000000000815260040162000b059062002671565b60405180910390fd5b87600460008b73ffffffffffffffffffffffffffffffffffffffff1673ffffffffffffffffffffffffffffffffffffffff16815260200190815260200160002060006101000a81548173ffffffffffffffffffffffffffffffffffffffff021916908373ffffffffffffffffffffffffffffffffffffffff16021790555060008873ffffffffffffffffffffffffffffffffffffffff1663dfa0cfb36040518163ffffffff1660e01b81526004016020604051808303816000875af115801562000bdc573d6000803e3d6000fd5b505050506040513d601f19601f8201168201806040525081019062000c02919062002693565b90508062000c47576040517f08c379a000000000000000000000000000000000000000000000000000000000815260040162000c3e906200273b565b60405180910390fd5b60008973ffffffffffffffffffffffffffffffffffffffff166391f901576040518163ffffffff1660e01b8152600401602060405180830381865afa15801562000c95573d6000803e3d6000fd5b505050506040513d601f19601f8201168201806040525081019062000cbb919062002774565b905060008a73ffffffffffffffffffffffffffffffffffffffff1663d57bde796040518163ffffffff1660e01b8152600401602060405180830381865afa15801562000d0b573d6000803e3d6000fd5b505050506040513d601f19601f8201168201806040525081019062000d319190620027a6565b90508673ffffffffffffffffffffffffffffffffffffffff168273ffffffffffffffffffffffffffffffffffffffff168c73ffffffffffffffffffffffffffffffffffffffff167fe4325c1fdcbe82bc58d54e4c6d17476405e2bcbcd7b84a6431913f9e18d6d67e848e60405162000dab929190620027d8565b60405180910390a4505050505050505050505062000dc8620011d8565b50565b6003602052806000526040600020600091509050806000015490806001016040518060a001604052908160008201805462000e069062001c4f565b80601f016020809104026020016040519081016040528092919081815260200182805462000e349062001c4f565b801562000e855780601f1062000e595761010080835404028352916020019162000e85565b820191906000526020600020905b81548152906001019060200180831162000e6757829003601f168201915b5050505050815260200160018201805462000ea09062001c4f565b80601f016020809104026020016040519081016040528092919081815260200182805462000ece9062001c4f565b801562000f1f5780601f1062000ef35761010080835404028352916020019162000f1f565b820191906000526020600020905b81548152906001019060200180831162000f0157829003601f168201915b5050505050815260200160028201805462000f3a9062001c4f565b80601f016020809104026020016040519081016040528092919081815260200182805462000f689062001c4f565b801562000fb95780601f1062000f8d5761010080835404028352916020019162000fb9565b820191906000526020600020905b81548152906001019060200180831162000f9b57829003601f168201915b5050505050815260200160038201805462000fd49062001c4f565b80601f0160208091040260200160405190810160405280929190818152602001828054620010029062001c4f565b8015620010535780601f10620010275761010080835404028352916020019162001053565b820191906000526020600020905b8154815290600101906020018083116200103557829003601f168201915b505050505081526020016004820180546200106e9062001c4f565b80601f01602080910402602001604051908101604052809291908181526020018280546200109c9062001c4f565b8015620010ed5780601f10620010c157610100808354040283529160200191620010ed565b820191906000526020600020905b815481529060010190602001808311620010cf57829003601f168201915b505050505081525050908060060154908060070160009054906101000a900473ffffffffffffffffffffffffffffffffffffffff16908060080154908060090160009054906101000a900460ff169080600a016040518060400160405290816000820160009054906101000a900460ff161515151581526020016000820160019054906101000a900460ff161515151581525050905087565b600260005403620011ce576040517f08c379a0000000000000000000000000000000000000000000000000000000008152600401620011c59062002855565b60405180910390fd5b6002600081905550565b6001600081905550565b613834806200287883390190565b6000604051905090565b600080fd5b600080fd5b600073ffffffffffffffffffffffffffffffffffffffff82169050919050565b6000620012318262001204565b9050919050565b620012438162001224565b81146200124f57600080fd5b50565b600081359050620012638162001238565b92915050565b6000819050919050565b6200127e8162001269565b81146200128a57600080fd5b50565b6000813590506200129e8162001273565b92915050565b60008060408385031215620012be57620012bd620011fa565b5b6000620012ce8582860162001252565b9250506020620012e1858286016200128d565b9150509250929050565b620012f68162001224565b82525050565b6000602082019050620013136000830184620012eb565b92915050565b600060208284031215620013325762001331620011fa565b5b6000620013428482850162001252565b91505092915050565b6000819050919050565b600062001376620013706200136a8462001204565b6200134b565b62001204565b9050919050565b60006200138a8262001355565b9050919050565b60006200139e826200137d565b9050919050565b620013b08162001391565b82525050565b6000602082019050620013cd6000830184620013a5565b92915050565b600080fd5b6000601f19601f8301169050919050565b7f4e487b7100000000000000000000000000000000000000000000000000000000600052604160045260246000fd5b6200142382620013d8565b810181811067ffffffffffffffff82111715620014455762001444620013e9565b5b80604052505050565b60006200145a620011f0565b905062001468828262001418565b919050565b600080fd5b600080fd5b600080fd5b600067ffffffffffffffff8211156200149a5762001499620013e9565b5b620014a582620013d8565b9050602081019050919050565b82818337600083830152505050565b6000620014d8620014d2846200147c565b6200144e565b905082815260208101848484011115620014f757620014f662001477565b5b62001504848285620014b2565b509392505050565b600082601f83011262001524576200152362001472565b5b813562001536848260208601620014c1565b91505092915050565b600060a08284031215620015585762001557620013d3565b5b6200156460a06200144e565b9050600082013567ffffffffffffffff8111156200158757620015866200146d565b5b62001595848285016200150c565b600083015250602082013567ffffffffffffffff811115620015bc57620015bb6200146d565b5b620015ca848285016200150c565b602083015250604082013567ffffffffffffffff811115620015f157620015f06200146d565b5b620015ff848285016200150c565b604083015250606082013567ffffffffffffffff8111156200162657620016256200146d565b5b62001634848285016200150c565b606083015250608082013567ffffffffffffffff8111156200165b576200165a6200146d565b5b62001669848285016200150c565b60808301525092915050565b6000604082840312156200168e576200168d620013d3565b5b6200169a60406200144e565b9050600082013567ffffffffffffffff811115620016bd57620016bc6200146d565b5b620016cb848285016200153f565b6000830152506020620016e1848285016200128d565b60208301525092915050565b600060208284031215620017065762001705620011fa565b5b600082013567ffffffffffffffff811115620017275762001726620011ff565b5b620017358482850162001675565b91505092915050565b620017498162001269565b82525050565b60006020820190506200176660008301846200173e565b92915050565b600060208284031215620017855762001784620011fa565b5b600062001795848285016200128d565b91505092915050565b600081519050919050565b600082825260208201905092915050565b60005b83811015620017da578082015181840152602081019050620017bd565b60008484015250505050565b6000620017f3826200179e565b620017ff8185620017a9565b935062001811818560208601620017ba565b6200181c81620013d8565b840191505092915050565b600060a0830160008301518482036000860152620018468282620017e6565b91505060208301518482036020860152620018628282620017e6565b915050604083015184820360408601526200187e8282620017e6565b915050606083015184820360608601526200189a8282620017e6565b91505060808301518482036080860152620018b68282620017e6565b9150508091505092915050565b6000620018d08262001204565b9050919050565b620018e281620018c3565b82525050565b7f4e487b7100000000000000000000000000000000000000000000000000000000600052602160045260246000fd5b600681106200192b576200192a620018e8565b5b50565b60008190506200193e8262001917565b919050565b600062001950826200192e565b9050919050565b620019628162001943565b82525050565b60008115159050919050565b6200197f8162001968565b82525050565b6040820160008201516200199d600085018262001974565b506020820151620019b2602085018262001974565b50505050565b600061010082019050620019d0600083018a6200173e565b8181036020830152620019e4818962001827565b9050620019f560408301886200173e565b62001a046060830187620018d7565b62001a1360808301866200173e565b62001a2260a083018562001957565b62001a3160c083018462001985565b98975050505050505050565b600082825260208201905092915050565b7f4f6e6c7920636f6e74726f6c6c65722063616e2063616c6c207468697320667560008201527f6e6374696f6e0000000000000000000000000000000000000000000000000000602082015250565b600062001aac60268362001a3d565b915062001ab98262001a4e565b604082019050919050565b6000602082019050818103600083015262001adf8162001a9d565b9050919050565b600081905092915050565b50565b600062001b0360008362001ae6565b915062001b108262001af1565b600082019050919050565b600062001b288262001af4565b9150819050919050565b7f5472616e73666572206661696c65642e00000000000000000000000000000000600082015250565b600062001b6a60108362001a3d565b915062001b778262001b32565b602082019050919050565b6000602082019050818103600083015262001b9d8162001b5b565b9050919050565b7f4e487b7100000000000000000000000000000000000000000000000000000000600052601160045260246000fd5b600062001be08262001269565b91507fffffffffffffffffffffffffffffffffffffffffffffffffffffffffffffffff820362001c155762001c1462001ba4565b5b600182019050919050565b7f4e487b7100000000000000000000000000000000000000000000000000000000600052602260045260246000fd5b6000600282049050600182168062001c6857607f821691505b60208210810362001c7e5762001c7d62001c20565b5b50919050565b60008190508160005260206000209050919050565b60006020601f8301049050919050565b600082821b905092915050565b60006008830262001ce87fffffffffffffffffffffffffffffffffffffffffffffffffffffffffffffffff8262001ca9565b62001cf4868362001ca9565b95508019841693508086168417925050509392505050565b600062001d2d62001d2762001d218462001269565b6200134b565b62001269565b9050919050565b6000819050919050565b62001d498362001d0c565b62001d6162001d588262001d34565b84845462001cb6565b825550505050565b600090565b62001d7862001d69565b62001d8581848462001d3e565b505050565b5b8181101562001dad5762001da160008262001d6e565b60018101905062001d8b565b5050565b601f82111562001dfc5762001dc68162001c84565b62001dd18462001c99565b8101602085101562001de1578190505b62001df962001df08562001c99565b83018262001d8a565b50505b505050565b600082821c905092915050565b600062001e216000198460080262001e01565b1980831691505092915050565b600062001e3c838362001e0e565b9150826002028217905092915050565b62001e57826200179e565b67ffffffffffffffff81111562001e735762001e72620013e9565b5b62001e7f825462001c4f565b62001e8c82828562001db1565b600060209050601f83116001811462001ec4576000841562001eaf578287015190505b62001ebb858262001e2e565b86555062001f2b565b601f19841662001ed48662001c84565b60005b8281101562001efe5784890151825560018201915060208501945060208101905062001ed7565b8683101562001f1e578489015162001f1a601f89168262001e0e565b8355505b6001600288020188555050505b505050505050565b62001f3e8162001269565b82525050565b600060a083016000830151848203600086015262001f638282620017e6565b9150506020830151848203602086015262001f7f8282620017e6565b9150506040830151848203604086015262001f9b8282620017e6565b9150506060830151848203606086015262001fb78282620017e6565b9150506080830151848203608086015262001fd38282620017e6565b9150508091505092915050565b62001feb81620018c3565b82525050565b62001ffc8162001943565b82525050565b6040820160008201516200201a600085018262001974565b5060208201516200202f602085018262001974565b50505050565b60006101008301600083015162002050600086018262001f33565b50602083015184820360208601526200206a828262001f44565b915050604083015162002081604086018262001f33565b50606083015162002096606086018262001fe0565b506080830151620020ab608086018262001f33565b5060a0830151620020c060a086018262001ff1565b5060c0830151620020d560c086018262002002565b508091505092915050565b6000606082019050620020f76000830186620012eb565b620021066020830185620012eb565b81810360408301526200211a818462002035565b9050949350505050565b7f50726f706572747920646f6573206e6f74206578697374000000000000000000600082015250565b60006200215c60178362001a3d565b9150620021698262002124565b602082019050919050565b600060208201905081810360008301526200218f816200214d565b9050919050565b600081519050620021a78162001273565b92915050565b6000620021c4620021be846200147c565b6200144e565b905082815260208101848484011115620021e357620021e262001477565b5b620021f0848285620017ba565b509392505050565b600082601f83011262002210576200220f62001472565b5b815162002222848260208601620021ad565b91505092915050565b600060a08284031215620022445762002243620013d3565b5b6200225060a06200144e565b9050600082015167ffffffffffffffff8111156200227357620022726200146d565b5b6200228184828501620021f8565b600083015250602082015167ffffffffffffffff811115620022a857620022a76200146d565b5b620022b684828501620021f8565b602083015250604082015167ffffffffffffffff811115620022dd57620022dc6200146d565b5b620022eb84828501620021f8565b604083015250606082015167ffffffffffffffff8111156200231257620023116200146d565b5b6200232084828501620021f8565b606083015250608082015167ffffffffffffffff8111156200234757620023466200146d565b5b6200235584828501620021f8565b60808301525092915050565b6200236c81620018c3565b81146200237857600080fd5b50565b6000815190506200238c8162002361565b92915050565b60068110620023a057600080fd5b50565b600081519050620023b48162002392565b92915050565b620023c58162001968565b8114620023d157600080fd5b50565b600081519050620023e581620023ba565b92915050565b600060408284031215620024045762002403620013d3565b5b6200241060406200144e565b905060006200242284828501620023d4565b60008301525060206200243884828501620023d4565b60208301525092915050565b6000806000806000806000610100888a031215620024675762002466620011fa565b5b6000620024778a828b0162002196565b975050602088015167ffffffffffffffff8111156200249b576200249a620011ff565b5b620024a98a828b016200222b565b9650506040620024bc8a828b0162002196565b9550506060620024cf8a828b016200237b565b9450506080620024e28a828b0162002196565b93505060a0620024f58a828b01620023a3565b92505060c0620025088a828b01620023eb565b91505092959891949750929550565b7f50726f7065727479206973206e6f7420536f6c64000000000000000000000000600082015250565b60006200254f60148362001a3d565b91506200255c8262002517565b602082019050919050565b60006020820190508181036000830152620025828162002540565b9050919050565b7f53656c6c657220686173206e6f7420616363657074656420746865206f66666560008201527f7200000000000000000000000000000000000000000000000000000000000000602082015250565b6000620025e760218362001a3d565b9150620025f48262002589565b604082019050919050565b600060208201905081810360008301526200261a81620025d8565b9050919050565b7f427579657220686173206e6f7420616363657074656420746865206f66666572600082015250565b60006200265960208362001a3d565b9150620026668262002621565b602082019050919050565b600060208201905081810360008301526200268c816200264a565b9050919050565b600060208284031215620026ac57620026ab620011fa565b5b6000620026bc84828501620023d4565b91505092915050565b7f50726f7065727479206f776e657273686970207472616e73666572206661696c60008201527f6564000000000000000000000000000000000000000000000000000000000000602082015250565b60006200272360228362001a3d565b91506200273082620026c5565b604082019050919050565b60006020820190508181036000830152620027568162002714565b9050919050565b6000815190506200276e8162001238565b92915050565b6000602082840312156200278d576200278c620011fa565b5b60006200279d848285016200275d565b91505092915050565b600060208284031215620027bf57620027be620011fa565b5b6000620027cf8482850162002196565b91505092915050565b6000604082019050620027ef60008301856200173e565b620027fe60208301846200173e565b9392505050565b7f5265656e7472616e637947756172643a207265656e7472616e742063616c6c00600082015250565b60006200283d601f8362001a3d565b91506200284a8262002805565b602082019050919050565b6000602082019050818103600083015262002870816200282e565b905091905056fe60806040523480156200001157600080fd5b50604051620038343803806200383483398181016040528101906200003791906200079a565b600160008190555082600160006101000a81548173ffffffffffffffffffffffffffffffffffffffff021916908373ffffffffffffffffffffffffffffffffffffffff160217905550806002600082015181600001556020820151816001016000820151816000019081620000ad919062000a56565b506020820151816001019081620000c5919062000a56565b506040820151816002019081620000dd919062000a56565b506060820151816003019081620000f5919062000a56565b5060808201518160040190816200010d919062000a56565b5050506040820151816006015560608201518160070160006101000a81548173ffffffffffffffffffffffffffffffffffffffff021916908373ffffffffffffffffffffffffffffffffffffffff1602179055506080820151816008015560a08201518160090160006101000a81548160ff0219169083600581111562000199576200019862000b3d565b5b021790555060c082015181600a0160008201518160000160006101000a81548160ff02191690831515021790555060208201518160000160016101000a81548160ff021916908315150217905550505090505081600d60006101000a81548173ffffffffffffffffffffffffffffffffffffffff021916908373ffffffffffffffffffffffffffffffffffffffff1602179055504260108190555050505062000b6c565b6000604051905090565b600080fd5b600080fd5b600073ffffffffffffffffffffffffffffffffffffffff82169050919050565b60006200027e8262000251565b9050919050565b620002908162000271565b81146200029c57600080fd5b50565b600081519050620002b08162000285565b92915050565b600080fd5b6000601f19601f8301169050919050565b7f4e487b7100000000000000000000000000000000000000000000000000000000600052604160045260246000fd5b6200030682620002bb565b810181811067ffffffffffffffff82111715620003285762000327620002cc565b5b80604052505050565b60006200033d6200023d565b90506200034b8282620002fb565b919050565b600080fd5b6000819050919050565b6200036a8162000355565b81146200037657600080fd5b50565b6000815190506200038a816200035f565b92915050565b600080fd5b600080fd5b600067ffffffffffffffff821115620003b857620003b7620002cc565b5b620003c382620002bb565b9050602081019050919050565b60005b83811015620003f0578082015181840152602081019050620003d3565b60008484015250505050565b6000620004136200040d846200039a565b62000331565b90508281526020810184848401111562000432576200043162000395565b5b6200043f848285620003d0565b509392505050565b600082601f8301126200045f576200045e62000390565b5b815162000471848260208601620003fc565b91505092915050565b600060a08284031215620004935762000492620002b6565b5b6200049f60a062000331565b9050600082015167ffffffffffffffff811115620004c257620004c162000350565b5b620004d08482850162000447565b600083015250602082015167ffffffffffffffff811115620004f757620004f662000350565b5b620005058482850162000447565b602083015250604082015167ffffffffffffffff8111156200052c576200052b62000350565b5b6200053a8482850162000447565b604083015250606082015167ffffffffffffffff81111562000561576200056062000350565b5b6200056f8482850162000447565b606083015250608082015167ffffffffffffffff81111562000596576200059562000350565b5b620005a48482850162000447565b60808301525092915050565b6000620005bd8262000251565b9050919050565b620005cf81620005b0565b8114620005db57600080fd5b50565b600081519050620005ef81620005c4565b92915050565b600681106200060357600080fd5b50565b6000815190506200061781620005f5565b92915050565b60008115159050919050565b62000634816200061d565b81146200064057600080fd5b50565b600081519050620006548162000629565b92915050565b600060408284031215620006735762000672620002b6565b5b6200067f604062000331565b90506000620006918482850162000643565b6000830152506020620006a78482850162000643565b60208301525092915050565b60006101008284031215620006cd57620006cc620002b6565b5b620006d960e062000331565b90506000620006eb8482850162000379565b600083015250602082015167ffffffffffffffff81111562000712576200071162000350565b5b62000720848285016200047a565b6020830152506040620007368482850162000379565b60408301525060606200074c84828501620005de565b6060830152506080620007628482850162000379565b60808301525060a0620007788482850162000606565b60a08301525060c06200078e848285016200065a565b60c08301525092915050565b600080600060608486031215620007b657620007b562000247565b5b6000620007c6868287016200029f565b9350506020620007d9868287016200029f565b925050604084015167ffffffffffffffff811115620007fd57620007fc6200024c565b5b6200080b86828701620006b3565b9150509250925092565b600081519050919050565b7f4e487b7100000000000000000000000000000000000000000000000000000000600052602260045260246000fd5b600060028204905060018216806200086857607f821691505b6020821081036200087e576200087d62000820565b5b50919050565b60008190508160005260206000209050919050565b60006020601f8301049050919050565b600082821b905092915050565b600060088302620008e87fffffffffffffffffffffffffffffffffffffffffffffffffffffffffffffffff82620008a9565b620008f48683620008a9565b95508019841693508086168417925050509392505050565b6000819050919050565b600062000937620009316200092b8462000355565b6200090c565b62000355565b9050919050565b6000819050919050565b620009538362000916565b6200096b62000962826200093e565b848454620008b6565b825550505050565b600090565b6200098262000973565b6200098f81848462000948565b505050565b5b81811015620009b757620009ab60008262000978565b60018101905062000995565b5050565b601f82111562000a0657620009d08162000884565b620009db8462000899565b81016020851015620009eb578190505b62000a03620009fa8562000899565b83018262000994565b50505b505050565b600082821c905092915050565b600062000a2b6000198460080262000a0b565b1980831691505092915050565b600062000a46838362000a18565b9150826002028217905092915050565b62000a618262000815565b67ffffffffffffffff81111562000a7d5762000a7c620002cc565b5b62000a8982546200084f565b62000a96828285620009bb565b600060209050601f83116001811462000ace576000841562000ab9578287015190505b62000ac5858262000a38565b86555062000b35565b601f19841662000ade8662000884565b60005b8281101562000b085784890151825560018201915060208501945060208101905062000ae1565b8683101562000b28578489015162000b24601f89168262000a18565b8355505b6001600288020188555050505b505050505050565b7f4e487b7100000000000000000000000000000000000000000000000000000000600052602160045260246000fd5b612cb88062000b7c6000396000f3fe6080604052600436106100fe5760003560e01c80636def454211610095578063d57bde7911610064578063d57bde79146102c3578063dfa0cfb3146102ee578063e52a787414610319578063eb7f5f9814610330578063f446c38f14610347576100fe565b80636def45421461022657806391f9015714610242578063c45a01551461026d578063d015b9dd14610298576100fe565b80633e3581a7116100d15780633e3581a7146101ab578063454a2ab3146101c25780635cfbeb77146101eb578063657a5e031461021c576100fe565b806315bc0eb31461010357806326232a2e1461012c578063325a19f1146101575780633552fac914610182575b600080fd5b34801561010f57600080fd5b5061012a60048036038101906101259190611c81565b610372565b005b34801561013857600080fd5b506101416105db565b60405161014e9190611cbd565b60405180910390f35b34801561016357600080fd5b5061016c6105e0565b6040516101799190611cbd565b60405180910390f35b34801561018e57600080fd5b506101a960048036038101906101a49190611d36565b6105e6565b005b3480156101b757600080fd5b506101c0610743565b005b3480156101ce57600080fd5b506101e960048036038101906101e49190611c81565b6108d1565b005b3480156101f757600080fd5b50610200610b3a565b6040516102139796959493929190611f67565b60405180910390f35b610224610ebb565b005b610240600480360381019061023b9190611c81565b6110cb565b005b34801561024e57600080fd5b506102576112dc565b6040516102649190611fed565b60405180910390f35b34801561027957600080fd5b50610282611302565b60405161028f9190612067565b60405180910390f35b3480156102a457600080fd5b506102ad611328565b6040516102ba9190611cbd565b60405180910390f35b3480156102cf57600080fd5b506102d861132d565b6040516102e59190611cbd565b60405180910390f35b3480156102fa57600080fd5b50610303611333565b6040516103109190612091565b60405180910390f35b34801561032557600080fd5b5061032e611617565b005b34801561033c57600080fd5b506103456117c5565b005b34801561035357600080fd5b5061035c6119b8565b6040516103699190611fed565b60405180910390f35b61037a6119de565b6003600581111561038e5761038d611ea6565b5b600260090160009054906101000a900460ff1660058111156103b3576103b2611ea6565b5b146103f3576040517f08c379a00000000000000000000000000000000000000000000000000000000081526004016103ea9061212f565b60405180910390fd5b3373ffffffffffffffffffffffffffffffffffffffff16600f60009054906101000a900473ffffffffffffffffffffffffffffffffffffffff1673ffffffffffffffffffffffffffffffffffffffff1603610483576040517f08c379a000000000000000000000000000000000000000000000000000000000815260040161047a9061219b565b60405180910390fd5b600e5481116104c7576040517f08c379a00000000000000000000000000000000000000000000000000000000081526004016104be9061222d565b60405180910390fd5b3373ffffffffffffffffffffffffffffffffffffffff16600260070160009054906101000a900473ffffffffffffffffffffffffffffffffffffffff1673ffffffffffffffffffffffffffffffffffffffff160361055a576040517f08c379a0000000000000000000000000000000000000000000000000000000008152600401610551906122bf565b60405180910390fd5b80600e8190555033600f60006101000a81548173ffffffffffffffffffffffffffffffffffffffff021916908373ffffffffffffffffffffffffffffffffffffffff1602179055506001600260090160006101000a81548160ff021916908360058111156105cb576105ca611ea6565b5b02179055506105d8611a2d565b50565b600181565b60105481565b600d60009054906101000a900473ffffffffffffffffffffffffffffffffffffffff1673ffffffffffffffffffffffffffffffffffffffff163373ffffffffffffffffffffffffffffffffffffffff1614610676576040517f08c379a000000000000000000000000000000000000000000000000000000000815260040161066d90612351565b60405180910390fd5b61067e6119de565b6004600581111561069257610691611ea6565b5b600260090160009054906101000a900460ff1660058111156106b7576106b6611ea6565b5b036106f7576040517f08c379a00000000000000000000000000000000000000000000000000000000081526004016106ee906123bd565b60405180910390fd5b80600d60006101000a81548173ffffffffffffffffffffffffffffffffffffffff021916908373ffffffffffffffffffffffffffffffffffffffff160217905550610740611a2d565b50565b600d60009054906101000a900473ffffffffffffffffffffffffffffffffffffffff1673ffffffffffffffffffffffffffffffffffffffff163373ffffffffffffffffffffffffffffffffffffffff16146107d3576040517f08c379a00000000000000000000000000000000000000000000000000000000081526004016107ca90612351565b60405180910390fd5b6107db6119de565b600160058111156107ef576107ee611ea6565b5b600260090160009054906101000a900460ff16600581111561081457610813611ea6565b5b14610854576040517f08c379a000000000000000000000000000000000000000000000000000000000815260040161084b90612429565b60405180910390fd5b6000600e5411610899576040517f08c379a000000000000000000000000000000000000000000000000000000000815260040161089090612495565b60405180910390fd5b6003600260090160006101000a81548160ff021916908360058111156108c2576108c1611ea6565b5b02179055506108cf611a2d565b565b6108d96119de565b600060058111156108ed576108ec611ea6565b5b600260090160009054906101000a900460ff16600581111561091257610911611ea6565b5b14610952576040517f08c379a000000000000000000000000000000000000000000000000000000000815260040161094990612429565b60405180910390fd5b3373ffffffffffffffffffffffffffffffffffffffff16600f60009054906101000a900473ffffffffffffffffffffffffffffffffffffffff1673ffffffffffffffffffffffffffffffffffffffff16036109e2576040517f08c379a00000000000000000000000000000000000000000000000000000000081526004016109d99061219b565b60405180910390fd5b600e548111610a26576040517f08c379a0000000000000000000000000000000000000000000000000000000008152600401610a1d9061222d565b60405180910390fd5b3373ffffffffffffffffffffffffffffffffffffffff16600260070160009054906101000a900473ffffffffffffffffffffffffffffffffffffffff1673ffffffffffffffffffffffffffffffffffffffff1603610ab9576040517f08c379a0000000000000000000000000000000000000000000000000000000008152600401610ab0906122bf565b60405180910390fd5b80600e8190555033600f60006101000a81548173ffffffffffffffffffffffffffffffffffffffff021916908373ffffffffffffffffffffffffffffffffffffffff1602179055506001600260090160006101000a81548160ff02191690836005811115610b2a57610b29611ea6565b5b0217905550610b37611a2d565b50565b6002806000015490806001016040518060a0016040529081600082018054610b61906124e4565b80601f0160208091040260200160405190810160405280929190818152602001828054610b8d906124e4565b8015610bda5780601f10610baf57610100808354040283529160200191610bda565b820191906000526020600020905b815481529060010190602001808311610bbd57829003601f168201915b50505050508152602001600182018054610bf3906124e4565b80601f0160208091040260200160405190810160405280929190818152602001828054610c1f906124e4565b8015610c6c5780601f10610c4157610100808354040283529160200191610c6c565b820191906000526020600020905b815481529060010190602001808311610c4f57829003601f168201915b50505050508152602001600282018054610c85906124e4565b80601f0160208091040260200160405190810160405280929190818152602001828054610cb1906124e4565b8015610cfe5780601f10610cd357610100808354040283529160200191610cfe565b820191906000526020600020905b815481529060010190602001808311610ce157829003601f168201915b50505050508152602001600382018054610d17906124e4565b80601f0160208091040260200160405190810160405280929190818152602001828054610d43906124e4565b8015610d905780601f10610d6557610100808354040283529160200191610d90565b820191906000526020600020905b815481529060010190602001808311610d7357829003601f168201915b50505050508152602001600482018054610da9906124e4565b80601f0160208091040260200160405190810160405280929190818152602001828054610dd5906124e4565b8015610e225780601f10610df757610100808354040283529160200191610e22565b820191906000526020600020905b815481529060010190602001808311610e0557829003601f168201915b505050505081525050908060060154908060070160009054906101000a900473ffffffffffffffffffffffffffffffffffffffff16908060080154908060090160009054906101000a900460ff169080600a016040518060400160405290816000820160009054906101000a900460ff161515151581526020016000820160019054906101000a900460ff161515151581525050905087565b600f60009054906101000a900473ffffffffffffffffffffffffffffffffffffffff1673ffffffffffffffffffffffffffffffffffffffff163373ffffffffffffffffffffffffffffffffffffffff1614610f4b576040517f08c379a0000000000000000000000000000000000000000000000000000000008152600401610f4290612587565b60405180910390fd5b610f536119de565b60026005811115610f6757610f66611ea6565b5b600260090160009054906101000a900460ff166005811115610f8c57610f8b611ea6565b5b14610fcc576040517f08c379a0000000000000000000000000000000000000000000000000000000008152600401610fc3906125f3565b60405180910390fd5b600f60009054906101000a900473ffffffffffffffffffffffffffffffffffffffff1673ffffffffffffffffffffffffffffffffffffffff163373ffffffffffffffffffffffffffffffffffffffff161461105c576040517f08c379a000000000000000000000000000000000000000000000000000000000815260040161105390612685565b60405180910390fd5b600e5434146110a0576040517f08c379a0000000000000000000000000000000000000000000000000000000008152600401611097906126f1565b60405180910390fd5b60016002600a0160000160016101000a81548160ff0219169083151502179055506110c9611a2d565b565b600f60009054906101000a900473ffffffffffffffffffffffffffffffffffffffff1673ffffffffffffffffffffffffffffffffffffffff163373ffffffffffffffffffffffffffffffffffffffff161461115b576040517f08c379a000000000000000000000000000000000000000000000000000000000815260040161115290612587565b60405180910390fd5b6111636119de565b6002600581111561117757611176611ea6565b5b600260090160009054906101000a900460ff16600581111561119c5761119b611ea6565b5b146111dc576040517f08c379a00000000000000000000000000000000000000000000000000000000081526004016111d3906125f3565b60405180910390fd5b600f60009054906101000a900473ffffffffffffffffffffffffffffffffffffffff1673ffffffffffffffffffffffffffffffffffffffff163373ffffffffffffffffffffffffffffffffffffffff161461126c576040517f08c379a000000000000000000000000000000000000000000000000000000000815260040161126390612685565b60405180910390fd5b600e5434146112b0576040517f08c379a00000000000000000000000000000000000000000000000000000000081526004016112a7906126f1565b60405180910390fd5b60016002600a0160000160016101000a81548160ff0219169083151502179055506112d9611a2d565b50565b600f60009054906101000a900473ffffffffffffffffffffffffffffffffffffffff1681565b600160009054906101000a900473ffffffffffffffffffffffffffffffffffffffff1681565b600181565b600e5481565b6000600160009054906101000a900473ffffffffffffffffffffffffffffffffffffffff1673ffffffffffffffffffffffffffffffffffffffff163373ffffffffffffffffffffffffffffffffffffffff16146113c5576040517f08c379a00000000000000000000000000000000000000000000000000000000081526004016113bc90612783565b60405180910390fd5b6113cd6119de565b600460058111156113e1576113e0611ea6565b5b600260090160009054906101000a900460ff16600581111561140657611405611ea6565b5b14611446576040517f08c379a000000000000000000000000000000000000000000000000000000000815260040161143d906127ef565b60405180910390fd5b60004790506000811161148e576040517f08c379a00000000000000000000000000000000000000000000000000000000081526004016114859061285b565b60405180910390fd5b600f60009054906101000a900473ffffffffffffffffffffffffffffffffffffffff16600d60006101000a81548173ffffffffffffffffffffffffffffffffffffffff021916908373ffffffffffffffffffffffffffffffffffffffff1602179055506005600260090160006101000a81548160ff0219169083600581111561151a57611519611ea6565b5b021790555061152881611a37565b91508161156a576040517f08c379a0000000000000000000000000000000000000000000000000000000008152600401611561906128c7565b60405180910390fd5b600d60009054906101000a900473ffffffffffffffffffffffffffffffffffffffff1673ffffffffffffffffffffffffffffffffffffffff16600260070160009054906101000a900473ffffffffffffffffffffffffffffffffffffffff1673ffffffffffffffffffffffffffffffffffffffff167f7fd0323aae6d324ceaa61c5e1564b3c3a84d38216da5434d73194ae51f1b6bb260405160405180910390a350611614611a2d565b90565b600d60009054906101000a900473ffffffffffffffffffffffffffffffffffffffff1673ffffffffffffffffffffffffffffffffffffffff163373ffffffffffffffffffffffffffffffffffffffff16146116a7576040517f08c379a000000000000000000000000000000000000000000000000000000000815260040161169e90612351565b60405180910390fd5b6116af6119de565b600160058111156116c3576116c2611ea6565b5b600260090160009054906101000a900460ff1660058111156116e8576116e7611ea6565b5b14611728576040517f08c379a000000000000000000000000000000000000000000000000000000000815260040161171f90612429565b60405180910390fd5b6000600e541161176d576040517f08c379a000000000000000000000000000000000000000000000000000000000815260040161176490612495565b60405180910390fd5b60028060090160006101000a81548160ff0219169083600581111561179557611794611ea6565b5b021790555060016002600a0160000160006101000a81548160ff0219169083151502179055506117c3611a2d565b565b600d60009054906101000a900473ffffffffffffffffffffffffffffffffffffffff1673ffffffffffffffffffffffffffffffffffffffff163373ffffffffffffffffffffffffffffffffffffffff1614611855576040517f08c379a000000000000000000000000000000000000000000000000000000000815260040161184c90612351565b60405180910390fd5b61185d6119de565b6002600581111561187157611870611ea6565b5b600260090160009054906101000a900460ff16600581111561189657611895611ea6565b5b146118d6576040517f08c379a00000000000000000000000000000000000000000000000000000000081526004016118cd906125f3565b60405180910390fd5b6002600a0160000160009054906101000a900460ff1661192b576040517f08c379a000000000000000000000000000000000000000000000000000000000815260040161192290612933565b60405180910390fd5b6002600a0160000160019054906101000a900460ff16611980576040517f08c379a00000000000000000000000000000000000000000000000000000000081526004016119779061299f565b60405180910390fd5b6004600260090160006101000a81548160ff021916908360058111156119a9576119a8611ea6565b5b02179055506119b6611a2d565b565b600d60009054906101000a900473ffffffffffffffffffffffffffffffffffffffff1681565b600260005403611a23576040517f08c379a0000000000000000000000000000000000000000000000000000000008152600401611a1a90612a0b565b60405180910390fd5b6002600081905550565b6001600081905550565b6000806064600184611a499190612a5a565b611a539190612acb565b905060006064600185611a669190612a5a565b611a709190612acb565b905060008183611a809190612afc565b90506000600160009054906101000a900473ffffffffffffffffffffffffffffffffffffffff1673ffffffffffffffffffffffffffffffffffffffff1682604051611aca90612b61565b60006040518083038185875af1925050503d8060008114611b07576040519150601f19603f3d011682016040523d82523d6000602084013e611b0c565b606091505b5050905080611b50576040517f08c379a0000000000000000000000000000000000000000000000000000000008152600401611b4790612bc2565b60405180910390fd5b60008287611b5e9190612be2565b90506000600260070160009054906101000a900473ffffffffffffffffffffffffffffffffffffffff16905060008173ffffffffffffffffffffffffffffffffffffffff1683604051611bb090612b61565b60006040518083038185875af1925050503d8060008114611bed576040519150601f19603f3d011682016040523d82523d6000602084013e611bf2565b606091505b5050905080611c36576040517f08c379a0000000000000000000000000000000000000000000000000000000008152600401611c2d90612c62565b60405180910390fd5b6001975050505050505050919050565b600080fd5b6000819050919050565b611c5e81611c4b565b8114611c6957600080fd5b50565b600081359050611c7b81611c55565b92915050565b600060208284031215611c9757611c96611c46565b5b6000611ca584828501611c6c565b91505092915050565b611cb781611c4b565b82525050565b6000602082019050611cd26000830184611cae565b92915050565b600073ffffffffffffffffffffffffffffffffffffffff82169050919050565b6000611d0382611cd8565b9050919050565b611d1381611cf8565b8114611d1e57600080fd5b50565b600081359050611d3081611d0a565b92915050565b600060208284031215611d4c57611d4b611c46565b5b6000611d5a84828501611d21565b91505092915050565b600081519050919050565b600082825260208201905092915050565b60005b83811015611d9d578082015181840152602081019050611d82565b60008484015250505050565b6000601f19601f8301169050919050565b6000611dc582611d63565b611dcf8185611d6e565b9350611ddf818560208601611d7f565b611de881611da9565b840191505092915050565b600060a0830160008301518482036000860152611e108282611dba565b91505060208301518482036020860152611e2a8282611dba565b91505060408301518482036040860152611e448282611dba565b91505060608301518482036060860152611e5e8282611dba565b91505060808301518482036080860152611e788282611dba565b9150508091505092915050565b6000611e9082611cd8565b9050919050565b611ea081611e85565b82525050565b7f4e487b7100000000000000000000000000000000000000000000000000000000600052602160045260246000fd5b60068110611ee657611ee5611ea6565b5b50565b6000819050611ef782611ed5565b919050565b6000611f0782611ee9565b9050919050565b611f1781611efc565b82525050565b60008115159050919050565b611f3281611f1d565b82525050565b604082016000820151611f4e6000850182611f29565b506020820151611f616020850182611f29565b50505050565b600061010082019050611f7d600083018a611cae565b8181036020830152611f8f8189611df3565b9050611f9e6040830188611cae565b611fab6060830187611e97565b611fb86080830186611cae565b611fc560a0830185611f0e565b611fd260c0830184611f38565b98975050505050505050565b611fe781611cf8565b82525050565b60006020820190506120026000830184611fde565b92915050565b6000819050919050565b600061202d61202861202384611cd8565b612008565b611cd8565b9050919050565b600061203f82612012565b9050919050565b600061205182612034565b9050919050565b61206181612046565b82525050565b600060208201905061207c6000830184612058565b92915050565b61208b81611f1d565b82525050565b60006020820190506120a66000830184612082565b92915050565b600082825260208201905092915050565b7f7365636f6e64426964206e6f7420616c6c6f776564207768656e206f6666657260008201527f206973206e6f742072656a656374656400000000000000000000000000000000602082015250565b60006121196030836120ac565b9150612124826120bd565b604082019050919050565b600060208201905081810360008301526121488161210c565b9050919050565b7f416c726561647920746865206869676865737420626964646572000000000000600082015250565b6000612185601a836120ac565b91506121908261214f565b602082019050919050565b600060208201905081810360008301526121b481612178565b9050919050565b7f42696420616d6f756e74206d7573742062652067726561746572207468616e2060008201527f6869676865737420626964000000000000000000000000000000000000000000602082015250565b6000612217602b836120ac565b9150612222826121bb565b604082019050919050565b600060208201905081810360008301526122468161220a565b9050919050565b7f53656c6c65722063616e6e6f7420626964206f6e207468656972206f776e207060008201527f726f706572747900000000000000000000000000000000000000000000000000602082015250565b60006122a96027836120ac565b91506122b48261224d565b604082019050919050565b600060208201905081810360008301526122d88161229c565b9050919050565b7f4f6e6c792070726f7065727479206f776e65722063616e2063616c6c2074686960008201527f732066756e6374696f6e00000000000000000000000000000000000000000000602082015250565b600061233b602a836120ac565b9150612346826122df565b604082019050919050565b6000602082019050818103600083015261236a8161232e565b9050919050565b7f50726f706572747920697320616c726561647920736f6c640000000000000000600082015250565b60006123a76018836120ac565b91506123b282612371565b602082019050919050565b600060208201905081810360008301526123d68161239a565b9050919050565b7f50726f7065727479206973206e6f74206f70656e20666f722062696464696e67600082015250565b60006124136020836120ac565b915061241e826123dd565b602082019050919050565b6000602082019050818103600083015261244281612406565b9050919050565b7f4e6f20626964732068617665206265656e206d61646500000000000000000000600082015250565b600061247f6016836120ac565b915061248a82612449565b602082019050919050565b600060208201905081810360008301526124ae81612472565b9050919050565b7f4e487b7100000000000000000000000000000000000000000000000000000000600052602260045260246000fd5b600060028204905060018216806124fc57607f821691505b60208210810361250f5761250e6124b5565b5b50919050565b7f4f6e6c792068696768657374206269646465722063616e2063616c6c2074686960008201527f732066756e6374696f6e00000000000000000000000000000000000000000000602082015250565b6000612571602a836120ac565b915061257c82612515565b604082019050919050565b600060208201905081810360008301526125a081612564565b9050919050565b7f426964206e6f7420616363657074656400000000000000000000000000000000600082015250565b60006125dd6010836120ac565b91506125e8826125a7565b602082019050919050565b6000602082019050818103600083015261260c816125d0565b9050919050565b7f4f6e6c792068696768657374206269646465722063616e20616363657074207460008201527f68652073656c6c00000000000000000000000000000000000000000000000000602082015250565b600061266f6027836120ac565b915061267a82612613565b604082019050919050565b6000602082019050818103600083015261269e81612662565b9050919050565b7f496e636f727265637420616d6f756e742073656e740000000000000000000000600082015250565b60006126db6015836120ac565b91506126e6826126a5565b602082019050919050565b6000602082019050818103600083015261270a816126ce565b9050919050565b7f4f6e6c7920666163746f72792063616e2063616c6c20746869732066756e637460008201527f696f6e0000000000000000000000000000000000000000000000000000000000602082015250565b600061276d6023836120ac565b915061277882612711565b604082019050919050565b6000602082019050818103600083015261279c81612760565b9050919050565b7f50726f7065727479206973206e6f7420736f6c64000000000000000000000000600082015250565b60006127d96014836120ac565b91506127e4826127a3565b602082019050919050565b60006020820190508181036000830152612808816127cc565b9050919050565b7f436f6e747261637420686173206e6f2062616c616e6365000000000000000000600082015250565b60006128456017836120ac565b91506128508261280f565b602082019050919050565b6000602082019050818103600083015261287481612838565b9050919050565b7f5472616e736665722070726f70657274792066756e6473206661696c65642e00600082015250565b60006128b1601f836120ac565b91506128bc8261287b565b602082019050919050565b600060208201905081810360008301526128e0816128a4565b9050919050565b7f53656c6c657220686173206e6f74206163636570746564207468652073656c6c600082015250565b600061291d6020836120ac565b9150612928826128e7565b602082019050919050565b6000602082019050818103600083015261294c81612910565b9050919050565b7f427579657220686173206e6f74206163636570746564207468652073656c6c00600082015250565b6000612989601f836120ac565b915061299482612953565b602082019050919050565b600060208201905081810360008301526129b88161297c565b9050919050565b7f5265656e7472616e637947756172643a207265656e7472616e742063616c6c00600082015250565b60006129f5601f836120ac565b9150612a00826129bf565b602082019050919050565b60006020820190508181036000830152612a24816129e8565b9050919050565b7f4e487b7100000000000000000000000000000000000000000000000000000000600052601160045260246000fd5b6000612a6582611c4b565b9150612a7083611c4b565b9250828202612a7e81611c4b565b91508282048414831517612a9557612a94612a2b565b5b5092915050565b7f4e487b7100000000000000000000000000000000000000000000000000000000600052601260045260246000fd5b6000612ad682611c4b565b9150612ae183611c4b565b925082612af157612af0612a9c565b5b828204905092915050565b6000612b0782611c4b565b9150612b1283611c4b565b9250828201905080821115612b2a57612b29612a2b565b5b92915050565b600081905092915050565b50565b6000612b4b600083612b30565b9150612b5682612b3b565b600082019050919050565b6000612b6c82612b3e565b9150819050919050565b7f5472616e736665722066656520746f20666163746f7279206661696c65642e00600082015250565b6000612bac601f836120ac565b9150612bb782612b76565b602082019050919050565b60006020820190508181036000830152612bdb81612b9f565b9050919050565b6000612bed82611c4b565b9150612bf883611c4b565b9250828203905081811115612c1057612c0f612a2b565b5b92915050565b7f5472616e73666572206661696c65642e00000000000000000000000000000000600082015250565b6000612c4c6010836120ac565b9150612c5782612c16565b602082019050919050565b60006020820190508181036000830152612c7b81612c3f565b905091905056fea264697066735822122010869f0ed0c4b432de8388923944aa40926406486bfbad584f8bf3eb54257f0264736f6c63430008110033a2646970667358221220b7db362bd989a830e572bfd6b6ced7c2ab47d4d96f5d1b86ddcae2c164af35eb64736f6c63430008110033",
  "linkReferences": {},
  "deployedLinkReferences": {}
}