{
  "_format": "hh-sol-artifact-1",
  "contractName": "Property",
  "sourceName": "contracts/Property.sol",
  "abi": [
    {
      "inputs": [
        {
          "internalType": "address",
          "name": "_factory",
          "type": "address"
        },
        {
          "internalType": "address",
          "name": "_propertyOwner",
          "type": "address"
        },
        {
          "components": [
            {
              "internalType": "uint256",
              "name": "id",
              "type": "uint256"
            },
            {
              "components": [
                {
                  "internalType": "string",
                  "name": "street",
                  "type": "string"
                },
                {
                  "internalType": "string",
                  "name": "city",
                  "type": "string"
                },
                {
                  "internalType": "string",
                  "name": "state",
                  "type": "string"
                },
                {
                  "internalType": "string",
                  "name": "country",
                  "type": "string"
                },
                {
                  "internalType": "string",
                  "name": "zip",
                  "type": "string"
                }
              ],
              "internalType": "struct Address",
              "name": "addr",
              "type": "tuple"
            },
            {
              "internalType": "uint256",
              "name": "askingPrice",
              "type": "uint256"
            },
            {
              "internalType": "address payable",
              "name": "seller",
              "type": "address"
            },
            {
              "internalType": "uint256",
              "name": "created",
              "type": "uint256"
            },
            {
              "internalType": "enum Status",
              "name": "status",
              "type": "uint8"
            },
            {
              "components": [
                {
                  "internalType": "bool",
                  "name": "sellerAccepted",
                  "type": "bool"
                },
                {
                  "internalType": "bool",
                  "name": "buyerAccepted",
                  "type": "bool"
                }
              ],
              "internalType": "struct OfferStatus",
              "name": "offerStatus",
              "type": "tuple"
            }
          ],
          "internalType": "struct PropertyInfo",
          "name": "property",
          "type": "tuple"
        }
      ],
      "stateMutability": "nonpayable",
      "type": "constructor"
    },
    {
      "anonymous": false,
      "inputs": [
        {
          "indexed": true,
          "internalType": "address",
          "name": "seller",
          "type": "address"
        },
        {
          "indexed": true,
          "internalType": "address",
          "name": "buyer",
          "type": "address"
        }
      ],
      "name": "PropertyOwnerShipTransferred",
      "type": "event"
    },
    {
      "inputs": [],
      "name": "acceptAsBuyer",
      "outputs": [],
      "stateMutability": "payable",
      "type": "function"
    },
    {
      "inputs": [
        {
          "internalType": "uint256",
          "name": "mortgageAmount",
          "type": "uint256"
        }
      ],
      "name": "acceptAsBuyerWithMortgage",
      "outputs": [],
      "stateMutability": "payable",
      "type": "function"
    },
    {
      "inputs": [],
      "name": "acceptBid",
      "outputs": [],
      "stateMutability": "nonpayable",
      "type": "function"
    },
    {
      "inputs": [
        {
          "internalType": "uint256",
          "name": "offer",
          "type": "uint256"
        }
      ],
      "name": "bid",
      "outputs": [],
      "stateMutability": "nonpayable",
      "type": "function"
    },
    {
      "inputs": [
        {
          "internalType": "uint256",
          "name": "offer",
          "type": "uint256"
        }
      ],
      "name": "bidAgain",
      "outputs": [],
      "stateMutability": "nonpayable",
      "type": "function"
    },
    {
      "inputs": [],
      "name": "created",
      "outputs": [
        {
          "internalType": "uint256",
          "name": "",
          "type": "uint256"
        }
      ],
      "stateMutability": "view",
      "type": "function"
    },
    {
      "inputs": [],
      "name": "factory",
      "outputs": [
        {
          "internalType": "contract PropertyFactoryInterface",
          "name": "",
          "type": "address"
        }
      ],
      "stateMutability": "view",
      "type": "function"
    },
    {
      "inputs": [],
      "name": "finalizeSellForProperty",
      "outputs": [],
      "stateMutability": "nonpayable",
      "type": "function"
    },
    {
      "inputs": [],
      "name": "highestBid",
      "outputs": [
        {
          "internalType": "uint256",
          "name": "",
          "type": "uint256"
        }
      ],
      "stateMutability": "view",
      "type": "function"
    },
    {
      "inputs": [],
      "name": "highestBidder",
      "outputs": [
        {
          "internalType": "address",
          "name": "",
          "type": "address"
        }
      ],
      "stateMutability": "view",
      "type": "function"
    },
    {
      "inputs": [],
      "name": "mortgageFee",
      "outputs": [
        {
          "internalType": "uint256",
          "name": "",
          "type": "uint256"
        }
      ],
      "stateMutability": "view",
      "type": "function"
    },
    {
      "inputs": [],
      "name": "platformFee",
      "outputs": [
        {
          "internalType": "uint256",
          "name": "",
          "type": "uint256"
        }
      ],
      "stateMutability": "view",
      "type": "function"
    },
    {
      "inputs": [],
      "name": "propertyInfo",
      "outputs": [
        {
          "internalType": "uint256",
          "name": "id",
          "type": "uint256"
        },
        {
          "components": [
            {
              "internalType": "string",
              "name": "street",
              "type": "string"
            },
            {
              "internalType": "string",
              "name": "city",
              "type": "string"
            },
            {
              "internalType": "string",
              "name": "state",
              "type": "string"
            },
            {
              "internalType": "string",
              "name": "country",
              "type": "string"
            },
            {
              "internalType": "string",
              "name": "zip",
              "type": "string"
            }
          ],
          "internalType": "struct Address",
          "name": "addr",
          "type": "tuple"
        },
        {
          "internalType": "uint256",
          "name": "askingPrice",
          "type": "uint256"
        },
        {
          "internalType": "address payable",
          "name": "seller",
          "type": "address"
        },
        {
          "internalType": "uint256",
          "name": "created",
          "type": "uint256"
        },
        {
          "internalType": "enum Status",
          "name": "status",
          "type": "uint8"
        },
        {
          "components": [
            {
              "internalType": "bool",
              "name": "sellerAccepted",
              "type": "bool"
            },
            {
              "internalType": "bool",
              "name": "buyerAccepted",
              "type": "bool"
            }
          ],
          "internalType": "struct OfferStatus",
          "name": "offerStatus",
          "type": "tuple"
        }
      ],
      "stateMutability": "view",
      "type": "function"
    },
    {
      "inputs": [],
      "name": "propertyOwner",
      "outputs": [
        {
          "internalType": "address",
          "name": "",
          "type": "address"
        }
      ],
      "stateMutability": "view",
      "type": "function"
    },
    {
      "inputs": [],
      "name": "rejectBid",
      "outputs": [],
      "stateMutability": "nonpayable",
      "type": "function"
    },
    {
      "inputs": [],
      "name": "transferPropertyOwnerShip",
      "outputs": [
        {
          "internalType": "bool",
          "name": "success",
          "type": "bool"
        }
      ],
      "stateMutability": "nonpayable",
      "type": "function"
    },
    {
      "inputs": [
        {
          "internalType": "address",
          "name": "_owner",
          "type": "address"
        }
      ],
      "name": "transferPropertyOwnerShipBetweenOwners",
      "outputs": [],
      "stateMutability": "nonpayable",
      "type": "function"
    }
  ],
  "bytecode": "0x60806040523480156200001157600080fd5b5060405162001eeb38038062001eeb833981016040819052620000349162000464565b6001600081905580546001600160a01b0319166001600160a01b0385161790558051600290815560208201518051839291906003908190620000779082620005ed565b50602082015160018201906200008e9082620005ed565b5060408201516002820190620000a59082620005ed565b5060608201516003820190620000bc9082620005ed565b5060808201516004820190620000d39082620005ed565b5050506040820151600682015560608201516007820180546001600160a01b0319166001600160a01b039092169190911790556080820151600882015560a082015160098201805460ff19166001836005811115620001365762000136620006b9565b021790555060c091909101518051600a909201805460209092015161ffff1990921692151561ff001916929092176101009115159190910217905550600d80546001600160a01b0319166001600160a01b03929092169190911790555042601055620006cf565b6001600160a01b0381168114620001b357600080fd5b50565b634e487b7160e01b600052604160045260246000fd5b60405160a081016001600160401b0381118282101715620001f157620001f1620001b6565b60405290565b60405160e081016001600160401b0381118282101715620001f157620001f1620001b6565b604051601f8201601f191681016001600160401b0381118282101715620002475762000247620001b6565b604052919050565b600082601f8301126200026157600080fd5b81516001600160401b038111156200027d576200027d620001b6565b602062000293601f8301601f191682016200021c565b8281528582848701011115620002a857600080fd5b60005b83811015620002c8578581018301518282018401528201620002ab565b506000928101909101919091529392505050565b600060a08284031215620002ef57600080fd5b620002f9620001cc565b82519091506001600160401b03808211156200031457600080fd5b62000322858386016200024f565b835260208401519150808211156200033957600080fd5b62000347858386016200024f565b602084015260408401519150808211156200036157600080fd5b6200036f858386016200024f565b604084015260608401519150808211156200038957600080fd5b62000397858386016200024f565b60608401526080840151915080821115620003b157600080fd5b50620003c0848285016200024f565b60808301525092915050565b8051620003d9816200019d565b919050565b805160068110620003d957600080fd5b80518015158114620003d957600080fd5b6000604082840312156200041257600080fd5b604080519081016001600160401b0381118282101715620004375762000437620001b6565b6040529050806200044883620003ee565b81526200045860208401620003ee565b60208201525092915050565b6000806000606084860312156200047a57600080fd5b835162000487816200019d565b60208501519093506200049a816200019d565b60408501519092506001600160401b0380821115620004b857600080fd5b908501906101008288031215620004ce57600080fd5b620004d8620001f7565b82518152602083015182811115620004ef57600080fd5b620004fd89828601620002dc565b602083015250604083015160408201526200051b60608401620003cc565b6060820152608083015160808201526200053860a08401620003de565b60a08201526200054c8860c08501620003ff565b60c08201528093505050509250925092565b600181811c908216806200057357607f821691505b6020821081036200059457634e487b7160e01b600052602260045260246000fd5b50919050565b601f821115620005e857600081815260208120601f850160051c81016020861015620005c35750805b601f850160051c820191505b81811015620005e457828155600101620005cf565b5050505b505050565b81516001600160401b03811115620006095762000609620001b6565b62000621816200061a84546200055e565b846200059a565b602080601f831160018114620006595760008415620006405750858301515b600019600386901b1c1916600185901b178555620005e4565b600085815260208120601f198616915b828110156200068a5788860151825594840194600190910190840162000669565b5085821015620006a95787850151600019600388901b60f8161c191681555b5050505050600190811b01905550565b634e487b7160e01b600052602160045260246000fd5b61180c80620006df6000396000f3fe60806040526004361061010e5760003560e01c80636def4542116100a5578063d57bde7911610074578063e52a787411610059578063e52a78741461029e578063eb7f5f98146102b3578063f446c38f146102c857600080fd5b8063d57bde7914610263578063dfa0cfb31461027957600080fd5b80636def4542146101f857806391f901571461020b578063c45a015514610243578063d015b9dd1461013557600080fd5b80633e3581a7116100e15780633e3581a714610193578063454a2ab3146101a85780635cfbeb77146101c8578063657a5e03146101f057600080fd5b806315bc0eb31461011357806326232a2e14610135578063325a19f11461015d5780633552fac914610173575b600080fd5b34801561011f57600080fd5b5061013361012e366004611568565b6102e8565b005b34801561014157600080fd5b5061014a600181565b6040519081526020015b60405180910390f35b34801561016957600080fd5b5061014a60105481565b34801561017f57600080fd5b5061013361018e366004611581565b610510565b34801561019f57600080fd5b5061013361061b565b3480156101b457600080fd5b506101336101c3366004611568565b610769565b3480156101d457600080fd5b506101dd6107d7565b604051610154979695949392919061162f565b610133610b18565b610133610206366004611568565b610cba565b34801561021757600080fd5b50600f5461022b906001600160a01b031681565b6040516001600160a01b039091168152602001610154565b34801561024f57600080fd5b5060015461022b906001600160a01b031681565b34801561026f57600080fd5b5061014a600e5481565b34801561028557600080fd5b5061028e610e5c565b6040519015158152602001610154565b3480156102aa57600080fd5b5061013361107e565b3480156102bf57600080fd5b506101336111d6565b3480156102d457600080fd5b50600d5461022b906001600160a01b031681565b6102f0611361565b6003600b5460ff166005811115610309576103096115f7565b146103815760405162461bcd60e51b815260206004820152603060248201527f7365636f6e64426964206e6f7420616c6c6f776564207768656e206f6666657260448201527f206973206e6f742072656a65637465640000000000000000000000000000000060648201526084015b60405180910390fd5b600f54336001600160a01b03909116036103dd5760405162461bcd60e51b815260206004820152601a60248201527f416c7265616479207468652068696768657374206269646465720000000000006044820152606401610378565b600e5481116104545760405162461bcd60e51b815260206004820152602b60248201527f42696420616d6f756e74206d7573742062652067726561746572207468616e2060448201527f68696768657374206269640000000000000000000000000000000000000000006064820152608401610378565b600954336001600160a01b03909116036104d65760405162461bcd60e51b815260206004820152602760248201527f53656c6c65722063616e6e6f7420626964206f6e207468656972206f776e207060448201527f726f7065727479000000000000000000000000000000000000000000000000006064820152608401610378565b600e55600f805473ffffffffffffffffffffffffffffffffffffffff191633179055600b805460ff19166001908117909155600055565b50565b600d546001600160a01b0316331461057d5760405162461bcd60e51b815260206004820152602a60248201527f4f6e6c792070726f7065727479206f776e65722063616e2063616c6c207468696044820152693990333ab731ba34b7b760b11b6064820152608401610378565b610585611361565b6004600b5460ff16600581111561059e5761059e6115f7565b036105eb5760405162461bcd60e51b815260206004820152601860248201527f50726f706572747920697320616c726561647920736f6c6400000000000000006044820152606401610378565b600d805473ffffffffffffffffffffffffffffffffffffffff19166001600160a01b038316179055600160005550565b600d546001600160a01b031633146106885760405162461bcd60e51b815260206004820152602a60248201527f4f6e6c792070726f7065727479206f776e65722063616e2063616c6c207468696044820152693990333ab731ba34b7b760b11b6064820152608401610378565b610690611361565b6001600b5460ff1660058111156106a9576106a96115f7565b146106f65760405162461bcd60e51b815260206004820181905260248201527f50726f7065727479206973206e6f74206f70656e20666f722062696464696e676044820152606401610378565b6000600e54116107485760405162461bcd60e51b815260206004820152601660248201527f4e6f20626964732068617665206265656e206d616465000000000000000000006044820152606401610378565b600b80546003919060ff19166001835b02179055506107676001600055565b565b610771611361565b6000600b5460ff16600581111561078a5761078a6115f7565b146103815760405162461bcd60e51b815260206004820181905260248201527f50726f7065727479206973206e6f74206f70656e20666f722062696464696e676044820152606401610378565b600280546040805160a0810190915260038054929392829082906107fa90611721565b80601f016020809104026020016040519081016040528092919081815260200182805461082690611721565b80156108735780601f1061084857610100808354040283529160200191610873565b820191906000526020600020905b81548152906001019060200180831161085657829003601f168201915b5050505050815260200160018201805461088c90611721565b80601f01602080910402602001604051908101604052809291908181526020018280546108b890611721565b80156109055780601f106108da57610100808354040283529160200191610905565b820191906000526020600020905b8154815290600101906020018083116108e857829003601f168201915b5050505050815260200160028201805461091e90611721565b80601f016020809104026020016040519081016040528092919081815260200182805461094a90611721565b80156109975780601f1061096c57610100808354040283529160200191610997565b820191906000526020600020905b81548152906001019060200180831161097a57829003601f168201915b505050505081526020016003820180546109b090611721565b80601f01602080910402602001604051908101604052809291908181526020018280546109dc90611721565b8015610a295780601f106109fe57610100808354040283529160200191610a29565b820191906000526020600020905b815481529060010190602001808311610a0c57829003601f168201915b50505050508152602001600482018054610a4290611721565b80601f0160208091040260200160405190810160405280929190818152602001828054610a6e90611721565b8015610abb5780601f10610a9057610100808354040283529160200191610abb565b820191906000526020600020905b815481529060010190602001808311610a9e57829003601f168201915b50505091909252505050600682015460078301546008840154600985015460408051808201909152600a9096015460ff81811615158852610100909104811615156020880152949593946001600160a01b03909316939192169087565b600f546001600160a01b03163314610b855760405162461bcd60e51b815260206004820152602a60248201527f4f6e6c792068696768657374206269646465722063616e2063616c6c207468696044820152693990333ab731ba34b7b760b11b6064820152608401610378565b610b8d611361565b6002600b5460ff166005811115610ba657610ba66115f7565b14610be65760405162461bcd60e51b815260206004820152601060248201526f109a59081b9bdd081858d8d95c1d195960821b6044820152606401610378565b600f546001600160a01b03163314610c505760405162461bcd60e51b815260206004820152602760248201527f4f6e6c792068696768657374206269646465722063616e2061636365707420746044820152661a19481cd95b1b60ca1b6064820152608401610378565b600e543414610ca15760405162461bcd60e51b815260206004820152601560248201527f496e636f727265637420616d6f756e742073656e7400000000000000000000006044820152606401610378565b600c805461ff0019166101001790556107676001600055565b600f546001600160a01b03163314610d275760405162461bcd60e51b815260206004820152602a60248201527f4f6e6c792068696768657374206269646465722063616e2063616c6c207468696044820152693990333ab731ba34b7b760b11b6064820152608401610378565b610d2f611361565b6002600b5460ff166005811115610d4857610d486115f7565b14610d885760405162461bcd60e51b815260206004820152601060248201526f109a59081b9bdd081858d8d95c1d195960821b6044820152606401610378565b600f546001600160a01b03163314610df25760405162461bcd60e51b815260206004820152602760248201527f4f6e6c792068696768657374206269646465722063616e2061636365707420746044820152661a19481cd95b1b60ca1b6064820152608401610378565b600e543414610e435760405162461bcd60e51b815260206004820152601560248201527f496e636f727265637420616d6f756e742073656e7400000000000000000000006044820152606401610378565b600c805461ff00191661010017905561050d6001600055565b6001546000906001600160a01b03163314610edf5760405162461bcd60e51b815260206004820152602360248201527f4f6e6c7920666163746f72792063616e2063616c6c20746869732066756e637460448201527f696f6e00000000000000000000000000000000000000000000000000000000006064820152608401610378565b610ee7611361565b6004600b5460ff166005811115610f0057610f006115f7565b14610f4d5760405162461bcd60e51b815260206004820152601460248201527f50726f7065727479206973206e6f7420736f6c640000000000000000000000006044820152606401610378565b4780610f9b5760405162461bcd60e51b815260206004820152601760248201527f436f6e747261637420686173206e6f2062616c616e63650000000000000000006044820152606401610378565b600f54600d80546001600160a01b0390921673ffffffffffffffffffffffffffffffffffffffff19909216919091179055600b805460ff19166005179055610fe2816113ba565b9150816110315760405162461bcd60e51b815260206004820152601f60248201527f5472616e736665722070726f70657274792066756e6473206661696c65642e006044820152606401610378565b600d546009546040516001600160a01b0392831692909116907f7fd0323aae6d324ceaa61c5e1564b3c3a84d38216da5434d73194ae51f1b6bb290600090a35061107b6001600055565b90565b600d546001600160a01b031633146110eb5760405162461bcd60e51b815260206004820152602a60248201527f4f6e6c792070726f7065727479206f776e65722063616e2063616c6c207468696044820152693990333ab731ba34b7b760b11b6064820152608401610378565b6110f3611361565b6001600b5460ff16600581111561110c5761110c6115f7565b146111595760405162461bcd60e51b815260206004820181905260248201527f50726f7065727479206973206e6f74206f70656e20666f722062696464696e676044820152606401610378565b6000600e54116111ab5760405162461bcd60e51b815260206004820152601660248201527f4e6f20626964732068617665206265656e206d616465000000000000000000006044820152606401610378565b600b80546002919060ff19166001830217905550600c805460ff191660011790556107676001600055565b600d546001600160a01b031633146112435760405162461bcd60e51b815260206004820152602a60248201527f4f6e6c792070726f7065727479206f776e65722063616e2063616c6c207468696044820152693990333ab731ba34b7b760b11b6064820152608401610378565b61124b611361565b6002600b5460ff166005811115611264576112646115f7565b146112a45760405162461bcd60e51b815260206004820152601060248201526f109a59081b9bdd081858d8d95c1d195960821b6044820152606401610378565b600c5460ff166112f65760405162461bcd60e51b815260206004820181905260248201527f53656c6c657220686173206e6f74206163636570746564207468652073656c6c6044820152606401610378565b600c54610100900460ff1661134d5760405162461bcd60e51b815260206004820152601f60248201527f427579657220686173206e6f74206163636570746564207468652073656c6c006044820152606401610378565b600b80546004919060ff1916600183610758565b6002600054036113b35760405162461bcd60e51b815260206004820152601f60248201527f5265656e7472616e637947756172643a207265656e7472616e742063616c6c006044820152606401610378565b6002600055565b60008060646113ca600185611771565b6113d4919061178e565b9050600060646113e5600186611771565b6113ef919061178e565b905060006113fd82846117b0565b6001546040519192506000916001600160a01b039091169083908381818185875af1925050503d806000811461144f576040519150601f19603f3d011682016040523d82523d6000602084013e611454565b606091505b50509050806114a55760405162461bcd60e51b815260206004820152601f60248201527f5472616e736665722066656520746f20666163746f7279206661696c65642e006044820152606401610378565b60006114b183886117c3565b6009546040519192506001600160a01b031690600090829084908381818185875af1925050503d8060008114611503576040519150601f19603f3d011682016040523d82523d6000602084013e611508565b606091505b50509050806115595760405162461bcd60e51b815260206004820152601060248201527f5472616e73666572206661696c65642e000000000000000000000000000000006044820152606401610378565b50600198975050505050505050565b60006020828403121561157a57600080fd5b5035919050565b60006020828403121561159357600080fd5b81356001600160a01b03811681146115aa57600080fd5b9392505050565b6000815180845260005b818110156115d7576020818501810151868301820152016115bb565b506000602082860101526020601f19601f83011685010191505092915050565b634e487b7160e01b600052602160045260246000fd5b6006811061162b57634e487b7160e01b600052602160045260246000fd5b9052565b6000610100898352806020840152885160a0828501526116536101a08501826115b1565b915050602089015160ff19808584030161012086015261167383836115b1565b925060408b01519150808584030161014086015261169183836115b1565b925060608b0151915080858403016101608601526116af83836115b1565b925060808b015191508085840301610180860152506116ce82826115b1565b925050508660408301526116ed60608301876001600160a01b03169052565b84608083015261170060a083018561160d565b8251151560c08301526020830151151560e083015298975050505050505050565b600181811c9082168061173557607f821691505b60208210810361175557634e487b7160e01b600052602260045260246000fd5b50919050565b634e487b7160e01b600052601160045260246000fd5b80820281158282048414176117885761178861175b565b92915050565b6000826117ab57634e487b7160e01b600052601260045260246000fd5b500490565b808201808211156117885761178861175b565b818103818111156117885761178861175b56fea2646970667358221220d382db2a71fe5d38a6f537a90f1da872e5720f6e954d11ffebbddf97f7eb632764736f6c63430008110033",
  "linkReferences": {},
  "deployedLinkReferences": {}
}