{
  "_format": "hh-sol-artifact-1",
  "contractName": "Property",
  "sourceName": "contracts/Property.sol",
  "abi": [
    {
      "inputs": [
        {
          "internalType": "address",
          "name": "_factory",
          "type": "address"
        },
        {
          "internalType": "address",
          "name": "_propertyOwner",
          "type": "address"
        },
        {
          "components": [
            {
              "internalType": "uint256",
              "name": "id",
              "type": "uint256"
            },
            {
              "components": [
                {
                  "internalType": "string",
                  "name": "street",
                  "type": "string"
                },
                {
                  "internalType": "string",
                  "name": "city",
                  "type": "string"
                },
                {
                  "internalType": "string",
                  "name": "state",
                  "type": "string"
                },
                {
                  "internalType": "string",
                  "name": "country",
                  "type": "string"
                },
                {
                  "internalType": "string",
                  "name": "zip",
                  "type": "string"
                }
              ],
              "internalType": "struct Address",
              "name": "addr",
              "type": "tuple"
            },
            {
              "internalType": "uint256",
              "name": "askingPrice",
              "type": "uint256"
            },
            {
              "internalType": "address payable",
              "name": "seller",
              "type": "address"
            },
            {
              "internalType": "uint256",
              "name": "created",
              "type": "uint256"
            },
            {
              "internalType": "enum Status",
              "name": "status",
              "type": "uint8"
            },
            {
              "components": [
                {
                  "internalType": "bool",
                  "name": "sellerAccepted",
                  "type": "bool"
                },
                {
                  "internalType": "bool",
                  "name": "buyerAccepted",
                  "type": "bool"
                }
              ],
              "internalType": "struct OfferStatus",
              "name": "offerStatus",
              "type": "tuple"
            }
          ],
          "internalType": "struct PropertyInfo",
          "name": "property",
          "type": "tuple"
        }
      ],
      "stateMutability": "nonpayable",
      "type": "constructor"
    },
    {
      "inputs": [
        {
          "internalType": "uint256",
          "name": "bidOpenTime",
          "type": "uint256"
        }
      ],
      "name": "BiddingNotOpen",
      "type": "error"
    },
    {
      "inputs": [
        {
          "internalType": "uint256",
          "name": "requested",
          "type": "uint256"
        },
        {
          "internalType": "uint256",
          "name": "available",
          "type": "uint256"
        }
      ],
      "name": "NotEnoughBalance",
      "type": "error"
    },
    {
      "anonymous": false,
      "inputs": [
        {
          "indexed": true,
          "internalType": "address",
          "name": "seller",
          "type": "address"
        },
        {
          "indexed": true,
          "internalType": "address",
          "name": "buyer",
          "type": "address"
        }
      ],
      "name": "PropertyOwnerShipTransferred",
      "type": "event"
    },
    {
      "inputs": [],
      "name": "acceptAsBuyer",
      "outputs": [],
      "stateMutability": "payable",
      "type": "function"
    },
    {
      "inputs": [
        {
          "internalType": "uint256",
          "name": "mortgageAmount",
          "type": "uint256"
        }
      ],
      "name": "acceptAsBuyerWithMortgage",
      "outputs": [],
      "stateMutability": "payable",
      "type": "function"
    },
    {
      "inputs": [],
      "name": "acceptBid",
      "outputs": [],
      "stateMutability": "nonpayable",
      "type": "function"
    },
    {
      "inputs": [
        {
          "internalType": "uint256",
          "name": "offer",
          "type": "uint256"
        }
      ],
      "name": "bid",
      "outputs": [],
      "stateMutability": "nonpayable",
      "type": "function"
    },
    {
      "inputs": [
        {
          "internalType": "uint256",
          "name": "offer",
          "type": "uint256"
        }
      ],
      "name": "bidAgain",
      "outputs": [],
      "stateMutability": "nonpayable",
      "type": "function"
    },
    {
      "inputs": [],
      "name": "biddingOpenTime",
      "outputs": [
        {
          "internalType": "uint256",
          "name": "",
          "type": "uint256"
        }
      ],
      "stateMutability": "view",
      "type": "function"
    },
    {
      "inputs": [],
      "name": "created",
      "outputs": [
        {
          "internalType": "uint256",
          "name": "",
          "type": "uint256"
        }
      ],
      "stateMutability": "view",
      "type": "function"
    },
    {
      "inputs": [],
      "name": "factory",
      "outputs": [
        {
          "internalType": "contract PropertyFactoryInterface",
          "name": "",
          "type": "address"
        }
      ],
      "stateMutability": "view",
      "type": "function"
    },
    {
      "inputs": [],
      "name": "finalizeSellForProperty",
      "outputs": [],
      "stateMutability": "nonpayable",
      "type": "function"
    },
    {
      "inputs": [],
      "name": "highestBid",
      "outputs": [
        {
          "internalType": "uint256",
          "name": "",
          "type": "uint256"
        }
      ],
      "stateMutability": "view",
      "type": "function"
    },
    {
      "inputs": [],
      "name": "highestBidder",
      "outputs": [
        {
          "internalType": "address",
          "name": "",
          "type": "address"
        }
      ],
      "stateMutability": "view",
      "type": "function"
    },
    {
      "inputs": [],
      "name": "mortgageFee",
      "outputs": [
        {
          "internalType": "uint256",
          "name": "",
          "type": "uint256"
        }
      ],
      "stateMutability": "view",
      "type": "function"
    },
    {
      "inputs": [],
      "name": "platformFee",
      "outputs": [
        {
          "internalType": "uint256",
          "name": "",
          "type": "uint256"
        }
      ],
      "stateMutability": "view",
      "type": "function"
    },
    {
      "inputs": [],
      "name": "propertyInfo",
      "outputs": [
        {
          "internalType": "uint256",
          "name": "id",
          "type": "uint256"
        },
        {
          "components": [
            {
              "internalType": "string",
              "name": "street",
              "type": "string"
            },
            {
              "internalType": "string",
              "name": "city",
              "type": "string"
            },
            {
              "internalType": "string",
              "name": "state",
              "type": "string"
            },
            {
              "internalType": "string",
              "name": "country",
              "type": "string"
            },
            {
              "internalType": "string",
              "name": "zip",
              "type": "string"
            }
          ],
          "internalType": "struct Address",
          "name": "addr",
          "type": "tuple"
        },
        {
          "internalType": "uint256",
          "name": "askingPrice",
          "type": "uint256"
        },
        {
          "internalType": "address payable",
          "name": "seller",
          "type": "address"
        },
        {
          "internalType": "uint256",
          "name": "created",
          "type": "uint256"
        },
        {
          "internalType": "enum Status",
          "name": "status",
          "type": "uint8"
        },
        {
          "components": [
            {
              "internalType": "bool",
              "name": "sellerAccepted",
              "type": "bool"
            },
            {
              "internalType": "bool",
              "name": "buyerAccepted",
              "type": "bool"
            }
          ],
          "internalType": "struct OfferStatus",
          "name": "offerStatus",
          "type": "tuple"
        }
      ],
      "stateMutability": "view",
      "type": "function"
    },
    {
      "inputs": [],
      "name": "propertyOwner",
      "outputs": [
        {
          "internalType": "address",
          "name": "",
          "type": "address"
        }
      ],
      "stateMutability": "view",
      "type": "function"
    },
    {
      "inputs": [],
      "name": "rejectBid",
      "outputs": [],
      "stateMutability": "nonpayable",
      "type": "function"
    },
    {
      "inputs": [],
      "name": "transferPropertyOwnerShip",
      "outputs": [
        {
          "internalType": "bool",
          "name": "success",
          "type": "bool"
        }
      ],
      "stateMutability": "nonpayable",
      "type": "function"
    },
    {
      "inputs": [
        {
          "internalType": "address",
          "name": "_owner",
          "type": "address"
        }
      ],
      "name": "transferPropertyOwnerShipBetweenOwners",
      "outputs": [],
      "stateMutability": "nonpayable",
      "type": "function"
    }
  ],
  "bytecode": "0x60806040523480156200001157600080fd5b5060405162001f9738038062001f97833981016040819052620000349162000475565b6001600081905580546001600160a01b0319166001600160a01b0385161790558051600290815560208201518051839291906003908190620000779082620005fe565b50602082015160018201906200008e9082620005fe565b5060408201516002820190620000a59082620005fe565b5060608201516003820190620000bc9082620005fe565b5060808201516004820190620000d39082620005fe565b5050506040820151600682015560608201516007820180546001600160a01b0319166001600160a01b039092169190911790556080820151600882015560a082015160098201805460ff19166001836005811115620001365762000136620006ca565b021790555060c091909101518051600a909201805460209092015161ffff1990921692151561ff0019169290921761010091151591909102179055600d80546001600160a01b0319166001600160a01b038416179055426010819055620001a19062093a80620006e0565b6011555062000708915050565b6001600160a01b0381168114620001c457600080fd5b50565b634e487b7160e01b600052604160045260246000fd5b60405160a081016001600160401b0381118282101715620002025762000202620001c7565b60405290565b60405160e081016001600160401b0381118282101715620002025762000202620001c7565b604051601f8201601f191681016001600160401b0381118282101715620002585762000258620001c7565b604052919050565b600082601f8301126200027257600080fd5b81516001600160401b038111156200028e576200028e620001c7565b6020620002a4601f8301601f191682016200022d565b8281528582848701011115620002b957600080fd5b60005b83811015620002d9578581018301518282018401528201620002bc565b506000928101909101919091529392505050565b600060a082840312156200030057600080fd5b6200030a620001dd565b82519091506001600160401b03808211156200032557600080fd5b620003338583860162000260565b835260208401519150808211156200034a57600080fd5b620003588583860162000260565b602084015260408401519150808211156200037257600080fd5b620003808583860162000260565b604084015260608401519150808211156200039a57600080fd5b620003a88583860162000260565b60608401526080840151915080821115620003c257600080fd5b50620003d18482850162000260565b60808301525092915050565b8051620003ea81620001ae565b919050565b805160068110620003ea57600080fd5b80518015158114620003ea57600080fd5b6000604082840312156200042357600080fd5b604080519081016001600160401b0381118282101715620004485762000448620001c7565b6040529050806200045983620003ff565b81526200046960208401620003ff565b60208201525092915050565b6000806000606084860312156200048b57600080fd5b83516200049881620001ae565b6020850151909350620004ab81620001ae565b60408501519092506001600160401b0380821115620004c957600080fd5b908501906101008288031215620004df57600080fd5b620004e962000208565b825181526020830151828111156200050057600080fd5b6200050e89828601620002ed565b602083015250604083015160408201526200052c60608401620003dd565b6060820152608083015160808201526200054960a08401620003ef565b60a08201526200055d8860c0850162000410565b60c08201528093505050509250925092565b600181811c908216806200058457607f821691505b602082108103620005a557634e487b7160e01b600052602260045260246000fd5b50919050565b601f821115620005f957600081815260208120601f850160051c81016020861015620005d45750805b601f850160051c820191505b81811015620005f557828155600101620005e0565b5050505b505050565b81516001600160401b038111156200061a576200061a620001c7565b62000632816200062b84546200056f565b84620005ab565b602080601f8311600181146200066a5760008415620006515750858301515b600019600386901b1c1916600185901b178555620005f5565b600085815260208120601f198616915b828110156200069b578886015182559484019460019091019084016200067a565b5085821015620006ba5787850151600019600388901b60f8161c191681555b5050505050600190811b01905550565b634e487b7160e01b600052602160045260246000fd5b808201808211156200070257634e487b7160e01b600052601160045260246000fd5b92915050565b61187f80620007186000396000f3fe6080604052600436106101295760003560e01c80636def4542116100a5578063d57bde7911610074578063e52a787411610059578063e52a7874146102cf578063eb7f5f98146102e4578063f446c38f146102f957600080fd5b8063d57bde7914610294578063dfa0cfb3146102aa57600080fd5b80636def45421461022957806391f901571461023c578063c45a015514610274578063d015b9dd1461015057600080fd5b80633e3581a7116100fc5780634e859313116100e15780634e859313146101e35780635cfbeb77146101f9578063657a5e031461022157600080fd5b80633e3581a7146101ae578063454a2ab3146101c357600080fd5b806315bc0eb31461012e57806326232a2e14610150578063325a19f1146101785780633552fac91461018e575b600080fd5b34801561013a57600080fd5b5061014e6101493660046115db565b610319565b005b34801561015c57600080fd5b50610165600181565b6040519081526020015b60405180910390f35b34801561018457600080fd5b5061016560105481565b34801561019a57600080fd5b5061014e6101a93660046115f4565b610541565b3480156101ba57600080fd5b5061014e61064c565b3480156101cf57600080fd5b5061014e6101de3660046115db565b61079a565b3480156101ef57600080fd5b5061016560115481565b34801561020557600080fd5b5061020e61084a565b60405161016f97969594939291906116a2565b61014e610b8b565b61014e6102373660046115db565b610d2d565b34801561024857600080fd5b50600f5461025c906001600160a01b031681565b6040516001600160a01b03909116815260200161016f565b34801561028057600080fd5b5060015461025c906001600160a01b031681565b3480156102a057600080fd5b50610165600e5481565b3480156102b657600080fd5b506102bf610ecf565b604051901515815260200161016f565b3480156102db57600080fd5b5061014e6110f1565b3480156102f057600080fd5b5061014e611249565b34801561030557600080fd5b50600d5461025c906001600160a01b031681565b6103216113d4565b6003600b5460ff16600581111561033a5761033a61166a565b146103b25760405162461bcd60e51b815260206004820152603060248201527f7365636f6e64426964206e6f7420616c6c6f776564207768656e206f6666657260448201527f206973206e6f742072656a65637465640000000000000000000000000000000060648201526084015b60405180910390fd5b600f54336001600160a01b039091160361040e5760405162461bcd60e51b815260206004820152601a60248201527f416c72656164792074686520686967686573742062696464657200000000000060448201526064016103a9565b600e5481116104855760405162461bcd60e51b815260206004820152602b60248201527f42696420616d6f756e74206d7573742062652067726561746572207468616e2060448201527f686967686573742062696400000000000000000000000000000000000000000060648201526084016103a9565b600954336001600160a01b03909116036105075760405162461bcd60e51b815260206004820152602760248201527f53656c6c65722063616e6e6f7420626964206f6e207468656972206f776e207060448201527f726f70657274790000000000000000000000000000000000000000000000000060648201526084016103a9565b600e55600f805473ffffffffffffffffffffffffffffffffffffffff191633179055600b805460ff19166001908117909155600055565b50565b600d546001600160a01b031633146105ae5760405162461bcd60e51b815260206004820152602a60248201527f4f6e6c792070726f7065727479206f776e65722063616e2063616c6c207468696044820152693990333ab731ba34b7b760b11b60648201526084016103a9565b6105b66113d4565b6004600b5460ff1660058111156105cf576105cf61166a565b0361061c5760405162461bcd60e51b815260206004820152601860248201527f50726f706572747920697320616c726561647920736f6c64000000000000000060448201526064016103a9565b600d805473ffffffffffffffffffffffffffffffffffffffff19166001600160a01b038316179055600160005550565b600d546001600160a01b031633146106b95760405162461bcd60e51b815260206004820152602a60248201527f4f6e6c792070726f7065727479206f776e65722063616e2063616c6c207468696044820152693990333ab731ba34b7b760b11b60648201526084016103a9565b6106c16113d4565b6001600b5460ff1660058111156106da576106da61166a565b146107275760405162461bcd60e51b815260206004820181905260248201527f50726f7065727479206973206e6f74206f70656e20666f722062696464696e6760448201526064016103a9565b6000600e54116107795760405162461bcd60e51b815260206004820152601660248201527f4e6f20626964732068617665206265656e206d6164650000000000000000000060448201526064016103a9565b600b80546003919060ff19166001835b02179055506107986001600055565b565b6107a26113d4565b6011544210156107e4576011546040517ff1fa6b100000000000000000000000000000000000000000000000000000000081526004016103a991815260200190565b6000600b5460ff1660058111156107fd576107fd61166a565b146103b25760405162461bcd60e51b815260206004820181905260248201527f50726f7065727479206973206e6f74206f70656e20666f722062696464696e6760448201526064016103a9565b600280546040805160a08101909152600380549293928290829061086d90611794565b80601f016020809104026020016040519081016040528092919081815260200182805461089990611794565b80156108e65780601f106108bb576101008083540402835291602001916108e6565b820191906000526020600020905b8154815290600101906020018083116108c957829003601f168201915b505050505081526020016001820180546108ff90611794565b80601f016020809104026020016040519081016040528092919081815260200182805461092b90611794565b80156109785780601f1061094d57610100808354040283529160200191610978565b820191906000526020600020905b81548152906001019060200180831161095b57829003601f168201915b5050505050815260200160028201805461099190611794565b80601f01602080910402602001604051908101604052809291908181526020018280546109bd90611794565b8015610a0a5780601f106109df57610100808354040283529160200191610a0a565b820191906000526020600020905b8154815290600101906020018083116109ed57829003601f168201915b50505050508152602001600382018054610a2390611794565b80601f0160208091040260200160405190810160405280929190818152602001828054610a4f90611794565b8015610a9c5780601f10610a7157610100808354040283529160200191610a9c565b820191906000526020600020905b815481529060010190602001808311610a7f57829003601f168201915b50505050508152602001600482018054610ab590611794565b80601f0160208091040260200160405190810160405280929190818152602001828054610ae190611794565b8015610b2e5780601f10610b0357610100808354040283529160200191610b2e565b820191906000526020600020905b815481529060010190602001808311610b1157829003601f168201915b50505091909252505050600682015460078301546008840154600985015460408051808201909152600a9096015460ff81811615158852610100909104811615156020880152949593946001600160a01b03909316939192169087565b600f546001600160a01b03163314610bf85760405162461bcd60e51b815260206004820152602a60248201527f4f6e6c792068696768657374206269646465722063616e2063616c6c207468696044820152693990333ab731ba34b7b760b11b60648201526084016103a9565b610c006113d4565b6002600b5460ff166005811115610c1957610c1961166a565b14610c595760405162461bcd60e51b815260206004820152601060248201526f109a59081b9bdd081858d8d95c1d195960821b60448201526064016103a9565b600f546001600160a01b03163314610cc35760405162461bcd60e51b815260206004820152602760248201527f4f6e6c792068696768657374206269646465722063616e2061636365707420746044820152661a19481cd95b1b60ca1b60648201526084016103a9565b600e543414610d145760405162461bcd60e51b815260206004820152601560248201527f496e636f727265637420616d6f756e742073656e74000000000000000000000060448201526064016103a9565b600c805461ff0019166101001790556107986001600055565b600f546001600160a01b03163314610d9a5760405162461bcd60e51b815260206004820152602a60248201527f4f6e6c792068696768657374206269646465722063616e2063616c6c207468696044820152693990333ab731ba34b7b760b11b60648201526084016103a9565b610da26113d4565b6002600b5460ff166005811115610dbb57610dbb61166a565b14610dfb5760405162461bcd60e51b815260206004820152601060248201526f109a59081b9bdd081858d8d95c1d195960821b60448201526064016103a9565b600f546001600160a01b03163314610e655760405162461bcd60e51b815260206004820152602760248201527f4f6e6c792068696768657374206269646465722063616e2061636365707420746044820152661a19481cd95b1b60ca1b60648201526084016103a9565b600e543414610eb65760405162461bcd60e51b815260206004820152601560248201527f496e636f727265637420616d6f756e742073656e74000000000000000000000060448201526064016103a9565b600c805461ff00191661010017905561053e6001600055565b6001546000906001600160a01b03163314610f525760405162461bcd60e51b815260206004820152602360248201527f4f6e6c7920666163746f72792063616e2063616c6c20746869732066756e637460448201527f696f6e000000000000000000000000000000000000000000000000000000000060648201526084016103a9565b610f5a6113d4565b6004600b5460ff166005811115610f7357610f7361166a565b14610fc05760405162461bcd60e51b815260206004820152601460248201527f50726f7065727479206973206e6f7420736f6c6400000000000000000000000060448201526064016103a9565b478061100e5760405162461bcd60e51b815260206004820152601760248201527f436f6e747261637420686173206e6f2062616c616e636500000000000000000060448201526064016103a9565b600f54600d80546001600160a01b0390921673ffffffffffffffffffffffffffffffffffffffff19909216919091179055600b805460ff191660051790556110558161142d565b9150816110a45760405162461bcd60e51b815260206004820152601f60248201527f5472616e736665722070726f70657274792066756e6473206661696c65642e0060448201526064016103a9565b600d546009546040516001600160a01b0392831692909116907f7fd0323aae6d324ceaa61c5e1564b3c3a84d38216da5434d73194ae51f1b6bb290600090a3506110ee6001600055565b90565b600d546001600160a01b0316331461115e5760405162461bcd60e51b815260206004820152602a60248201527f4f6e6c792070726f7065727479206f776e65722063616e2063616c6c207468696044820152693990333ab731ba34b7b760b11b60648201526084016103a9565b6111666113d4565b6001600b5460ff16600581111561117f5761117f61166a565b146111cc5760405162461bcd60e51b815260206004820181905260248201527f50726f7065727479206973206e6f74206f70656e20666f722062696464696e6760448201526064016103a9565b6000600e541161121e5760405162461bcd60e51b815260206004820152601660248201527f4e6f20626964732068617665206265656e206d6164650000000000000000000060448201526064016103a9565b600b80546002919060ff19166001830217905550600c805460ff191660011790556107986001600055565b600d546001600160a01b031633146112b65760405162461bcd60e51b815260206004820152602a60248201527f4f6e6c792070726f7065727479206f776e65722063616e2063616c6c207468696044820152693990333ab731ba34b7b760b11b60648201526084016103a9565b6112be6113d4565b6002600b5460ff1660058111156112d7576112d761166a565b146113175760405162461bcd60e51b815260206004820152601060248201526f109a59081b9bdd081858d8d95c1d195960821b60448201526064016103a9565b600c5460ff166113695760405162461bcd60e51b815260206004820181905260248201527f53656c6c657220686173206e6f74206163636570746564207468652073656c6c60448201526064016103a9565b600c54610100900460ff166113c05760405162461bcd60e51b815260206004820152601f60248201527f427579657220686173206e6f74206163636570746564207468652073656c6c0060448201526064016103a9565b600b80546004919060ff1916600183610789565b6002600054036114265760405162461bcd60e51b815260206004820152601f60248201527f5265656e7472616e637947756172643a207265656e7472616e742063616c6c0060448201526064016103a9565b6002600055565b600080606461143d6001856117e4565b6114479190611801565b9050600060646114586001866117e4565b6114629190611801565b905060006114708284611823565b6001546040519192506000916001600160a01b039091169083908381818185875af1925050503d80600081146114c2576040519150601f19603f3d011682016040523d82523d6000602084013e6114c7565b606091505b50509050806115185760405162461bcd60e51b815260206004820152601f60248201527f5472616e736665722066656520746f20666163746f7279206661696c65642e0060448201526064016103a9565b60006115248388611836565b6009546040519192506001600160a01b031690600090829084908381818185875af1925050503d8060008114611576576040519150601f19603f3d011682016040523d82523d6000602084013e61157b565b606091505b50509050806115cc5760405162461bcd60e51b815260206004820152601060248201527f5472616e73666572206661696c65642e0000000000000000000000000000000060448201526064016103a9565b50600198975050505050505050565b6000602082840312156115ed57600080fd5b5035919050565b60006020828403121561160657600080fd5b81356001600160a01b038116811461161d57600080fd5b9392505050565b6000815180845260005b8181101561164a5760208185018101518683018201520161162e565b506000602082860101526020601f19601f83011685010191505092915050565b634e487b7160e01b600052602160045260246000fd5b6006811061169e57634e487b7160e01b600052602160045260246000fd5b9052565b6000610100898352806020840152885160a0828501526116c66101a0850182611624565b915050602089015160ff1980858403016101208601526116e68383611624565b925060408b0151915080858403016101408601526117048383611624565b925060608b0151915080858403016101608601526117228383611624565b925060808b015191508085840301610180860152506117418282611624565b9250505086604083015261176060608301876001600160a01b03169052565b84608083015261177360a0830185611680565b8251151560c08301526020830151151560e083015298975050505050505050565b600181811c908216806117a857607f821691505b6020821081036117c857634e487b7160e01b600052602260045260246000fd5b50919050565b634e487b7160e01b600052601160045260246000fd5b80820281158282048414176117fb576117fb6117ce565b92915050565b60008261181e57634e487b7160e01b600052601260045260246000fd5b500490565b808201808211156117fb576117fb6117ce565b818103818111156117fb576117fb6117ce56fea26469706673582212202cbece10c0bdf15873faa26a594a89eda4e104cf6cf7524b045f5325e667af1864736f6c63430008110033",
  "linkReferences": {},
  "deployedLinkReferences": {}
}