{
  "_format": "hh-sol-artifact-1",
  "contractName": "Property",
  "sourceName": "contracts/Property.sol",
  "abi": [
    {
      "inputs": [
        {
          "internalType": "address",
          "name": "_factory",
          "type": "address"
        },
        {
          "internalType": "address",
          "name": "_propertyOwner",
          "type": "address"
        },
        {
          "components": [
            {
              "internalType": "uint256",
              "name": "id",
              "type": "uint256"
            },
            {
              "components": [
                {
                  "internalType": "string",
                  "name": "street",
                  "type": "string"
                },
                {
                  "internalType": "string",
                  "name": "city",
                  "type": "string"
                },
                {
                  "internalType": "string",
                  "name": "state",
                  "type": "string"
                },
                {
                  "internalType": "string",
                  "name": "country",
                  "type": "string"
                },
                {
                  "internalType": "string",
                  "name": "zip",
                  "type": "string"
                }
              ],
              "internalType": "struct Address",
              "name": "addr",
              "type": "tuple"
            },
            {
              "internalType": "uint256",
              "name": "askingPrice",
              "type": "uint256"
            },
            {
              "internalType": "int256",
              "name": "price",
              "type": "int256"
            },
            {
              "components": [
                {
                  "internalType": "address payable",
                  "name": "wallet",
                  "type": "address"
                },
                {
                  "internalType": "string",
                  "name": "name",
                  "type": "string"
                },
                {
                  "internalType": "string",
                  "name": "email",
                  "type": "string"
                },
                {
                  "internalType": "enum KYCStatus",
                  "name": "status",
                  "type": "uint8"
                }
              ],
              "internalType": "struct Seller",
              "name": "seller",
              "type": "tuple"
            },
            {
              "internalType": "string",
              "name": "description",
              "type": "string"
            },
            {
              "internalType": "uint256",
              "name": "created",
              "type": "uint256"
            },
            {
              "internalType": "enum Status",
              "name": "status",
              "type": "uint8"
            },
            {
              "components": [
                {
                  "internalType": "bool",
                  "name": "sellerAccepted",
                  "type": "bool"
                },
                {
                  "internalType": "bool",
                  "name": "buyerAccepted",
                  "type": "bool"
                }
              ],
              "internalType": "struct OfferStatus",
              "name": "offerStatus",
              "type": "tuple"
            }
          ],
          "internalType": "struct PropertyInfo",
          "name": "property",
          "type": "tuple"
        }
      ],
      "stateMutability": "nonpayable",
      "type": "constructor"
    },
    {
      "inputs": [
        {
          "internalType": "uint256",
          "name": "bidOpenTime",
          "type": "uint256"
        }
      ],
      "name": "BiddingNotOpen",
      "type": "error"
    },
    {
      "inputs": [
        {
          "internalType": "uint256",
          "name": "requested",
          "type": "uint256"
        },
        {
          "internalType": "uint256",
          "name": "available",
          "type": "uint256"
        }
      ],
      "name": "NotEnoughBalance",
      "type": "error"
    },
    {
      "anonymous": false,
      "inputs": [
        {
          "indexed": true,
          "internalType": "address",
          "name": "seller",
          "type": "address"
        },
        {
          "indexed": true,
          "internalType": "address",
          "name": "buyer",
          "type": "address"
        }
      ],
      "name": "PropertyOwnerShipTransferred",
      "type": "event"
    },
    {
      "inputs": [],
      "name": "acceptAsBuyer",
      "outputs": [],
      "stateMutability": "payable",
      "type": "function"
    },
    {
      "inputs": [
        {
          "internalType": "uint256",
          "name": "mortgageAmount",
          "type": "uint256"
        }
      ],
      "name": "acceptAsBuyerWithMortgage",
      "outputs": [],
      "stateMutability": "payable",
      "type": "function"
    },
    {
      "inputs": [],
      "name": "acceptBid",
      "outputs": [],
      "stateMutability": "nonpayable",
      "type": "function"
    },
    {
      "inputs": [
        {
          "internalType": "uint256",
          "name": "offer",
          "type": "uint256"
        }
      ],
      "name": "bid",
      "outputs": [],
      "stateMutability": "nonpayable",
      "type": "function"
    },
    {
      "inputs": [
        {
          "internalType": "uint256",
          "name": "offer",
          "type": "uint256"
        }
      ],
      "name": "bidAgain",
      "outputs": [],
      "stateMutability": "nonpayable",
      "type": "function"
    },
    {
      "inputs": [],
      "name": "biddingOpenTime",
      "outputs": [
        {
          "internalType": "uint256",
          "name": "",
          "type": "uint256"
        }
      ],
      "stateMutability": "view",
      "type": "function"
    },
    {
      "inputs": [],
      "name": "created",
      "outputs": [
        {
          "internalType": "uint256",
          "name": "",
          "type": "uint256"
        }
      ],
      "stateMutability": "view",
      "type": "function"
    },
    {
      "inputs": [],
      "name": "factory",
      "outputs": [
        {
          "internalType": "contract PropertyFactoryInterface",
          "name": "",
          "type": "address"
        }
      ],
      "stateMutability": "view",
      "type": "function"
    },
    {
      "inputs": [],
      "name": "finalizeSellForProperty",
      "outputs": [],
      "stateMutability": "nonpayable",
      "type": "function"
    },
    {
      "inputs": [],
      "name": "highestBid",
      "outputs": [
        {
          "internalType": "uint256",
          "name": "",
          "type": "uint256"
        }
      ],
      "stateMutability": "view",
      "type": "function"
    },
    {
      "inputs": [],
      "name": "highestBidder",
      "outputs": [
        {
          "internalType": "address",
          "name": "",
          "type": "address"
        }
      ],
      "stateMutability": "view",
      "type": "function"
    },
    {
      "inputs": [],
      "name": "platformFee",
      "outputs": [
        {
          "internalType": "uint256",
          "name": "",
          "type": "uint256"
        }
      ],
      "stateMutability": "view",
      "type": "function"
    },
    {
      "inputs": [],
      "name": "propertyInfo",
      "outputs": [
        {
          "internalType": "uint256",
          "name": "id",
          "type": "uint256"
        },
        {
          "components": [
            {
              "internalType": "string",
              "name": "street",
              "type": "string"
            },
            {
              "internalType": "string",
              "name": "city",
              "type": "string"
            },
            {
              "internalType": "string",
              "name": "state",
              "type": "string"
            },
            {
              "internalType": "string",
              "name": "country",
              "type": "string"
            },
            {
              "internalType": "string",
              "name": "zip",
              "type": "string"
            }
          ],
          "internalType": "struct Address",
          "name": "addr",
          "type": "tuple"
        },
        {
          "internalType": "uint256",
          "name": "askingPrice",
          "type": "uint256"
        },
        {
          "internalType": "int256",
          "name": "price",
          "type": "int256"
        },
        {
          "components": [
            {
              "internalType": "address payable",
              "name": "wallet",
              "type": "address"
            },
            {
              "internalType": "string",
              "name": "name",
              "type": "string"
            },
            {
              "internalType": "string",
              "name": "email",
              "type": "string"
            },
            {
              "internalType": "enum KYCStatus",
              "name": "status",
              "type": "uint8"
            }
          ],
          "internalType": "struct Seller",
          "name": "seller",
          "type": "tuple"
        },
        {
          "internalType": "string",
          "name": "description",
          "type": "string"
        },
        {
          "internalType": "uint256",
          "name": "created",
          "type": "uint256"
        },
        {
          "internalType": "enum Status",
          "name": "status",
          "type": "uint8"
        },
        {
          "components": [
            {
              "internalType": "bool",
              "name": "sellerAccepted",
              "type": "bool"
            },
            {
              "internalType": "bool",
              "name": "buyerAccepted",
              "type": "bool"
            }
          ],
          "internalType": "struct OfferStatus",
          "name": "offerStatus",
          "type": "tuple"
        }
      ],
      "stateMutability": "view",
      "type": "function"
    },
    {
      "inputs": [],
      "name": "propertyOwner",
      "outputs": [
        {
          "internalType": "address",
          "name": "",
          "type": "address"
        }
      ],
      "stateMutability": "view",
      "type": "function"
    },
    {
      "inputs": [],
      "name": "rejectBid",
      "outputs": [],
      "stateMutability": "nonpayable",
      "type": "function"
    },
    {
      "inputs": [],
      "name": "transferPropertyOwnerShip",
      "outputs": [
        {
          "internalType": "bool",
          "name": "success",
          "type": "bool"
        }
      ],
      "stateMutability": "nonpayable",
      "type": "function"
    },
    {
      "inputs": [
        {
          "internalType": "address",
          "name": "_owner",
          "type": "address"
        }
      ],
      "name": "transferPropertyOwnerShipBetweenOwners",
      "outputs": [],
      "stateMutability": "nonpayable",
      "type": "function"
    }
  ],
  "bytecode": "0x60806040523480156200001157600080fd5b5060405162002334380380620023348339810160408190526200003491620005a7565b6001600081905580546001600160a01b0319166001600160a01b038516179055805160029081556020820151805183929190600390819062000077908262000778565b50602082015160018201906200008e908262000778565b5060408201516002820190620000a5908262000778565b5060608201516003820190620000bc908262000778565b5060808201516004820190620000d3908262000778565b5050506040820151600682015560608201516007820155608082015180516008830180546001600160a01b0319166001600160a01b039092169190911781556020820151600984019062000128908262000778565b50604082015160028201906200013f908262000778565b50606082015160038201805460ff1916600183600281111562000166576200016662000844565b0217905550505060a0820151600c82019062000183908262000778565b5060c0820151600d82015560e0820151600e8201805460ff19166001836009811115620001b457620001b462000844565b0217905550610100918201518051600f9092018054602090920151151590930261ff00199215159290921661ffff1990911617179055601280546001600160a01b0384166001600160a01b03199091161790554260158190556200021c9062093a806200085a565b6016555062000882915050565b6001600160a01b03811681146200023f57600080fd5b50565b634e487b7160e01b600052604160045260246000fd5b60405160a081016001600160401b03811182821017156200027d576200027d62000242565b60405290565b60405161012081016001600160401b03811182821017156200027d576200027d62000242565b604051601f8201601f191681016001600160401b0381118282101715620002d457620002d462000242565b604052919050565b600082601f830112620002ee57600080fd5b81516001600160401b038111156200030a576200030a62000242565b602062000320601f8301601f19168201620002a9565b82815285828487010111156200033557600080fd5b60005b838110156200035557858101830151828201840152820162000338565b506000928101909101919091529392505050565b600060a082840312156200037c57600080fd5b6200038662000258565b82519091506001600160401b0380821115620003a157600080fd5b620003af85838601620002dc565b83526020840151915080821115620003c657600080fd5b620003d485838601620002dc565b60208401526040840151915080821115620003ee57600080fd5b620003fc85838601620002dc565b604084015260608401519150808211156200041657600080fd5b6200042485838601620002dc565b606084015260808401519150808211156200043e57600080fd5b506200044d84828501620002dc565b60808301525092915050565b6000608082840312156200046c57600080fd5b604051608081016001600160401b03808211838310171562000492576200049262000242565b8160405282935084519150620004a88262000229565b90825260208401519080821115620004bf57600080fd5b620004cd86838701620002dc565b60208401526040850151915080821115620004e757600080fd5b50620004f685828601620002dc565b6040830152506060830151600381106200050f57600080fd5b6060919091015292915050565b8051600a81106200052c57600080fd5b919050565b805180151581146200052c57600080fd5b6000604082840312156200055557600080fd5b604080519081016001600160401b03811182821017156200057a576200057a62000242565b6040529050806200058b8362000531565b81526200059b6020840162000531565b60208201525092915050565b600080600060608486031215620005bd57600080fd5b8351620005ca8162000229565b6020850151909350620005dd8162000229565b60408501519092506001600160401b0380821115620005fb57600080fd5b9085019061014082880312156200061157600080fd5b6200061b62000283565b825181526020830151828111156200063257600080fd5b620006408982860162000369565b60208301525060408301516040820152606083015160608201526080830151828111156200066d57600080fd5b6200067b8982860162000459565b60808301525060a0830151828111156200069457600080fd5b620006a289828601620002dc565b60a08301525060c083015160c0820152620006c060e084016200051c565b60e08201526101009150620006d88883850162000542565b828201528093505050509250925092565b600181811c90821680620006fe57607f821691505b6020821081036200071f57634e487b7160e01b600052602260045260246000fd5b50919050565b601f8211156200077357600081815260208120601f850160051c810160208610156200074e5750805b601f850160051c820191505b818110156200076f578281556001016200075a565b5050505b505050565b81516001600160401b0381111562000794576200079462000242565b620007ac81620007a58454620006e9565b8462000725565b602080601f831160018114620007e45760008415620007cb5750858301515b600019600386901b1c1916600185901b1785556200076f565b600085815260208120601f198616915b828110156200081557888601518255948401946001909101908401620007f4565b5085821015620008345787850151600019600388901b60f8161c191681555b5050505050600190811b01905550565b634e487b7160e01b600052602160045260246000fd5b808201808211156200087c57634e487b7160e01b600052601160045260246000fd5b92915050565b611aa280620008926000396000f3fe60806040526004361061010e5760003560e01c8063657a5e03116100a5578063d57bde7911610074578063e52a787411610059578063e52a7874146102b6578063eb7f5f98146102cb578063f446c38f146102e057600080fd5b8063d57bde791461027b578063dfa0cfb31461029157600080fd5b8063657a5e03146102085780636def45421461021057806391f9015714610223578063c45a01551461025b57600080fd5b80633e3581a7116100e15780633e3581a714610193578063454a2ab3146101a85780634e859313146101c85780635cfbeb77146101de57600080fd5b806315bc0eb31461011357806326232a2e14610135578063325a19f11461015d5780633552fac914610173575b600080fd5b34801561011f57600080fd5b5061013361012e366004611797565b610300565b005b34801561014157600080fd5b5061014a600281565b6040519081526020015b60405180910390f35b34801561016957600080fd5b5061014a60155481565b34801561017f57600080fd5b5061013361018e3660046117b0565b610529565b34801561019f57600080fd5b50610133610634565b3480156101b457600080fd5b506101336101c3366004611797565b610782565b3480156101d457600080fd5b5061014a60165481565b3480156101ea57600080fd5b506101f3610832565b604051610154999897969594939291906118ba565b610133610d72565b61013361021e366004611797565b610f14565b34801561022f57600080fd5b50601454610243906001600160a01b031681565b6040516001600160a01b039091168152602001610154565b34801561026757600080fd5b50600154610243906001600160a01b031681565b34801561028757600080fd5b5061014a60135481565b34801561029d57600080fd5b506102a66110b6565b6040519015158152602001610154565b3480156102c257600080fd5b506101336112d8565b3480156102d757600080fd5b50610133611430565b3480156102ec57600080fd5b50601254610243906001600160a01b031681565b6103086115bb565b600760105460ff16600981111561032157610321611826565b146103995760405162461bcd60e51b815260206004820152603060248201527f7365636f6e64426964206e6f7420616c6c6f776564207768656e206f6666657260448201527f206973206e6f742072656a65637465640000000000000000000000000000000060648201526084015b60405180910390fd5b601454336001600160a01b03909116036103f55760405162461bcd60e51b815260206004820152601a60248201527f416c7265616479207468652068696768657374206269646465720000000000006044820152606401610390565b601354811161046c5760405162461bcd60e51b815260206004820152602b60248201527f42696420616d6f756e74206d7573742062652067726561746572207468616e2060448201527f68696768657374206269640000000000000000000000000000000000000000006064820152608401610390565b600a54336001600160a01b03909116036104ee5760405162461bcd60e51b815260206004820152602760248201527f53656c6c65722063616e6e6f7420626964206f6e207468656972206f776e207060448201527f726f7065727479000000000000000000000000000000000000000000000000006064820152608401610390565b6013556014805473ffffffffffffffffffffffffffffffffffffffff19163317905560108054600660ff199091161790556001600055565b50565b6012546001600160a01b031633146105965760405162461bcd60e51b815260206004820152602a60248201527f4f6e6c792070726f7065727479206f776e65722063616e2063616c6c207468696044820152693990333ab731ba34b7b760b11b6064820152608401610390565b61059e6115bb565b600560105460ff1660098111156105b7576105b7611826565b036106045760405162461bcd60e51b815260206004820152601860248201527f50726f706572747920697320616c726561647920736f6c6400000000000000006044820152606401610390565b6012805473ffffffffffffffffffffffffffffffffffffffff19166001600160a01b038316179055600160005550565b6012546001600160a01b031633146106a15760405162461bcd60e51b815260206004820152602a60248201527f4f6e6c792070726f7065727479206f776e65722063616e2063616c6c207468696044820152693990333ab731ba34b7b760b11b6064820152608401610390565b6106a96115bb565b600660105460ff1660098111156106c2576106c2611826565b1461070f5760405162461bcd60e51b815260206004820181905260248201527f50726f7065727479206973206e6f74206f70656e20666f722062696464696e676044820152606401610390565b6000601354116107615760405162461bcd60e51b815260206004820152601660248201527f4e6f20626964732068617665206265656e206d616465000000000000000000006044820152606401610390565b601080546007919060ff19166001835b02179055506107806001600055565b565b61078a6115bb565b6016544210156107cc576016546040517ff1fa6b1000000000000000000000000000000000000000000000000000000000815260040161039091815260200190565b600060105460ff1660098111156107e5576107e5611826565b146103995760405162461bcd60e51b815260206004820181905260248201527f50726f7065727479206973206e6f74206f70656e20666f722062696464696e676044820152606401610390565b600280546040805160a081019091526003805492939282908290610855906119ca565b80601f0160208091040260200160405190810160405280929190818152602001828054610881906119ca565b80156108ce5780601f106108a3576101008083540402835291602001916108ce565b820191906000526020600020905b8154815290600101906020018083116108b157829003601f168201915b505050505081526020016001820180546108e7906119ca565b80601f0160208091040260200160405190810160405280929190818152602001828054610913906119ca565b80156109605780601f1061093557610100808354040283529160200191610960565b820191906000526020600020905b81548152906001019060200180831161094357829003601f168201915b50505050508152602001600282018054610979906119ca565b80601f01602080910402602001604051908101604052809291908181526020018280546109a5906119ca565b80156109f25780601f106109c7576101008083540402835291602001916109f2565b820191906000526020600020905b8154815290600101906020018083116109d557829003601f168201915b50505050508152602001600382018054610a0b906119ca565b80601f0160208091040260200160405190810160405280929190818152602001828054610a37906119ca565b8015610a845780601f10610a5957610100808354040283529160200191610a84565b820191906000526020600020905b815481529060010190602001808311610a6757829003601f168201915b50505050508152602001600482018054610a9d906119ca565b80601f0160208091040260200160405190810160405280929190818152602001828054610ac9906119ca565b8015610b165780601f10610aeb57610100808354040283529160200191610b16565b820191906000526020600020905b815481529060010190602001808311610af957829003601f168201915b505050919092525050506006820154600783015460408051608081019091526008850180546001600160a01b0316825260098601805495969495939493602084019190610b62906119ca565b80601f0160208091040260200160405190810160405280929190818152602001828054610b8e906119ca565b8015610bdb5780601f10610bb057610100808354040283529160200191610bdb565b820191906000526020600020905b815481529060010190602001808311610bbe57829003601f168201915b50505050508152602001600282018054610bf4906119ca565b80601f0160208091040260200160405190810160405280929190818152602001828054610c20906119ca565b8015610c6d5780601f10610c4257610100808354040283529160200191610c6d565b820191906000526020600020905b815481529060010190602001808311610c5057829003601f168201915b5050509183525050600382015460209091019060ff166002811115610c9457610c94611826565b6002811115610ca557610ca5611826565b815250509080600c018054610cb9906119ca565b80601f0160208091040260200160405190810160405280929190818152602001828054610ce5906119ca565b8015610d325780601f10610d0757610100808354040283529160200191610d32565b820191906000526020600020905b815481529060010190602001808311610d1557829003601f168201915b50505050600d830154600e84015460408051808201909152600f9095015460ff808216151587526101009091048116151560208701529394919316915089565b6014546001600160a01b03163314610ddf5760405162461bcd60e51b815260206004820152602a60248201527f4f6e6c792068696768657374206269646465722063616e2063616c6c207468696044820152693990333ab731ba34b7b760b11b6064820152608401610390565b610de76115bb565b600860105460ff166009811115610e0057610e00611826565b14610e405760405162461bcd60e51b815260206004820152601060248201526f109a59081b9bdd081858d8d95c1d195960821b6044820152606401610390565b6014546001600160a01b03163314610eaa5760405162461bcd60e51b815260206004820152602760248201527f4f6e6c792068696768657374206269646465722063616e2061636365707420746044820152661a19481cd95b1b60ca1b6064820152608401610390565b6013543414610efb5760405162461bcd60e51b815260206004820152601560248201527f496e636f727265637420616d6f756e742073656e7400000000000000000000006044820152606401610390565b6011805461ff0019166101001790556107806001600055565b6014546001600160a01b03163314610f815760405162461bcd60e51b815260206004820152602a60248201527f4f6e6c792068696768657374206269646465722063616e2063616c6c207468696044820152693990333ab731ba34b7b760b11b6064820152608401610390565b610f896115bb565b600860105460ff166009811115610fa257610fa2611826565b14610fe25760405162461bcd60e51b815260206004820152601060248201526f109a59081b9bdd081858d8d95c1d195960821b6044820152606401610390565b6014546001600160a01b0316331461104c5760405162461bcd60e51b815260206004820152602760248201527f4f6e6c792068696768657374206269646465722063616e2061636365707420746044820152661a19481cd95b1b60ca1b6064820152608401610390565b601354341461109d5760405162461bcd60e51b815260206004820152601560248201527f496e636f727265637420616d6f756e742073656e7400000000000000000000006044820152606401610390565b6011805461ff0019166101001790556105266001600055565b6001546000906001600160a01b031633146111395760405162461bcd60e51b815260206004820152602360248201527f4f6e6c7920666163746f72792063616e2063616c6c20746869732066756e637460448201527f696f6e00000000000000000000000000000000000000000000000000000000006064820152608401610390565b6111416115bb565b600560105460ff16600981111561115a5761115a611826565b146111a75760405162461bcd60e51b815260206004820152601460248201527f50726f7065727479206973206e6f7420736f6c640000000000000000000000006044820152606401610390565b47806111f55760405162461bcd60e51b815260206004820152601760248201527f436f6e747261637420686173206e6f2062616c616e63650000000000000000006044820152606401610390565b601454601280546001600160a01b0390921673ffffffffffffffffffffffffffffffffffffffff199092169190911790556010805460ff1916600917905561123c81611614565b91508161128b5760405162461bcd60e51b815260206004820152601f60248201527f5472616e736665722070726f70657274792066756e6473206661696c65642e006044820152606401610390565b601254600a546040516001600160a01b0392831692909116907f7fd0323aae6d324ceaa61c5e1564b3c3a84d38216da5434d73194ae51f1b6bb290600090a3506112d56001600055565b90565b6012546001600160a01b031633146113455760405162461bcd60e51b815260206004820152602a60248201527f4f6e6c792070726f7065727479206f776e65722063616e2063616c6c207468696044820152693990333ab731ba34b7b760b11b6064820152608401610390565b61134d6115bb565b600660105460ff16600981111561136657611366611826565b146113b35760405162461bcd60e51b815260206004820181905260248201527f50726f7065727479206973206e6f74206f70656e20666f722062696464696e676044820152606401610390565b6000601354116114055760405162461bcd60e51b815260206004820152601660248201527f4e6f20626964732068617665206265656e206d616465000000000000000000006044820152606401610390565b601080546008919060ff191660018302179055506011805460ff191660011790556107806001600055565b6012546001600160a01b0316331461149d5760405162461bcd60e51b815260206004820152602a60248201527f4f6e6c792070726f7065727479206f776e65722063616e2063616c6c207468696044820152693990333ab731ba34b7b760b11b6064820152608401610390565b6114a56115bb565b600860105460ff1660098111156114be576114be611826565b146114fe5760405162461bcd60e51b815260206004820152601060248201526f109a59081b9bdd081858d8d95c1d195960821b6044820152606401610390565b60115460ff166115505760405162461bcd60e51b815260206004820181905260248201527f53656c6c657220686173206e6f74206163636570746564207468652073656c6c6044820152606401610390565b601154610100900460ff166115a75760405162461bcd60e51b815260206004820152601f60248201527f427579657220686173206e6f74206163636570746564207468652073656c6c006044820152606401610390565b601080546005919060ff1916600183610771565b60026000540361160d5760405162461bcd60e51b815260206004820152601f60248201527f5265656e7472616e637947756172643a207265656e7472616e742063616c6c006044820152606401610390565b6002600055565b6000806064611624600285611a1a565b61162e9190611a37565b6001546040519192506000916001600160a01b039091169083908381818185875af1925050503d8060008114611680576040519150601f19603f3d011682016040523d82523d6000602084013e611685565b606091505b50509050806116d65760405162461bcd60e51b815260206004820152601f60248201527f5472616e736665722066656520746f20666163746f7279206661696c65642e006044820152606401610390565b60006116e28386611a59565b600a546040519192506001600160a01b031690600090829084908381818185875af1925050503d8060008114611734576040519150601f19603f3d011682016040523d82523d6000602084013e611739565b606091505b505090508061178a5760405162461bcd60e51b815260206004820152601060248201527f5472616e73666572206661696c65642e000000000000000000000000000000006044820152606401610390565b5060019695505050505050565b6000602082840312156117a957600080fd5b5035919050565b6000602082840312156117c257600080fd5b81356001600160a01b03811681146117d957600080fd5b9392505050565b6000815180845260005b81811015611806576020818501810151868301820152016117ea565b506000602082860101526020601f19601f83011685010191505092915050565b634e487b7160e01b600052602160045260246000fd5b6001600160a01b038151168252600060208201516080602085015261186460808501826117e0565b90506040830151848203604086015261187d82826117e0565b91505060608301516003811061189557611895611826565b806060860152508091505092915050565b600a81106118b6576118b6611826565b9052565b60006101408b83528060208401528a5160a0828501526118de6101e08501826117e0565b91505060208b015161013f1980858403016101608601526118ff83836117e0565b925060408d01519150808584030161018086015261191d83836117e0565b925060608d0151915080858403016101a086015261193b83836117e0565b925060808d0151915080858403016101c08601525061195a82826117e0565b915050896040840152886060840152828103608084015261197b818961183c565b905082810360a084015261198f81886117e0565b9150508460c08301526119a560e08301856118a6565b82511515610100830152602083015115156101208301529a9950505050505050505050565b600181811c908216806119de57607f821691505b6020821081036119fe57634e487b7160e01b600052602260045260246000fd5b50919050565b634e487b7160e01b600052601160045260246000fd5b8082028115828204841417611a3157611a31611a04565b92915050565b600082611a5457634e487b7160e01b600052601260045260246000fd5b500490565b81810381811115611a3157611a31611a0456fea26469706673582212204f593a7415877468915eba6d4d534a20c429c0c5511fb29b73301e35ba466f8d64736f6c63430008110033",
  "linkReferences": {},
  "deployedLinkReferences": {}
}