{
  "_format": "hh-sol-artifact-1",
  "contractName": "StakeVault",
  "sourceName": "contracts/token/staking/StakeVault.sol",
  "abi": [
    {
      "inputs": [
        {
          "internalType": "address",
          "name": "_token",
          "type": "address"
        },
        {
          "internalType": "address",
          "name": "_factoryController",
          "type": "address"
        }
      ],
      "stateMutability": "nonpayable",
      "type": "constructor"
    },
    {
      "anonymous": false,
      "inputs": [
        {
          "indexed": true,
          "internalType": "address",
          "name": "token",
          "type": "address"
        },
        {
          "indexed": true,
          "internalType": "uint256",
          "name": "amount",
          "type": "uint256"
        }
      ],
      "name": "Recovered",
      "type": "event"
    },
    {
      "anonymous": false,
      "inputs": [
        {
          "indexed": true,
          "internalType": "uint256",
          "name": "reward",
          "type": "uint256"
        }
      ],
      "name": "RewardAdded",
      "type": "event"
    },
    {
      "anonymous": false,
      "inputs": [
        {
          "indexed": true,
          "internalType": "address",
          "name": "user",
          "type": "address"
        },
        {
          "indexed": true,
          "internalType": "uint256",
          "name": "reward",
          "type": "uint256"
        }
      ],
      "name": "RewardPaid",
      "type": "event"
    },
    {
      "anonymous": false,
      "inputs": [
        {
          "indexed": true,
          "internalType": "uint256",
          "name": "newDuration",
          "type": "uint256"
        }
      ],
      "name": "RewardsDurationUpdated",
      "type": "event"
    },
    {
      "anonymous": false,
      "inputs": [
        {
          "indexed": true,
          "internalType": "address",
          "name": "user",
          "type": "address"
        },
        {
          "indexed": true,
          "internalType": "uint256",
          "name": "amount",
          "type": "uint256"
        }
      ],
      "name": "Staked",
      "type": "event"
    },
    {
      "anonymous": false,
      "inputs": [
        {
          "indexed": true,
          "internalType": "address",
          "name": "user",
          "type": "address"
        },
        {
          "indexed": true,
          "internalType": "uint256",
          "name": "amount",
          "type": "uint256"
        }
      ],
      "name": "Withdrawn",
      "type": "event"
    },
    {
      "inputs": [
        {
          "internalType": "address",
          "name": "account",
          "type": "address"
        }
      ],
      "name": "balanceOf",
      "outputs": [
        {
          "internalType": "uint256",
          "name": "",
          "type": "uint256"
        }
      ],
      "stateMutability": "view",
      "type": "function"
    },
    {
      "inputs": [
        {
          "internalType": "address",
          "name": "account",
          "type": "address"
        }
      ],
      "name": "earned",
      "outputs": [
        {
          "internalType": "uint256",
          "name": "",
          "type": "uint256"
        }
      ],
      "stateMutability": "view",
      "type": "function"
    },
    {
      "inputs": [],
      "name": "exit",
      "outputs": [],
      "stateMutability": "nonpayable",
      "type": "function"
    },
    {
      "inputs": [],
      "name": "factoryController",
      "outputs": [
        {
          "internalType": "address",
          "name": "",
          "type": "address"
        }
      ],
      "stateMutability": "view",
      "type": "function"
    },
    {
      "inputs": [],
      "name": "feeDistributor",
      "outputs": [
        {
          "internalType": "address",
          "name": "",
          "type": "address"
        }
      ],
      "stateMutability": "view",
      "type": "function"
    },
    {
      "inputs": [],
      "name": "getReward",
      "outputs": [],
      "stateMutability": "nonpayable",
      "type": "function"
    },
    {
      "inputs": [],
      "name": "getRewardForDuration",
      "outputs": [
        {
          "internalType": "uint256",
          "name": "",
          "type": "uint256"
        }
      ],
      "stateMutability": "view",
      "type": "function"
    },
    {
      "inputs": [],
      "name": "lastTimeRewardApplicable",
      "outputs": [
        {
          "internalType": "uint256",
          "name": "",
          "type": "uint256"
        }
      ],
      "stateMutability": "view",
      "type": "function"
    },
    {
      "inputs": [],
      "name": "lastUpdateTime",
      "outputs": [
        {
          "internalType": "uint256",
          "name": "",
          "type": "uint256"
        }
      ],
      "stateMutability": "view",
      "type": "function"
    },
    {
      "inputs": [
        {
          "internalType": "uint256",
          "name": "reward",
          "type": "uint256"
        }
      ],
      "name": "notifyRewardAmount",
      "outputs": [],
      "stateMutability": "nonpayable",
      "type": "function"
    },
    {
      "inputs": [],
      "name": "periodFinish",
      "outputs": [
        {
          "internalType": "uint256",
          "name": "",
          "type": "uint256"
        }
      ],
      "stateMutability": "view",
      "type": "function"
    },
    {
      "inputs": [
        {
          "internalType": "address",
          "name": "tokenAddress",
          "type": "address"
        },
        {
          "internalType": "uint256",
          "name": "tokenAmount",
          "type": "uint256"
        }
      ],
      "name": "recoverERC20",
      "outputs": [],
      "stateMutability": "nonpayable",
      "type": "function"
    },
    {
      "inputs": [],
      "name": "rewardPerToken",
      "outputs": [
        {
          "internalType": "uint256",
          "name": "",
          "type": "uint256"
        }
      ],
      "stateMutability": "view",
      "type": "function"
    },
    {
      "inputs": [],
      "name": "rewardPerTokenStored",
      "outputs": [
        {
          "internalType": "uint256",
          "name": "",
          "type": "uint256"
        }
      ],
      "stateMutability": "view",
      "type": "function"
    },
    {
      "inputs": [],
      "name": "rewardRate",
      "outputs": [
        {
          "internalType": "uint256",
          "name": "",
          "type": "uint256"
        }
      ],
      "stateMutability": "view",
      "type": "function"
    },
    {
      "inputs": [
        {
          "internalType": "address",
          "name": "",
          "type": "address"
        }
      ],
      "name": "rewards",
      "outputs": [
        {
          "internalType": "uint256",
          "name": "",
          "type": "uint256"
        }
      ],
      "stateMutability": "view",
      "type": "function"
    },
    {
      "inputs": [],
      "name": "rewardsDuration",
      "outputs": [
        {
          "internalType": "uint256",
          "name": "",
          "type": "uint256"
        }
      ],
      "stateMutability": "view",
      "type": "function"
    },
    {
      "inputs": [
        {
          "internalType": "address",
          "name": "_feeDistributor",
          "type": "address"
        }
      ],
      "name": "setFeeDistributor",
      "outputs": [],
      "stateMutability": "nonpayable",
      "type": "function"
    },
    {
      "inputs": [
        {
          "internalType": "uint256",
          "name": "_rewardsDuration",
          "type": "uint256"
        }
      ],
      "name": "setRewardsDuration",
      "outputs": [],
      "stateMutability": "nonpayable",
      "type": "function"
    },
    {
      "inputs": [
        {
          "internalType": "uint256",
          "name": "amount",
          "type": "uint256"
        }
      ],
      "name": "stake",
      "outputs": [],
      "stateMutability": "nonpayable",
      "type": "function"
    },
    {
      "inputs": [],
      "name": "token",
      "outputs": [
        {
          "internalType": "contract AqaroTokenInterface",
          "name": "",
          "type": "address"
        }
      ],
      "stateMutability": "view",
      "type": "function"
    },
    {
      "inputs": [],
      "name": "totalSupply",
      "outputs": [
        {
          "internalType": "uint256",
          "name": "",
          "type": "uint256"
        }
      ],
      "stateMutability": "view",
      "type": "function"
    },
    {
      "inputs": [
        {
          "internalType": "address",
          "name": "",
          "type": "address"
        }
      ],
      "name": "userRewardPerTokenPaid",
      "outputs": [
        {
          "internalType": "uint256",
          "name": "",
          "type": "uint256"
        }
      ],
      "stateMutability": "view",
      "type": "function"
    },
    {
      "inputs": [
        {
          "internalType": "uint256",
          "name": "amount",
          "type": "uint256"
        }
      ],
      "name": "withdraw",
      "outputs": [],
      "stateMutability": "nonpayable",
      "type": "function"
    }
  ],
  "bytecode": "0x608060405260006004556000600555620151806006553480156200002257600080fd5b506040516200154f3803806200154f8339810160408190526200004591620000ad565b60016000819055600280546001600160a01b038086166001600160a01b031992831617909255825491841691161790556200008442624f1a00620000e5565b600455506200010d9050565b80516001600160a01b0381168114620000a857600080fd5b919050565b60008060408385031215620000c157600080fd5b620000cc8362000090565b9150620000dc6020840162000090565b90509250929050565b808201808211156200010757634e487b7160e01b600052601160045260246000fd5b92915050565b611432806200011d6000396000f3fe608060405234801561001057600080fd5b50600436106101975760003560e01c806380faa57d116100e3578063ccfc2e8d1161008c578063e9fad8ee11610066578063e9fad8ee14610329578063ebe2b12b14610331578063fc0c546a1461033a57600080fd5b8063ccfc2e8d14610305578063cd3daf9d14610318578063df136d651461032057600080fd5b8063a694fc3a116100bd578063a694fc3a146102d6578063c8f33c91146102e9578063cc1a378f146102f257600080fd5b806380faa57d1461029b5780638980f11f146102a35780638b876347146102b657600080fd5b80632e1a7d4d116101455780633d18b9121161011f5780633d18b9121461026157806370a08231146102695780637b0a47ee1461029257600080fd5b80632e1a7d4d14610230578063386a9525146102455780633c6b16ab1461024e57600080fd5b806318160ddd1161017657806318160ddd1461020d5780631c1f78eb146102155780631f2878091461021d57600080fd5b80628cc2621461019c5780630700037d146101c25780630d43e8ad146101e2575b600080fd5b6101af6101aa3660046112e7565b61034d565b6040519081526020015b60405180910390f35b6101af6101d03660046112e7565b600a6020526000908152604090205481565b6003546101f5906001600160a01b031681565b6040516001600160a01b0390911681526020016101b9565b600b546101af565b6101af6103ca565b6001546101f5906001600160a01b031681565b61024361023e366004611309565b6103e1565b005b6101af60065481565b61024361025c366004611309565b610679565b6102436108d0565b6101af6102773660046112e7565b6001600160a01b03166000908152600c602052604090205490565b6101af60055481565b6101af610a14565b6102436102b1366004611322565b610a2b565b6101af6102c43660046112e7565b60096020526000908152604090205481565b6102436102e4366004611309565b610ba4565b6101af60075481565b610243610300366004611309565b610ecb565b6102436103133660046112e7565b611004565b6101af611123565b6101af60085481565b610243611184565b6101af60045481565b6002546101f5906001600160a01b031681565b6001600160a01b0381166000908152600a60209081526040808320546009909252822054670de0b6b3a764000090610383611123565b61038d9190611362565b6001600160a01b0385166000908152600c60205260409020546103b09190611375565b6103ba919061138c565b6103c491906113ae565b92915050565b60006006546005546103dc9190611375565b905090565b6103e961119d565b336103f2611123565b6008556103fd610a14565b6007556001600160a01b03811615610444576104188161034d565b6001600160a01b0382166000908152600a60209081526040808320939093556008546009909152919020555b60045442101561049b5760405162461bcd60e51b815260206004820152601c60248201527f5374616b696e6720706572696f6420686173206e6f7420656e6465640000000060448201526064015b60405180910390fd5b600082116104eb5760405162461bcd60e51b815260206004820152601160248201527f43616e6e6f7420776974686472617720300000000000000000000000000000006044820152606401610492565b336000908152600c602052604090205482111561054a5760405162461bcd60e51b815260206004820181905260248201527f43616e6e6f74207769746864726177206d6f7265207468616e207374616b65646044820152606401610492565b81600b600082825461055c9190611362565b9091555050336000908152600c602052604081208054849290610580908490611362565b90915550506002546001600160a01b031663a9059cbb336040517fffffffff0000000000000000000000000000000000000000000000000000000060e084901b1681526001600160a01b039091166004820152602481018590526044016020604051808303816000875af11580156105fc573d6000803e3d6000fd5b505050506040513d601f19601f8201168201806040525081019061062091906113c1565b50336000908152600a60205260409020541561063e5761063e6111f6565b604051829033907f7084f5476618d8e60b11ef0d7d3f06914655adb8793e28ff7f018d4c76d505d590600090a3506106766001600055565b50565b6003546001600160a01b031633146106f95760405162461bcd60e51b815260206004820152602b60248201527f4f6e6c7920666565206469737472696275746f722063616e2063616c6c20746860448201527f69732066756e6374696f6e0000000000000000000000000000000000000000006064820152608401610492565b6000610703611123565b60085561070e610a14565b6007556001600160a01b03811615610755576107298161034d565b6001600160a01b0382166000908152600a60209081526040808320939093556008546009909152919020555b60045442106107735760065461076b908361138c565b6005556107b5565b6000426004546107839190611362565b90506000600554826107959190611375565b6006549091506107a582866113ae565b6107af919061138c565b60055550505b6002546040517f70a082310000000000000000000000000000000000000000000000000000000081523060048201526000916001600160a01b0316906370a0823190602401602060405180830381865afa158015610817573d6000803e3d6000fd5b505050506040513d601f19601f8201168201806040525081019061083b91906113e3565b90506006548161084b919061138c565b600554111561089c5760405162461bcd60e51b815260206004820152601860248201527f50726f76696465642072657761726420746f6f206869676800000000000000006044820152606401610492565b4260075560405183907fde88a922e0d3b88b24e9623efeb464919c6bf9f66857a65e2bfcf2ce87a9433d90600090a2505050565b6108d861119d565b336108e1611123565b6008556108ec610a14565b6007556001600160a01b03811615610933576109078161034d565b6001600160a01b0382166000908152600a60209081526040808320939093556008546009909152919020555b336000908152600a60205260409020548015610a0657336000818152600a60209081526040808320839055600254815163a9059cbb60e01b815260048101959095526024850186905290516001600160a01b039091169363a9059cbb93604480830194939283900301908290875af11580156109b3573d6000803e3d6000fd5b505050506040513d601f19601f820116820180604052508101906109d791906113c1565b50604051819033907fe2403640ba68fed3a2f88b7557551d1993f84b99bb10ff833f0cf8db0c5e048690600090a35b5050610a126001600055565b565b60006004544210610a26575060045490565b504290565b6001546001600160a01b03163314610a945760405162461bcd60e51b815260206004820152602660248201527f4f6e6c7920636f6e74726f6c6c65722063616e2063616c6c20746869732066756044820152653731ba34b7b760d11b6064820152608401610492565b6002546001600160a01b0390811690831603610af25760405162461bcd60e51b815260206004820152601960248201527f43616e6e6f742077697468647261772041515220746f6b656e000000000000006044820152606401610492565b60015460405163a9059cbb60e01b81526001600160a01b039182166004820152602481018390529083169063a9059cbb906044016020604051808303816000875af1158015610b45573d6000803e3d6000fd5b505050506040513d601f19601f82011682018060405250810190610b6991906113c1565b5060405181906001600160a01b038416907f8c1256b8896378cd5044f80c202f9772b9d77dc85c8a6eb51967210b09bfaa2890600090a35050565b610bac61119d565b33610bb5611123565b600855610bc0610a14565b6007556001600160a01b03811615610c0757610bdb8161034d565b6001600160a01b0382166000908152600a60209081526040808320939093556008546009909152919020555b60008211610c575760405162461bcd60e51b815260206004820152600e60248201527f43616e6e6f74207374616b6520300000000000000000000000000000000000006044820152606401610492565b6004544210610ca85760405162461bcd60e51b815260206004820152601860248201527f5374616b696e6720706572696f642068617320656e64656400000000000000006044820152606401610492565b60025482906001600160a01b031663dd62ed3e336040517fffffffff0000000000000000000000000000000000000000000000000000000060e084901b1681526001600160a01b039091166004820152306024820152604401602060405180830381865afa158015610d1e573d6000803e3d6000fd5b505050506040513d601f19601f82011682018060405250810190610d4291906113e3565b1015610db65760405162461bcd60e51b815260206004820152602760248201527f5472616e73666572206f6620746f6b656e20686173206e6f74206265656e206160448201527f7070726f766564000000000000000000000000000000000000000000000000006064820152608401610492565b81600b6000828254610dc891906113ae565b9091555050336000908152600c602052604081208054849290610dec9084906113ae565b90915550506002546001600160a01b03166323b872dd336040517fffffffff0000000000000000000000000000000000000000000000000000000060e084901b1681526001600160a01b039091166004820152306024820152604481018590526064016020604051808303816000875af1158015610e6e573d6000803e3d6000fd5b505050506040513d601f19601f82011682018060405250810190610e9291906113c1565b50604051829033907f9e71bc8eea02a63969f509818f2dafb9254532904319f9dbda79b67bd34a5f3d90600090a3506106766001600055565b6001546001600160a01b03163314610f345760405162461bcd60e51b815260206004820152602660248201527f4f6e6c7920636f6e74726f6c6c65722063616e2063616c6c20746869732066756044820152653731ba34b7b760d11b6064820152608401610492565b6004544211610fd15760405162461bcd60e51b815260206004820152605860248201527f50726576696f7573207265776172647320706572696f64206d7573742062652060448201527f636f6d706c657465206265666f7265206368616e67696e67207468652064757260648201527f6174696f6e20666f7220746865206e657720706572696f640000000000000000608482015260a401610492565b600681905560405181907ffb46ca5a5e06d4540d6387b930a7c978bce0db5f449ec6b3f5d07c6e1d44f2d390600090a250565b6001546001600160a01b0316331461106d5760405162461bcd60e51b815260206004820152602660248201527f4f6e6c7920636f6e74726f6c6c65722063616e2063616c6c20746869732066756044820152653731ba34b7b760d11b6064820152608401610492565b6001600160a01b0381166110e95760405162461bcd60e51b815260206004820152602a60248201527f43616e6e6f742073657420666565206469737472696275746f7220746f207a6560448201527f726f2061646472657373000000000000000000000000000000000000000000006064820152608401610492565b600380547fffffffffffffffffffffffff0000000000000000000000000000000000000000166001600160a01b0392909216919091179055565b6000600b54600003611136575060085490565b600b54600554600754611147610a14565b6111519190611362565b61115b9190611375565b61116d90670de0b6b3a7640000611375565b611177919061138c565b6008546103dc91906113ae565b336000908152600c6020526040902054610a12906103e1565b6002600054036111ef5760405162461bcd60e51b815260206004820152601f60248201527f5265656e7472616e637947756172643a207265656e7472616e742063616c6c006044820152606401610492565b6002600055565b336000908152600a6020526040902054801561067657336000818152600a60209081526040808320839055600254815163a9059cbb60e01b815260048101959095526024850186905290516001600160a01b039091169363a9059cbb93604480830194939283900301908290875af1158015611276573d6000803e3d6000fd5b505050506040513d601f19601f8201168201806040525081019061129a91906113c1565b50604051819033907fe2403640ba68fed3a2f88b7557551d1993f84b99bb10ff833f0cf8db0c5e048690600090a350565b80356001600160a01b03811681146112e257600080fd5b919050565b6000602082840312156112f957600080fd5b611302826112cb565b9392505050565b60006020828403121561131b57600080fd5b5035919050565b6000806040838503121561133557600080fd5b61133e836112cb565b946020939093013593505050565b634e487b7160e01b600052601160045260246000fd5b818103818111156103c4576103c461134c565b80820281158282048414176103c4576103c461134c565b6000826113a957634e487b7160e01b600052601260045260246000fd5b500490565b808201808211156103c4576103c461134c565b6000602082840312156113d357600080fd5b8151801515811461130257600080fd5b6000602082840312156113f557600080fd5b505191905056fea26469706673582212206bcc9459e0a4cfa9ba20735394f0032c0abb0370f3201e462f608df8c35831f864736f6c63430008110033",
  "linkReferences": {},
  "deployedLinkReferences": {}
}